{
  "contractName": "CSTMinter",
  "abi": [
    {
      "inputs": [
        {
          "internalType": "address",
          "name": "_devaddr",
          "type": "address"
        },
        {
          "internalType": "uint256",
          "name": "_startBlock",
          "type": "uint256"
        },
        {
          "internalType": "address",
          "name": "ownerAddress",
          "type": "address"
        }
      ],
      "stateMutability": "nonpayable",
      "type": "constructor"
    },
    {
      "anonymous": false,
      "inputs": [
        {
          "indexed": false,
          "internalType": "address",
          "name": "proxy",
          "type": "address"
        },
        {
          "indexed": false,
          "internalType": "address",
          "name": "pool",
          "type": "address"
        },
        {
          "indexed": false,
          "internalType": "uint256",
          "name": "lastRewardBock",
          "type": "uint256"
        },
        {
          "indexed": false,
          "internalType": "uint256",
          "name": "blockNumber",
          "type": "uint256"
        },
        {
          "indexed": false,
          "internalType": "uint256",
          "name": "amount",
          "type": "uint256"
        }
      ],
      "name": "MintCST",
      "type": "event"
    },
    {
      "anonymous": false,
      "inputs": [
        {
          "indexed": true,
          "internalType": "address",
          "name": "previousOwner",
          "type": "address"
        },
        {
          "indexed": true,
          "internalType": "address",
          "name": "newOwner",
          "type": "address"
        }
      ],
      "name": "OwnershipTransferred",
      "type": "event"
    },
    {
      "anonymous": false,
      "inputs": [
        {
          "indexed": false,
          "internalType": "address",
          "name": "pool",
          "type": "address"
        },
        {
          "indexed": false,
          "internalType": "uint256",
          "name": "phase",
          "type": "uint256"
        },
        {
          "indexed": false,
          "internalType": "uint256",
          "name": "totalSupply",
          "type": "uint256"
        }
      ],
      "name": "PhaseChanged",
      "type": "event"
    },
    {
      "anonymous": false,
      "inputs": [
        {
          "indexed": false,
          "internalType": "address",
          "name": "_dev",
          "type": "address"
        }
      ],
      "name": "SetDevAddress",
      "type": "event"
    },
    {
      "anonymous": false,
      "inputs": [
        {
          "indexed": false,
          "internalType": "uint256",
          "name": "_block",
          "type": "uint256"
        }
      ],
      "name": "SetHalvingPeriod",
      "type": "event"
    },
    {
      "anonymous": false,
      "inputs": [
        {
          "indexed": false,
          "internalType": "address",
          "name": "_farmingProxy",
          "type": "address"
        },
        {
          "indexed": false,
          "internalType": "address",
          "name": "_pool",
          "type": "address"
        },
        {
          "indexed": false,
          "internalType": "uint256",
          "name": "_allocPoint",
          "type": "uint256"
        },
        {
          "indexed": false,
          "internalType": "uint256",
          "name": "_totalAllocPoint",
          "type": "uint256"
        }
      ],
      "name": "UpdateProxyInfo",
      "type": "event"
    },
    {
      "anonymous": false,
      "inputs": [
        {
          "indexed": false,
          "internalType": "address",
          "name": "_tokenAddress",
          "type": "address"
        }
      ],
      "name": "UpdateToken",
      "type": "event"
    },
    {
      "inputs": [],
      "name": "HALVING_COEFFICIENT",
      "outputs": [
        {
          "internalType": "uint256",
          "name": "",
          "type": "uint256"
        }
      ],
      "stateMutability": "view",
      "type": "function",
      "constant": true
    },
    {
      "inputs": [],
      "name": "cstToken",
      "outputs": [
        {
          "internalType": "contract ICSTToken",
          "name": "",
          "type": "address"
        }
      ],
      "stateMutability": "view",
      "type": "function",
      "constant": true
    },
    {
      "inputs": [],
      "name": "devaddr",
      "outputs": [
        {
          "internalType": "address",
          "name": "",
          "type": "address"
        }
      ],
      "stateMutability": "view",
      "type": "function",
      "constant": true
    },
    {
      "inputs": [],
      "name": "halvingPeriod",
      "outputs": [
        {
          "internalType": "uint256",
          "name": "",
          "type": "uint256"
        }
      ],
      "stateMutability": "view",
      "type": "function",
      "constant": true
    },
    {
      "inputs": [],
      "name": "owner",
      "outputs": [
        {
          "internalType": "address",
          "name": "",
          "type": "address"
        }
      ],
      "stateMutability": "view",
      "type": "function",
      "constant": true
    },
    {
      "inputs": [
        {
          "internalType": "address",
          "name": "",
          "type": "address"
        },
        {
          "internalType": "address",
          "name": "",
          "type": "address"
        }
      ],
      "name": "poolInfo",
      "outputs": [
        {
          "internalType": "address",
          "name": "pool",
          "type": "address"
        },
        {
          "internalType": "uint256",
          "name": "allocPoint",
          "type": "uint256"
        },
        {
          "internalType": "uint256",
          "name": "lastRewardBlock",
          "type": "uint256"
        }
      ],
      "stateMutability": "view",
      "type": "function",
      "constant": true
    },
    {
      "inputs": [
        {
          "internalType": "address",
          "name": "",
          "type": "address"
        },
        {
          "internalType": "uint256",
          "name": "",
          "type": "uint256"
        }
      ],
      "name": "poolsAddress",
      "outputs": [
        {
          "internalType": "address",
          "name": "",
          "type": "address"
        }
      ],
      "stateMutability": "view",
      "type": "function",
      "constant": true
    },
    {
      "inputs": [
        {
          "internalType": "uint256",
          "name": "",
          "type": "uint256"
        }
      ],
      "name": "proxyAddresses",
      "outputs": [
        {
          "internalType": "address",
          "name": "",
          "type": "address"
        }
      ],
      "stateMutability": "view",
      "type": "function",
      "constant": true
    },
    {
      "inputs": [
        {
          "internalType": "address",
          "name": "",
          "type": "address"
        }
      ],
      "name": "proxyExists",
      "outputs": [
        {
          "internalType": "bool",
          "name": "",
          "type": "bool"
        }
      ],
      "stateMutability": "view",
      "type": "function",
      "constant": true
    },
    {
      "inputs": [
        {
          "internalType": "address",
          "name": "",
          "type": "address"
        },
        {
          "internalType": "address",
          "name": "",
          "type": "address"
        }
      ],
      "name": "proxyTokens",
      "outputs": [
        {
          "internalType": "bool",
          "name": "",
          "type": "bool"
        }
      ],
      "stateMutability": "view",
      "type": "function",
      "constant": true
    },
    {
      "inputs": [],
      "name": "renounceOwnership",
      "outputs": [],
      "stateMutability": "nonpayable",
      "type": "function"
    },
    {
      "inputs": [],
      "name": "startBlock",
      "outputs": [
        {
          "internalType": "uint256",
          "name": "",
          "type": "uint256"
        }
      ],
      "stateMutability": "view",
      "type": "function",
      "constant": true
    },
    {
      "inputs": [],
      "name": "tokenPerBlock",
      "outputs": [
        {
          "internalType": "uint256",
          "name": "",
          "type": "uint256"
        }
      ],
      "stateMutability": "view",
      "type": "function",
      "constant": true
    },
    {
      "inputs": [],
      "name": "totalAllocPoint",
      "outputs": [
        {
          "internalType": "uint256",
          "name": "",
          "type": "uint256"
        }
      ],
      "stateMutability": "view",
      "type": "function",
      "constant": true
    },
    {
      "inputs": [
        {
          "internalType": "address",
          "name": "newOwner",
          "type": "address"
        }
      ],
      "name": "transferOwnership",
      "outputs": [],
      "stateMutability": "nonpayable",
      "type": "function"
    },
    {
      "inputs": [
        {
          "internalType": "contract ICSTToken",
          "name": "_token",
          "type": "address"
        }
      ],
      "name": "setToken",
      "outputs": [],
      "stateMutability": "nonpayable",
      "type": "function"
    },
    {
      "inputs": [
        {
          "internalType": "uint256",
          "name": "_block",
          "type": "uint256"
        }
      ],
      "name": "setHalvingPeriod",
      "outputs": [],
      "stateMutability": "nonpayable",
      "type": "function"
    },
    {
      "inputs": [
        {
          "internalType": "address",
          "name": "_farmingProxy",
          "type": "address"
        }
      ],
      "name": "addProxy",
      "outputs": [],
      "stateMutability": "nonpayable",
      "type": "function"
    },
    {
      "inputs": [
        {
          "internalType": "uint256",
          "name": "_allocPoint",
          "type": "uint256"
        },
        {
          "internalType": "address",
          "name": "_poolAddress",
          "type": "address"
        }
      ],
      "name": "add",
      "outputs": [],
      "stateMutability": "nonpayable",
      "type": "function"
    },
    {
      "inputs": [
        {
          "internalType": "address",
          "name": "_poolAddress",
          "type": "address"
        },
        {
          "internalType": "uint256",
          "name": "_allocPoint",
          "type": "uint256"
        }
      ],
      "name": "set",
      "outputs": [],
      "stateMutability": "nonpayable",
      "type": "function"
    },
    {
      "inputs": [],
      "name": "massUpdateProxyForOwner",
      "outputs": [],
      "stateMutability": "nonpayable",
      "type": "function"
    },
    {
      "inputs": [],
      "name": "massUpdateProxy",
      "outputs": [],
      "stateMutability": "nonpayable",
      "type": "function"
    },
    {
      "inputs": [],
      "name": "phase",
      "outputs": [
        {
          "internalType": "uint256",
          "name": "",
          "type": "uint256"
        }
      ],
      "stateMutability": "view",
      "type": "function",
      "constant": true
    },
    {
      "inputs": [
        {
          "internalType": "address",
          "name": "_proxyAddress",
          "type": "address"
        },
        {
          "internalType": "address",
          "name": "_poolAddress",
          "type": "address"
        }
      ],
      "name": "getReward",
      "outputs": [
        {
          "internalType": "uint256",
          "name": "",
          "type": "uint256"
        }
      ],
      "stateMutability": "view",
      "type": "function",
      "constant": true
    },
    {
      "inputs": [
        {
          "internalType": "address",
          "name": "pool",
          "type": "address"
        }
      ],
      "name": "updateLastRewardBlock",
      "outputs": [],
      "stateMutability": "nonpayable",
      "type": "function"
    },
    {
      "inputs": [
        {
          "internalType": "address",
          "name": "pool",
          "type": "address"
        }
      ],
      "name": "mint",
      "outputs": [
        {
          "internalType": "uint256",
          "name": "",
          "type": "uint256"
        }
      ],
      "stateMutability": "nonpayable",
      "type": "function"
    },
    {
      "inputs": [
        {
          "internalType": "address",
          "name": "_devaddr",
          "type": "address"
        }
      ],
      "name": "dev",
      "outputs": [],
      "stateMutability": "nonpayable",
      "type": "function"
    },
    {
      "inputs": [],
      "name": "getTokenAddress",
      "outputs": [
        {
          "internalType": "address",
          "name": "",
          "type": "address"
        }
      ],
      "stateMutability": "view",
      "type": "function",
      "constant": true
    },
    {
      "inputs": [],
      "name": "getStartBlock",
      "outputs": [
        {
          "internalType": "uint256",
          "name": "",
          "type": "uint256"
        }
      ],
      "stateMutability": "view",
      "type": "function",
      "constant": true
    },
    {
      "inputs": [
        {
          "internalType": "address",
          "name": "_proxy",
          "type": "address"
        },
        {
          "internalType": "address",
          "name": "_pool",
          "type": "address"
        }
      ],
      "name": "getPoolInfo",
      "outputs": [
        {
          "internalType": "uint256",
          "name": "_allocPoint",
          "type": "uint256"
        },
        {
          "internalType": "uint256",
          "name": "_lastRewardBlock",
          "type": "uint256"
        }
      ],
      "stateMutability": "view",
      "type": "function",
      "constant": true
    }
  ],
  "bytecode": "0x6080604052679657bb44eabb55556003556000600955622819a0600b55671080e992061ab300600c553480156200003557600080fd5b5060405162001bb638038062001bb68339810160408190526200005891620001cf565b6200006c62000066620000d2565b620000d6565b6001600160a01b0383166200009e5760405162461bcd60e51b815260040162000095906200028a565b60405180910390fd5b600280546001600160a01b0319166001600160a01b038516179055600a829055620000c98162000126565b505050620002d3565b3390565b600080546001600160a01b038381166001600160a01b0319831681178455604051919092169283917f8be0079c531659141344cd1fd0a4f28419497f9722a3daafe3b4186f6b6457e09190a35050565b62000130620000d2565b6001600160a01b031662000143620001a3565b6001600160a01b0316146200016c5760405162461bcd60e51b8152600401620000959062000255565b6001600160a01b038116620001955760405162461bcd60e51b815260040162000095906200020f565b620001a081620000d6565b50565b6000546001600160a01b031690565b80516001600160a01b0381168114620001ca57600080fd5b919050565b600080600060608486031215620001e4578283fd5b620001ef84620001b2565b9250602084015191506200020660408501620001b2565b90509250925092565b60208082526026908201527f4f776e61626c653a206e6577206f776e657220697320746865207a65726f206160408201526564647265737360d01b606082015260800190565b6020808252818101527f4f776e61626c653a2063616c6c6572206973206e6f7420746865206f776e6572604082015260600190565b60208082526029908201527f4353544d696e7465723a2064657620616464726573732063616e27742062652060408201526830206164647265737360b81b606082015260800190565b6118d380620002e36000396000f3fe608060405234801561001057600080fd5b50600436106101da5760003560e01c80635f386b9011610104578063a5f18c01116100a2578063d49e77cd11610071578063d49e77cd14610389578063d5feaea314610391578063e1b7cebd14610399578063f2fde38b146103bb576101da565b8063a5f18c0114610353578063b1c9fe6e1461035b578063b5ec5c9914610363578063c55d745514610376576101da565b80636b091695116100de5780636b0916951461031d578063715018a6146103305780638d88a90e146103385780638da5cb5b1461034b576101da565b80635f386b90146102ef57806363238b21146102f75780636a6278421461030a576101da565b80632b8bbbe81161017c5780634198709a1161014b5780634198709a146102b6578063486e51f4146102be57806348cd4cb1146102df5780635a3e251f146102e7576101da565b80632b8bbbe8146102755780632f154ea7146102885780633825d8281461029b5780633f1e3377146102ae576101da565b806317caf6f1116101b857806317caf6f114610225578063206b8b6e1461023a57806323b11d8d146102425780632670e39c14610255576101da565b8063036725d8146101df57806310fe9ae814610208578063144fa6d714610210575b600080fd5b6101f26101ed36600461148c565b6103ce565b6040516101ff91906114e0565b60405180910390f35b6101f26103f8565b61022361021e36600461140d565b610407565b005b61022d6104cb565b6040516101ff91906117d2565b61022d6104d1565b61022361025036600461140d565b6104d7565b610268610263366004611429565b6105dc565b6040516101ff9190611588565b6102236102833660046114bc565b6105fc565b61026861029636600461140d565b6107c2565b6102236102a9366004611461565b6107d7565b6101f26108db565b61022d6108ea565b6102d16102cc366004611429565b6108f0565b6040516101ff9291906117db565b61022d610926565b61022d61092c565b610223610932565b61022361030536600461140d565b610a05565b61022d61031836600461140d565b610b87565b61022d61032b366004611429565b610c0b565b610223610d76565b61022361034636600461140d565b610dc1565b6101f2610e71565b61022d610e80565b61022d610e86565b61022361037136600461148c565b610e96565b6101f2610384366004611461565b610f0a565b6101f2610f42565b610223610f51565b6103ac6103a7366004611429565b611031565b6040516101ff93929190611567565b6102236103c936600461140d565b611067565b600681815481106103de57600080fd5b6000918252602090912001546001600160a01b0316905081565b6001546001600160a01b031690565b61040f6110d5565b6001600160a01b0316610420610e71565b6001600160a01b03161461044f5760405162461bcd60e51b8152600401610446906116ce565b60405180910390fd5b6001600160a01b0381166104755760405162461bcd60e51b815260040161044690611703565b600180546001600160a01b0319166001600160a01b0383161790556040517fc94c224579611362c1287bb3e82a13fbd4a04dd97c05e9fc3acf9a8c62194adb906104c09083906114e0565b60405180910390a150565b60095481565b600c5481565b6104df6110d5565b6001600160a01b03166104f0610e71565b6001600160a01b0316146105165760405162461bcd60e51b8152600401610446906116ce565b6001600160a01b03811661053c5760405162461bcd60e51b815260040161044690611703565b6001600160a01b03811660009081526008602052604090205460ff16156105755760405162461bcd60e51b815260040161044690611593565b6006805460018181019092557ff652222313e28459528d920b65115c16c04f3efc82aaedc97be59f3f377c0d3f0180546001600160a01b039093166001600160a01b031990931683179055600091825260086020526040909120805460ff19169091179055565b600560209081526000928352604080842090915290825290205460ff1681565b3360009081526008602052604090205460ff1661062b5760405162461bcd60e51b815260040161044690611697565b6001600160a01b0381166106515760405162461bcd60e51b815260040161044690611703565b3360009081526005602090815260408083206001600160a01b038516845290915290205460ff16156106955760405162461bcd60e51b815260040161044690611783565b3360009081526005602090815260408083206001600160a01b03851684529091528120805460ff19166001179055600a5443116106d457600a546106d6565b435b6009549091506106e690846110d9565b60099081553360008181526004602090815260408083206001600160a01b03888116808652828552838620845160608101865281548382528188018e81528288018d8152858b5296895282519095166001600160a01b03199182161783559351600180840191909155945160029092019190915587875260078652848720805494850181558752949095209091018054909116909317909255925490517f126d7aa7b49e00d079095d0ec1a490ed23bb2c9c9e9343a00dd07aa1a5543cb0926107b4929091879189916114f4565b60405180910390a150505050565b60086020526000908152604090205460ff1681565b3360009081526008602052604090205460ff166108065760405162461bcd60e51b815260040161044690611697565b6001600160a01b03821661082c5760405162461bcd60e51b815260040161044690611703565b3360009081526004602090815260408083206001600160a01b038616845290915290206001015460095461086b918391610865916110ec565b906110d9565b60099081553360008181526004602090815260408083206001600160a01b038816845290915290819020600101849055915491517f126d7aa7b49e00d079095d0ec1a490ed23bb2c9c9e9343a00dd07aa1a5543cb0926108cf9291869186916114f4565b60405180910390a15050565b6001546001600160a01b031681565b60035481565b6001600160a01b039182166000908152600460209081526040808320939094168252919091522060018101546002909101549091565b600a5481565b600b5481565b3360009081526008602052604090205460ff166109615760405162461bcd60e51b815260040161044690611697565b60005b600654811015610a02576006818154811061098f57634e487b7160e01b600052603260045260246000fd5b60009182526020822001546040805163492a401d60e11b815290516001600160a01b0390921692639254803a9260048084019382900301818387803b1580156109d757600080fd5b505af11580156109eb573d6000803e3d6000fd5b5050505080806109fa90611857565b915050610964565b50565b3360009081526005602090815260408083206001600160a01b038516845290915290205460ff16610a485760405162461bcd60e51b8152600401610446906115d6565b3360009081526004602090815260408083206001600160a01b0385168452909152812060028101549091610a7b826110f8565b90506000610a88436110f8565b905081811115610b53577fb545e03e7c97cbab287b0da6d423a267b59c9f995c3643cabcac101c3ef240018582600160009054906101000a90046001600160a01b03166001600160a01b03166318160ddd6040518163ffffffff1660e01b815260040160206040518083038186803b158015610b0357600080fd5b505afa158015610b17573d6000803e3d6000fd5b505050506040513d601f19601f82011682018060405250810190610b3b91906114a4565b604051610b4a93929190611567565b60405180910390a15b50503360009081526004602090815260408083206001600160a01b0396909616835294905292909220436002909101555050565b3360009081526008602052604081205460ff16610bb65760405162461bcd60e51b815260040161044690611697565b3360009081526005602090815260408083206001600160a01b038616845290915290205460ff16610bf95760405162461bcd60e51b81526004016104469061160d565b610c03338361114c565b90505b919050565b6001600160a01b038083166000908152600460209081526040808320938516835292905290812060028101544311610c47576000915050610d70565b6002810154600080610c58836110f8565b90506000610c65436110f8565b60035490915060015b838111610ca857600c54610c9490610c8e84670de0b6b3a76400006113a5565b906113b1565b915080610ca081611857565b915050610c6e565b82841015610d375783610cba81611857565b9450506000610cda600a54610865600b54886113a590919063ffffffff16565b9050610d11610d0a600954610c8e8b60010154610d0488610d048e896110ec90919063ffffffff16565b906113a5565b87906110d9565b600c54909650610d2d90610c8e85670de0b6b3a76400006113a5565b9096509150610ca8565b610d66610d5f600954610c8e8a60010154610d0487610d048d436110ec90919063ffffffff16565b86906110d9565b9750505050505050505b92915050565b610d7e6110d5565b6001600160a01b0316610d8f610e71565b6001600160a01b031614610db55760405162461bcd60e51b8152600401610446906116ce565b610dbf60006113bd565b565b610dc96110d5565b6001600160a01b0316610dda610e71565b6001600160a01b031614610e005760405162461bcd60e51b8152600401610446906116ce565b6001600160a01b038116610e265760405162461bcd60e51b81526004016104469061173a565b600280546001600160a01b0319166001600160a01b0383161790556040517ff5721dfa6ddbf8e4a2cd38b2152fff4008050b9b37de59ae1e022dde4bd5df73906104c09083906114e0565b6000546001600160a01b031690565b600a5490565b6000610e91436110f8565b905090565b610e9e6110d5565b6001600160a01b0316610eaf610e71565b6001600160a01b031614610ed55760405162461bcd60e51b8152600401610446906116ce565b600b8190556040517fdb8133c1736203fccafd8f3ae73892ac1d758c62a986ff6c4b5f5a5221798f27906104c09083906117d2565b60076020528160005260406000208181548110610f2657600080fd5b6000918252602090912001546001600160a01b03169150829050565b6002546001600160a01b031681565b610f596110d5565b6001600160a01b0316610f6a610e71565b6001600160a01b031614610f905760405162461bcd60e51b8152600401610446906116ce565b60005b600654811015610a025760068181548110610fbe57634e487b7160e01b600052603260045260246000fd5b60009182526020822001546040805163492a401d60e11b815290516001600160a01b0390921692639254803a9260048084019382900301818387803b15801561100657600080fd5b505af115801561101a573d6000803e3d6000fd5b50505050808061102990611857565b915050610f93565b60046020908152600092835260408084209091529082529020805460018201546002909201546001600160a01b03909116919083565b61106f6110d5565b6001600160a01b0316611080610e71565b6001600160a01b0316146110a65760405162461bcd60e51b8152600401610446906116ce565b6001600160a01b0381166110cc5760405162461bcd60e51b815260040161044690611651565b610a02816113bd565b3390565b60006110e582846117e9565b9392505050565b60006110e58284611840565b6000600b546000141561110d57506000610c06565b600a548211156111445761113d600b54610c8e6001611137600a54876110ec90919063ffffffff16565b906110ec565b9050610c06565b506000919050565b6001600160a01b0380831660009081526004602090815260408083209385168352929052908120600281015443811061118a57600092505050610d70565b6000611195826110f8565b905060006111a2436110f8565b90508181111561126d577fb545e03e7c97cbab287b0da6d423a267b59c9f995c3643cabcac101c3ef240018682600160009054906101000a90046001600160a01b03166001600160a01b03166318160ddd6040518163ffffffff1660e01b815260040160206040518083038186803b15801561121d57600080fd5b505afa158015611231573d6000803e3d6000fd5b505050506040513d601f19601f8201168201806040525081019061125591906114a4565b60405161126493929190611567565b60405180910390a15b60006112798888610c0b565b6001546002549192506001600160a01b03908116916340c10f1991166112a084600a6113b1565b6040518363ffffffff1660e01b81526004016112bd92919061154e565b600060405180830381600087803b1580156112d757600080fd5b505af11580156112eb573d6000803e3d6000fd5b50506001546040516340c10f1960e01b81526001600160a01b0390911692506340c10f199150611321908b90859060040161154e565b600060405180830381600087803b15801561133b57600080fd5b505af115801561134f573d6000803e3d6000fd5b505043600288018190556040517ff71a1cf713493adc37f71c7d6c1c55f4eda92143cf51154fa7c122364479dc26935061139292508b918b91899190879061151d565b60405180910390a1979650505050505050565b60006110e58284611821565b60006110e58284611801565b600080546001600160a01b038381166001600160a01b0319831681178455604051919092169283917f8be0079c531659141344cd1fd0a4f28419497f9722a3daafe3b4186f6b6457e09190a35050565b60006020828403121561141e578081fd5b81356110e581611888565b6000806040838503121561143b578081fd5b823561144681611888565b9150602083013561145681611888565b809150509250929050565b60008060408385031215611473578182fd5b823561147e81611888565b946020939093013593505050565b60006020828403121561149d578081fd5b5035919050565b6000602082840312156114b5578081fd5b5051919050565b600080604083850312156114ce578182fd5b82359150602083013561145681611888565b6001600160a01b0391909116815260200190565b6001600160a01b0394851681529290931660208301526040820152606081019190915260800190565b6001600160a01b03958616815293909416602084015260408301919091526060820152608081019190915260a00190565b6001600160a01b03929092168252602082015260400190565b6001600160a01b039390931683526020830191909152604082015260600190565b901515815260200190565b60208082526023908201527f4353544d696e7465723a205f6661726d696e6750726f787920697320657869736040820152623a399760e91b606082015260800190565b6020808252601c908201527f4353544d696e7465723a206f6e6c79206661726d696e6750726f787900000000604082015260600190565b60208082526024908201527f4353544d696e7465723a2070726f787920616e6420706f6f6c206e6f2065786960408201526339ba399760e11b606082015260800190565b60208082526026908201527f4f776e61626c653a206e6577206f776e657220697320746865207a65726f206160408201526564647265737360d01b606082015260800190565b6020808252601e908201527f4353544d696e7465723a206f6e6c792070726f787920636f6e74726163740000604082015260600190565b6020808252818101527f4f776e61626c653a2063616c6c6572206973206e6f7420746865206f776e6572604082015260600190565b60208082526017908201527f4353544d696e7465723a206e6f20302061646472657373000000000000000000604082015260600190565b60208082526029908201527f4353544d696e7465723a2064657620616464726573732063616e27742062652060408201526830206164647265737360b81b606082015260800190565b6020808252602f908201527f4353544d696e7465723a205f6661726d696e6750726f787920616e6420706f6f60408201526e1b08185b1c9958591e48195e1a5cdd608a1b606082015260800190565b90815260200190565b918252602082015260400190565b600082198211156117fc576117fc611872565b500190565b60008261181c57634e487b7160e01b81526012600452602481fd5b500490565b600081600019048311821515161561183b5761183b611872565b500290565b60008282101561185257611852611872565b500390565b600060001982141561186b5761186b611872565b5060010190565b634e487b7160e01b600052601160045260246000fd5b6001600160a01b0381168114610a0257600080fdfea26469706673582212206ef7ab244b8b920d205afcbb897afd19649e566d2449dbe319ab61e06f0d7c1c64736f6c63430008000033",
  "immutableReferences": {},
  "source": "// SPDX-License-Identifier: MIT\n\npragma solidity ^0.8.0;\n\nimport \"@openzeppelin/contracts/token/ERC20/IERC20.sol\";\nimport \"./interfaces/ICSTToken.sol\";\nimport \"./interfaces/ICSTFarmingProxy.sol\";\nimport \"@openzeppelin/contracts/utils/math/SafeMath.sol\";\nimport \"@openzeppelin/contracts/access/Ownable.sol\";\n\n/// @title Implement CST's distrubution plan.\ncontract CSTMinter is Ownable {\n    using SafeMath for uint256;\n\n    /// @notice Info of each pool of proxy.\n    struct PoolInfo {\n        address pool; // Address of farming contract.\n        uint256 allocPoint; // How many allocation points assigned to this proxy. CSTs to distribute per block.\n        uint256 lastRewardBlock; // Last block number that CSTs distribution occurs.\n    }\n    ICSTToken public cstToken;\n    /// @notice Dev address.\n    address public devaddr;\n    /// @notice CST tokens created per block.\n    uint256 public tokenPerBlock = 10_833_333_333_333_333_333; // 10.833333 cst/block\n    /// @notice Info of each pool of proxy.\n    mapping(address => mapping(address => PoolInfo)) public poolInfo;\n    /// @notice Save proxy address whether exists.\n    mapping(address => mapping(address => bool)) public proxyTokens;\n    /// @notice Save proxy's address in array.\n    address[] public proxyAddresses;\n    /// @notice Save pool's address in array.\n    mapping(address => address[]) public poolsAddress;\n    /// @notice Save proxy whether exists.\n    mapping(address => bool) public proxyExists;\n    /// @notice Total allocation poitns. Must be the sum of all allocation points in all proxys.\n    uint256 public totalAllocPoint = 0;\n    /// @notice The block number when CST mining starts.\n    uint256 public startBlock;\n    /// @notice Halving Period in blocks.\n    uint256 public halvingPeriod = 2_628_000;\n    /// @notice Halving coefficient.\n    uint256 public HALVING_COEFFICIENT = 1_189_207_115_002_721_024;\n\n    event UpdateProxyInfo(\n        address _farmingProxy,\n        address _pool,\n        uint256 _allocPoint,\n        uint256 _totalAllocPoint\n    );\n    event UpdateToken(address _tokenAddress);\n    event SetHalvingPeriod(uint256 _block);\n    event SetDevAddress(address _dev);\n    event MintCST(\n        address proxy,\n        address pool,\n        uint256 lastRewardBock,\n        uint256 blockNumber,\n        uint256 amount\n    );\n    event PhaseChanged(address pool, uint256 phase, uint256 totalSupply);\n\n    constructor(\n        address _devaddr,\n        uint256 _startBlock,\n        address ownerAddress\n    ) {\n        require(\n            _devaddr != address(0),\n            \"CSTMinter: dev address can't be 0 address\"\n        );\n        devaddr = _devaddr;\n        startBlock = _startBlock;\n        transferOwnership(ownerAddress);\n    }\n\n    function setToken(ICSTToken _token) public onlyOwner {\n        require(address(_token) != address(0), \"CSTMinter: no 0 address\");\n        cstToken = _token;\n        emit UpdateToken(address(_token));\n    }\n\n    function setHalvingPeriod(uint256 _block) public onlyOwner {\n        halvingPeriod = _block;\n        emit SetHalvingPeriod(_block);\n    }\n\n    /// @notice Owner should add proxy first, then proxy can add its pools.\n    /// @param _farmingProxy Proxy's address\n    function addProxy(address _farmingProxy) public onlyOwner {\n        require(_farmingProxy != address(0), \"CSTMinter: no 0 address\");\n        require(\n            !proxyExists[_farmingProxy],\n            \"CSTMinter: _farmingProxy is exists.\"\n        );\n        proxyAddresses.push(_farmingProxy);\n        proxyExists[_farmingProxy] = true;\n    }\n\n    /// @notice Add a new proxy. Can only be called by the owner.\n    /// @param _allocPoint Proxy's allocation's weight.\n    /// @param _poolAddress A pool of the proxy.\n    function add(uint256 _allocPoint, address _poolAddress) public {\n        require(proxyExists[msg.sender], \"CSTMinter: only proxy contract\");\n        require(_poolAddress != address(0), \"CSTMinter: no 0 address\");\n        require(\n            !proxyTokens[msg.sender][_poolAddress],\n            \"CSTMinter: _farmingProxy and pool already exist\"\n        );\n        proxyTokens[msg.sender][_poolAddress] = true;\n        uint256 lastRewardBlock =\n            block.number > startBlock ? block.number : startBlock;\n        totalAllocPoint = totalAllocPoint.add(_allocPoint);\n        PoolInfo memory pInfo = poolInfo[msg.sender][_poolAddress];\n        pInfo.pool = _poolAddress;\n        pInfo.allocPoint = _allocPoint;\n        pInfo.lastRewardBlock = lastRewardBlock;\n        poolInfo[msg.sender][_poolAddress] = pInfo;\n        poolsAddress[msg.sender].push(_poolAddress);\n        emit UpdateProxyInfo(\n            msg.sender,\n            _poolAddress,\n            _allocPoint,\n            totalAllocPoint\n        );\n    }\n\n    /// @notice Update the given proxy's CST allocation point. Can only be called by the owner.\n    /// @param _poolAddress A pool of the proxy.\n    /// @param _allocPoint Proxy's allocation's weight.\n    function set(address _poolAddress, uint256 _allocPoint) public {\n        require(proxyExists[msg.sender], \"CSTMinter: only proxy contract\");\n        require(_poolAddress != address(0), \"CSTMinter: no 0 address\");\n        totalAllocPoint = totalAllocPoint\n            .sub(poolInfo[msg.sender][_poolAddress].allocPoint)\n            .add(_allocPoint);\n        poolInfo[msg.sender][_poolAddress].allocPoint = _allocPoint;\n        emit UpdateProxyInfo(\n            msg.sender,\n            _poolAddress,\n            _allocPoint,\n            totalAllocPoint\n        );\n    }\n\n    function massUpdateProxyForOwner() public onlyOwner {\n        for (uint256 i; i < proxyAddresses.length; i++) {\n            ICSTFarmingProxy(proxyAddresses[i]).massUpdate();\n        }\n    }\n\n    function massUpdateProxy() public {\n        require(proxyExists[msg.sender], \"CSTMinter: only proxy contract\");\n        for (uint256 i; i < proxyAddresses.length; i++) {\n            ICSTFarmingProxy(proxyAddresses[i]).massUpdate();\n        }\n    }\n\n    function _phase(uint256 blockNumber) internal view returns (uint256) {\n        if (halvingPeriod == 0) {\n            return 0;\n        }\n        if (blockNumber > startBlock) {\n            return (blockNumber.sub(startBlock).sub(1)).div(halvingPeriod);\n        }\n        return 0;\n    }\n\n    /// @notice At what phase\n    function phase() public view returns (uint256) {\n        return _phase(block.number);\n    }\n\n    /// @notice Get proxy's amount of total reward\n    /// @param _proxyAddress the proxy's address.\n    /// @param _poolAddress A pool of the proxy.\n    /// @return return the amount of bst should be mint.\n    function getReward(address _proxyAddress, address _poolAddress)\n        public\n        view\n        returns (uint256)\n    {\n        PoolInfo storage pool = poolInfo[_proxyAddress][_poolAddress];\n        if (block.number <= pool.lastRewardBlock) {\n            return 0;\n        }\n        uint256 _lastRewardBlock = pool.lastRewardBlock;\n        uint256 blockReward = 0;\n        uint256 _lastPhase = _phase(_lastRewardBlock);\n        uint256 _currPhase = _phase(block.number);\n        uint256 _bstPerBlock = tokenPerBlock;\n        uint256 i = 1;\n        while (i <= _lastPhase) {\n            // calculate out lastPhase _bstPerBlock\n            _bstPerBlock = _bstPerBlock.mul(10**18).div(HALVING_COEFFICIENT);\n            i++;\n        }\n        // If it crosses the cycle\n        while (_lastPhase < _currPhase) {\n            _lastPhase++;\n            // Get the last block of the previous cycle\n            uint256 r = _lastPhase.mul(halvingPeriod).add(startBlock);\n            // Get rewards from previous periods\n            blockReward = blockReward.add(\n                r\n                    .sub(_lastRewardBlock)\n                    .mul(_bstPerBlock)\n                    .mul(pool.allocPoint)\n                    .div(totalAllocPoint)\n            );\n            _bstPerBlock = _bstPerBlock.mul(10**18).div(HALVING_COEFFICIENT);\n            _lastRewardBlock = r;\n        }\n        blockReward = blockReward.add(\n            (block.number.sub(_lastRewardBlock))\n                .mul(_bstPerBlock)\n                .mul(pool.allocPoint)\n                .div(totalAllocPoint)\n        );\n        return blockReward;\n    }\n\n    /// @notice mint bst according options\n    /// @param _pid proxy's address\n    /// @param _pool pool's address.\n    function mint_(address _pid, address _pool) internal returns (uint256) {\n        PoolInfo storage pInfo = poolInfo[_pid][_pool];\n        uint256 _lastRewardBlock = pInfo.lastRewardBlock;\n        if (block.number <= pInfo.lastRewardBlock) {\n            return 0;\n        }\n        uint256 _lastPhase = _phase(_lastRewardBlock);\n        uint256 _currPhase = _phase(block.number);\n        if (_currPhase > _lastPhase) {\n            emit PhaseChanged(_pool, _currPhase, cstToken.totalSupply());\n        }\n        uint256 tokenReward = getReward(_pid, _pool);\n        cstToken.mint(devaddr, tokenReward.div(10));\n        cstToken.mint(_pid, tokenReward);\n        pInfo.lastRewardBlock = block.number;\n        emit MintCST(_pid, _pool, _lastRewardBlock, block.number, tokenReward);\n        return tokenReward;\n    }\n\n    /// @dev Update pool's lastRewardBlock to block.number\n    /// @param pool Pool's address\n    function updateLastRewardBlock(address pool) public {\n        require(proxyTokens[msg.sender][pool], \"CSTMinter: only farmingProxy\");\n        PoolInfo storage pInfo = poolInfo[msg.sender][pool];\n        uint256 _lastRewardBlock = pInfo.lastRewardBlock;\n        uint256 _lastPhase = _phase(_lastRewardBlock);\n        uint256 _currPhase = _phase(block.number);\n        if (_currPhase > _lastPhase) {\n            emit PhaseChanged(pool, _currPhase, cstToken.totalSupply());\n        }\n        poolInfo[msg.sender][pool].lastRewardBlock = block.number;\n    }\n\n    /// @notice mint bst according options\n    /// @param pool pool's address.\n    function mint(address pool) external returns (uint256) {\n        require(proxyExists[msg.sender], \"CSTMinter: only proxy contract\");\n        require(\n            proxyTokens[msg.sender][pool],\n            \"CSTMinter: proxy and pool no exists.\"\n        );\n        return mint_(msg.sender, pool);\n    }\n\n    /// @notice Update dev address by the previous dev.\n    function dev(address _devaddr) public onlyOwner {\n        require(\n            _devaddr != address(0),\n            \"CSTMinter: dev address can't be 0 address\"\n        );\n        devaddr = _devaddr;\n        emit SetDevAddress(_devaddr);\n    }\n\n    function getTokenAddress() external view returns (address) {\n        return address(cstToken);\n    }\n\n    function getStartBlock() external view returns (uint256) {\n        return startBlock;\n    }\n\n    function getPoolInfo(address _proxy, address _pool)\n        external\n        view\n        returns (uint256 _allocPoint, uint256 _lastRewardBlock)\n    {\n        _allocPoint = poolInfo[_proxy][_pool].allocPoint;\n        _lastRewardBlock = poolInfo[_proxy][_pool].lastRewardBlock;\n    }\n}\n",
  "sourcePath": "/Users/admin/github.com/0xd5A1/cstable-contracts/contracts/CSTMinter.sol",
  "compiler": {
    "name": "solc",
    "version": "0.8.0+commit.c7dfd78e.Emscripten.clang"
  },
  "schemaVersion": "3.4.3",
  "updatedAt": "2022-03-10T00:55:27.462Z",
  "networkType": "ethereum",
  "devdoc": {
    "kind": "dev",
    "methods": {
      "add(uint256,address)": {
        "params": {
          "_allocPoint": "Proxy's allocation's weight.",
          "_poolAddress": "A pool of the proxy."
        }
      },
      "addProxy(address)": {
        "params": {
          "_farmingProxy": "Proxy's address"
        }
      },
      "getReward(address,address)": {
        "params": {
          "_poolAddress": "A pool of the proxy.",
          "_proxyAddress": "the proxy's address."
        },
        "returns": {
          "_0": "return the amount of bst should be mint."
        }
      },
      "mint(address)": {
        "params": {
          "pool": "pool's address."
        }
      },
      "owner()": {
        "details": "Returns the address of the current owner."
      },
      "renounceOwnership()": {
        "details": "Leaves the contract without owner. It will not be possible to call `onlyOwner` functions anymore. Can only be called by the current owner. NOTE: Renouncing ownership will leave the contract without an owner, thereby removing any functionality that is only available to the owner."
      },
      "set(address,uint256)": {
        "params": {
          "_allocPoint": "Proxy's allocation's weight.",
          "_poolAddress": "A pool of the proxy."
        }
      },
      "transferOwnership(address)": {
        "details": "Transfers ownership of the contract to a new account (`newOwner`). Can only be called by the current owner."
      },
      "updateLastRewardBlock(address)": {
        "details": "Update pool's lastRewardBlock to block.number",
        "params": {
          "pool": "Pool's address"
        }
      }
    },
    "title": "Implement CST's distrubution plan.",
    "version": 1
  },
  "userdoc": {
    "kind": "user",
    "methods": {
      "HALVING_COEFFICIENT()": {
        "notice": "Halving coefficient."
      },
      "add(uint256,address)": {
        "notice": "Add a new proxy. Can only be called by the owner."
      },
      "addProxy(address)": {
        "notice": "Owner should add proxy first, then proxy can add its pools."
      },
      "dev(address)": {
        "notice": "Update dev address by the previous dev."
      },
      "devaddr()": {
        "notice": "Dev address."
      },
      "getReward(address,address)": {
        "notice": "Get proxy's amount of total reward"
      },
      "halvingPeriod()": {
        "notice": "Halving Period in blocks."
      },
      "mint(address)": {
        "notice": "mint bst according options"
      },
      "phase()": {
        "notice": "At what phase"
      },
      "poolInfo(address,address)": {
        "notice": "Info of each pool of proxy."
      },
      "poolsAddress(address,uint256)": {
        "notice": "Save pool's address in array."
      },
      "proxyAddresses(uint256)": {
        "notice": "Save proxy's address in array."
      },
      "proxyExists(address)": {
        "notice": "Save proxy whether exists."
      },
      "proxyTokens(address,address)": {
        "notice": "Save proxy address whether exists."
      },
      "set(address,uint256)": {
        "notice": "Update the given proxy's CST allocation point. Can only be called by the owner."
      },
      "startBlock()": {
        "notice": "The block number when CST mining starts."
      },
      "tokenPerBlock()": {
        "notice": "CST tokens created per block."
      },
      "totalAllocPoint()": {
        "notice": "Total allocation poitns. Must be the sum of all allocation points in all proxys."
      }
    },
    "version": 1
  }
}