{
  "contractName": "LiquidityFarmingProxy",
  "abi": [
    {
      "inputs": [
        {
          "internalType": "address",
          "name": "ownerAddress",
          "type": "address"
        }
      ],
      "stateMutability": "nonpayable",
      "type": "constructor"
    },
    {
      "anonymous": false,
      "inputs": [
        {
          "indexed": false,
          "internalType": "address",
          "name": "_poolAddress",
          "type": "address"
        }
      ],
      "name": "AddPool",
      "type": "event"
    },
    {
      "anonymous": false,
      "inputs": [
        {
          "indexed": false,
          "internalType": "uint256",
          "name": "_pid",
          "type": "uint256"
        },
        {
          "indexed": false,
          "internalType": "uint256",
          "name": "_amount",
          "type": "uint256"
        },
        {
          "indexed": false,
          "internalType": "uint256",
          "name": "rewardDebt",
          "type": "uint256"
        },
        {
          "indexed": false,
          "internalType": "uint256",
          "name": "accTokenPerShare",
          "type": "uint256"
        },
        {
          "indexed": false,
          "internalType": "uint256",
          "name": "pending",
          "type": "uint256"
        }
      ],
      "name": "CalculatePending",
      "type": "event"
    },
    {
      "anonymous": false,
      "inputs": [
        {
          "indexed": true,
          "internalType": "address",
          "name": "user",
          "type": "address"
        },
        {
          "indexed": true,
          "internalType": "uint256",
          "name": "pid",
          "type": "uint256"
        },
        {
          "indexed": false,
          "internalType": "uint256",
          "name": "amount",
          "type": "uint256"
        }
      ],
      "name": "Deposit",
      "type": "event"
    },
    {
      "anonymous": false,
      "inputs": [
        {
          "indexed": true,
          "internalType": "address",
          "name": "user",
          "type": "address"
        },
        {
          "indexed": true,
          "internalType": "uint256",
          "name": "pid",
          "type": "uint256"
        },
        {
          "indexed": false,
          "internalType": "uint256",
          "name": "amount",
          "type": "uint256"
        }
      ],
      "name": "EmergencyWithdraw",
      "type": "event"
    },
    {
      "anonymous": false,
      "inputs": [
        {
          "indexed": true,
          "internalType": "address",
          "name": "previousOwner",
          "type": "address"
        },
        {
          "indexed": true,
          "internalType": "address",
          "name": "newOwner",
          "type": "address"
        }
      ],
      "name": "OwnershipTransferred",
      "type": "event"
    },
    {
      "anonymous": false,
      "inputs": [
        {
          "indexed": false,
          "internalType": "address",
          "name": "_minter",
          "type": "address"
        }
      ],
      "name": "SetMinter",
      "type": "event"
    },
    {
      "anonymous": false,
      "inputs": [
        {
          "indexed": false,
          "internalType": "uint256",
          "name": "_pid",
          "type": "uint256"
        }
      ],
      "name": "SetPool",
      "type": "event"
    },
    {
      "anonymous": false,
      "inputs": [
        {
          "indexed": false,
          "internalType": "address",
          "name": "_token",
          "type": "address"
        }
      ],
      "name": "SetToken",
      "type": "event"
    },
    {
      "anonymous": false,
      "inputs": [
        {
          "indexed": false,
          "internalType": "uint256",
          "name": "_pid",
          "type": "uint256"
        },
        {
          "indexed": false,
          "internalType": "uint256",
          "name": "accTokenPerShare",
          "type": "uint256"
        },
        {
          "indexed": false,
          "internalType": "uint256",
          "name": "_tokenReward",
          "type": "uint256"
        }
      ],
      "name": "UpdatePool",
      "type": "event"
    },
    {
      "anonymous": false,
      "inputs": [
        {
          "indexed": true,
          "internalType": "address",
          "name": "user",
          "type": "address"
        },
        {
          "indexed": true,
          "internalType": "uint256",
          "name": "pid",
          "type": "uint256"
        },
        {
          "indexed": false,
          "internalType": "uint256",
          "name": "amount",
          "type": "uint256"
        }
      ],
      "name": "Withdraw",
      "type": "event"
    },
    {
      "anonymous": false,
      "inputs": [
        {
          "indexed": false,
          "internalType": "uint256",
          "name": "_pid",
          "type": "uint256"
        },
        {
          "indexed": false,
          "internalType": "uint256",
          "name": "_lastRewardBlock",
          "type": "uint256"
        },
        {
          "indexed": false,
          "internalType": "uint256",
          "name": "blockNumber",
          "type": "uint256"
        }
      ],
      "name": "ZeroLPStaking",
      "type": "event"
    },
    {
      "inputs": [
        {
          "internalType": "address",
          "name": "",
          "type": "address"
        }
      ],
      "name": "lpTokens",
      "outputs": [
        {
          "internalType": "bool",
          "name": "",
          "type": "bool"
        }
      ],
      "stateMutability": "view",
      "type": "function"
    },
    {
      "inputs": [],
      "name": "minter",
      "outputs": [
        {
          "internalType": "contract ICSTMinter",
          "name": "",
          "type": "address"
        }
      ],
      "stateMutability": "view",
      "type": "function"
    },
    {
      "inputs": [],
      "name": "name",
      "outputs": [
        {
          "internalType": "string",
          "name": "",
          "type": "string"
        }
      ],
      "stateMutability": "view",
      "type": "function"
    },
    {
      "inputs": [],
      "name": "owner",
      "outputs": [
        {
          "internalType": "address",
          "name": "",
          "type": "address"
        }
      ],
      "stateMutability": "view",
      "type": "function"
    },
    {
      "inputs": [
        {
          "internalType": "uint256",
          "name": "",
          "type": "uint256"
        }
      ],
      "name": "poolInfo",
      "outputs": [
        {
          "internalType": "contract IERC20",
          "name": "lpToken",
          "type": "address"
        },
        {
          "internalType": "uint256",
          "name": "accTokenPerShare",
          "type": "uint256"
        }
      ],
      "stateMutability": "view",
      "type": "function"
    },
    {
      "inputs": [],
      "name": "renounceOwnership",
      "outputs": [],
      "stateMutability": "nonpayable",
      "type": "function"
    },
    {
      "inputs": [],
      "name": "symbol",
      "outputs": [
        {
          "internalType": "string",
          "name": "",
          "type": "string"
        }
      ],
      "stateMutability": "view",
      "type": "function"
    },
    {
      "inputs": [],
      "name": "token",
      "outputs": [
        {
          "internalType": "contract ICSTToken",
          "name": "",
          "type": "address"
        }
      ],
      "stateMutability": "view",
      "type": "function"
    },
    {
      "inputs": [
        {
          "internalType": "address",
          "name": "newOwner",
          "type": "address"
        }
      ],
      "name": "transferOwnership",
      "outputs": [],
      "stateMutability": "nonpayable",
      "type": "function"
    },
    {
      "inputs": [
        {
          "internalType": "uint256",
          "name": "",
          "type": "uint256"
        },
        {
          "internalType": "address",
          "name": "",
          "type": "address"
        }
      ],
      "name": "userInfo",
      "outputs": [
        {
          "internalType": "uint256",
          "name": "amount",
          "type": "uint256"
        },
        {
          "internalType": "uint256",
          "name": "rewardDebt",
          "type": "uint256"
        }
      ],
      "stateMutability": "view",
      "type": "function"
    },
    {
      "inputs": [
        {
          "internalType": "contract ICSTMinter",
          "name": "_minter",
          "type": "address"
        }
      ],
      "name": "setMinter",
      "outputs": [],
      "stateMutability": "nonpayable",
      "type": "function"
    },
    {
      "inputs": [],
      "name": "poolLength",
      "outputs": [
        {
          "internalType": "uint256",
          "name": "",
          "type": "uint256"
        }
      ],
      "stateMutability": "view",
      "type": "function"
    },
    {
      "inputs": [
        {
          "internalType": "contract IERC20",
          "name": "_lpToken",
          "type": "address"
        },
        {
          "internalType": "uint256",
          "name": "_allocPoint",
          "type": "uint256"
        },
        {
          "internalType": "bool",
          "name": "_withUpdate",
          "type": "bool"
        }
      ],
      "name": "add",
      "outputs": [],
      "stateMutability": "nonpayable",
      "type": "function"
    },
    {
      "inputs": [
        {
          "internalType": "uint256",
          "name": "_pid",
          "type": "uint256"
        },
        {
          "internalType": "uint256",
          "name": "_allocPoint",
          "type": "uint256"
        },
        {
          "internalType": "bool",
          "name": "_withUpdate",
          "type": "bool"
        }
      ],
      "name": "set",
      "outputs": [],
      "stateMutability": "nonpayable",
      "type": "function"
    },
    {
      "inputs": [
        {
          "internalType": "uint256",
          "name": "_pid",
          "type": "uint256"
        },
        {
          "internalType": "address",
          "name": "_user",
          "type": "address"
        }
      ],
      "name": "pendingReward",
      "outputs": [
        {
          "internalType": "uint256",
          "name": "",
          "type": "uint256"
        }
      ],
      "stateMutability": "view",
      "type": "function"
    },
    {
      "inputs": [],
      "name": "massUpdate",
      "outputs": [],
      "stateMutability": "nonpayable",
      "type": "function"
    },
    {
      "inputs": [
        {
          "internalType": "uint256",
          "name": "_pid",
          "type": "uint256"
        },
        {
          "internalType": "uint256",
          "name": "_amount",
          "type": "uint256"
        }
      ],
      "name": "deposit",
      "outputs": [],
      "stateMutability": "nonpayable",
      "type": "function"
    },
    {
      "inputs": [
        {
          "internalType": "uint256",
          "name": "_pid",
          "type": "uint256"
        },
        {
          "internalType": "uint256",
          "name": "_amount",
          "type": "uint256"
        }
      ],
      "name": "withdraw",
      "outputs": [],
      "stateMutability": "nonpayable",
      "type": "function"
    },
    {
      "inputs": [
        {
          "internalType": "uint256",
          "name": "_pid",
          "type": "uint256"
        }
      ],
      "name": "emergencyWithdraw",
      "outputs": [],
      "stateMutability": "nonpayable",
      "type": "function"
    },
    {
      "inputs": [
        {
          "internalType": "contract ICSTToken",
          "name": "_token",
          "type": "address"
        }
      ],
      "name": "setToken",
      "outputs": [],
      "stateMutability": "nonpayable",
      "type": "function"
    },
    {
      "inputs": [],
      "name": "getTokenAddress",
      "outputs": [
        {
          "internalType": "address",
          "name": "",
          "type": "address"
        }
      ],
      "stateMutability": "view",
      "type": "function"
    }
  ],
  "bytecode": "0x60c0604052601f60808190527f43537461626c65204c6971756964697479204661726d696e672050726f78790060a0908152620000409160019190620001da565b5060408051808201909152600780825266434c46502d563160c81b60209092019182526200007191600291620001da565b503480156200007f57600080fd5b506040516200224238038062002242833981016040819052620000a29162000280565b620000b6620000b0620000fa565b620000fe565b6001600160a01b038116620000e85760405162461bcd60e51b8152600401620000df90620002b0565b60405180910390fd5b620000f3816200014e565b506200038e565b3390565b600080546001600160a01b038381166001600160a01b0319831681178455604051919092169283917f8be0079c531659141344cd1fd0a4f28419497f9722a3daafe3b4186f6b6457e09190a35050565b62000158620000fa565b6001600160a01b03166200016b620001cb565b6001600160a01b031614620001945760405162461bcd60e51b8152600401620000df906200031c565b6001600160a01b038116620001bd5760405162461bcd60e51b8152600401620000df90620002d6565b620001c881620000fe565b50565b6000546001600160a01b031690565b828054620001e89062000351565b90600052602060002090601f0160209004810192826200020c576000855562000257565b82601f106200022757805160ff191683800117855562000257565b8280016001018555821562000257579182015b82811115620002575782518255916020019190600101906200023a565b506200026592915062000269565b5090565b5b808211156200026557600081556001016200026a565b60006020828403121562000292578081fd5b81516001600160a01b0381168114620002a9578182fd5b9392505050565b6020808252600c908201526b6e6f2030206164647265737360a01b604082015260600190565b60208082526026908201527f4f776e61626c653a206e6577206f776e657220697320746865207a65726f206160408201526564647265737360d01b606082015260800190565b6020808252818101527f4f776e61626c653a2063616c6c6572206973206e6f7420746865206f776e6572604082015260600190565b6002810460018216806200036657607f821691505b602082108114156200038857634e487b7160e01b600052602260045260246000fd5b50919050565b611ea4806200039e6000396000f3fe608060405234801561001057600080fd5b50600436106101375760003560e01c8063715018a6116100b857806398969e821161007c57806398969e821461024f578063b17b658d14610262578063e2bbb15814610282578063f2fde38b14610295578063fc0c546a146102a8578063fca3b5aa146102b057610137565b8063715018a61461020e5780638da5cb5b146102165780639254803a1461021e57806393f1a40b1461022657806395d89b411461024757610137565b8063144fa6d7116100ff578063144fa6d7146101a15780631526fe27146101b4578063441a3e70146101d55780635312ea8e146101e857806364482f79146101fb57610137565b806306fdde031461013c578063075461721461015a578063081e3eda1461016f5780630dec23121461018457806310fe9ae814610199575b600080fd5b6101446102c3565b6040516101519190611a47565b60405180910390f35b610162610351565b60405161015191906119d1565b610177610360565b6040516101519190611cde565b6101976101923660046118a4565b610366565b005b6101626105cf565b6101976101af36600461186c565b6105de565b6101c76101c23660046118e5565b610699565b604051610151929190611a23565b6101976101e3366004611944565b6106d1565b6101976101f63660046118e5565b610891565b610197610209366004611988565b61096d565b610197610b12565b610162610b5d565b610197610b6c565b610239610234366004611915565b610b9e565b604051610151929190611cfe565b610144610bc2565b61017761025d366004611915565b610bcf565b61027561027036600461186c565b610e38565b6040516101519190611a3c565b610197610290366004611944565b610e4d565b6101976102a336600461186c565b610fd5565b610162611046565b6101976102be36600461186c565b611055565b600180546102d090611ddf565b80601f01602080910402602001604051908101604052809291908181526020018280546102fc90611ddf565b80156103495780601f1061031e57610100808354040283529160200191610349565b820191906000526020600020905b81548152906001019060200180831161032c57829003601f168201915b505050505081565b6007546001600160a01b031681565b60045490565b61036e611105565b6001600160a01b031661037f610b5d565b6001600160a01b0316146103ae5760405162461bcd60e51b81526004016103a590611c09565b60405180910390fd5b6001600160a01b0383166103d45760405162461bcd60e51b81526004016103a590611af8565b6001600160a01b03831660009081526005602052604090205460ff161561040d5760405162461bcd60e51b81526004016103a590611c3e565b6001600160a01b0383166000908152600560205260409020805460ff19166001179055801561049f57600760009054906101000a90046001600160a01b03166001600160a01b0316635f386b906040518163ffffffff1660e01b8152600401600060405180830381600087803b15801561048657600080fd5b505af115801561049a573d6000803e3d6000fd5b505050505b600754604051630571777d60e31b81526001600160a01b0390911690632b8bbbe8906104d19085908790600401611ce7565b600060405180830381600087803b1580156104eb57600080fd5b505af11580156104ff573d6000803e3d6000fd5b50506040805180820182526001600160a01b03878116825260006020830181815260048054600181018255925292517f8a35acfbc15ff81a39ae7d344fd709f28e8600b4aa8c65c6b64bfe7fe36bd19b600290920291820180546001600160a01b031916919093161790915590517f8a35acfbc15ff81a39ae7d344fd709f28e8600b4aa8c65c6b64bfe7fe36bd19c90910155517f8c82d670bc9247c2cfb6964089bc9cff0255f9caade6fbc74a13368083e5546692506105c2915085906119d1565b60405180910390a1505050565b6003546001600160a01b031690565b6105e6611105565b6001600160a01b03166105f7610b5d565b6001600160a01b03161461061d5760405162461bcd60e51b81526004016103a590611c09565b6001600160a01b0381166106435760405162461bcd60e51b81526004016103a590611bc6565b600380546001600160a01b0319166001600160a01b0383161790556040517fefc1fd16ea80a922086ee4e995739d59b025c1bcea6d1f67855747480c83214b9061068e9083906119d1565b60405180910390a150565b600481815481106106a957600080fd5b6000918252602090912060029091020180546001909101546001600160a01b03909116915082565b60045482106106f25760405162461bcd60e51b81526004016103a590611ab1565b60006004838154811061071557634e487b7160e01b600052603260045260246000fd5b60009182526020808320868452600682526040808520338652909252922080546002909202909201925083111561075e5760405162461bcd60e51b81526004016103a590611c6e565b61076784611109565b60006107a1826001015461079b64e8d4a510006107958760010154876000015461141790919063ffffffff16565b9061142a565b90611436565b90507fa090a78bd52431eff8976d43dbaf5ca89cc10077de4ff104d3669cccb2dfc6b685836000015484600101548660010154856040516107e6959493929190611d22565b60405180910390a180156107fe576107fe3382611442565b815461080a9085611436565b80835560018401546108279164e8d4a51000916107959190611417565b60018301558315610848578254610848906001600160a01b03163386611608565b84336001600160a01b03167ff279e6a1f5e320cca91135676d9cb6e44ca8a08c0b88342bcdb1144f6511b568866040516108829190611cde565b60405180910390a35050505050565b60045481106108b25760405162461bcd60e51b81526004016103a590611ab1565b6000600482815481106108d557634e487b7160e01b600052603260045260246000fd5b600091825260208083208584526006825260408085203380875293528420805485825560018201959095556002909302018054909450919291610925916001600160a01b03919091169083611608565b83336001600160a01b03167fbb757047c2b5f3974fe26b7c10f732e7bce710b0952a71082702781e62ae05958360405161095f9190611cde565b60405180910390a350505050565b610975611105565b6001600160a01b0316610986610b5d565b6001600160a01b0316146109ac5760405162461bcd60e51b81526004016103a590611c09565b60045483106109cd5760405162461bcd60e51b81526004016103a590611b64565b8015610a3c57600760009054906101000a90046001600160a01b03166001600160a01b0316635f386b906040518163ffffffff1660e01b8152600401600060405180830381600087803b158015610a2357600080fd5b505af1158015610a37573d6000803e3d6000fd5b505050505b600754600480546001600160a01b0390921691633825d828919086908110610a7457634e487b7160e01b600052603260045260246000fd5b60009182526020909120600290910201546040516001600160e01b031960e084901b168152610ab1916001600160a01b0316908690600401611a23565b600060405180830381600087803b158015610acb57600080fd5b505af1158015610adf573d6000803e3d6000fd5b505050507f30932cbd98f47dcd146d81a1e02f9c7117856d02ae0d4e3262315fe89f88adc2836040516105c29190611cde565b610b1a611105565b6001600160a01b0316610b2b610b5d565b6001600160a01b031614610b515760405162461bcd60e51b81526004016103a590611c09565b610b5b60006116f5565b565b6000546001600160a01b031690565b6007546001600160a01b03163314610b965760405162461bcd60e51b81526004016103a590611b8f565b610b5b611745565b60066020908152600092835260408084209091529082529020805460019091015482565b600280546102d090611ddf565b60008060048481548110610bf357634e487b7160e01b600052603260045260246000fd5b600091825260208083208784526006825260408085206001600160a01b03808a16875293528085206001600290950290920193840154845491516370a0823160e01b815294965091949193919216906370a0823190610c569030906004016119d1565b60206040518083038186803b158015610c6e57600080fd5b505afa158015610c82573d6000803e3d6000fd5b505050506040513d601f19601f82011682018060405250810190610ca691906118fd565b600754855460405163121b947d60e21b81529293506000926001600160a01b039283169263486e51f492610ce2923092909116906004016119e5565b604080518083038186803b158015610cf957600080fd5b505afa158015610d0d573d6000803e3d6000fd5b505050506040513d601f19601f82011682018060405250810190610d319190611965565b9150508043118015610d4257508115155b15610e04576007548554604051636b09169560e01b81526000926001600160a01b0390811692636b09169592610d7e92309216906004016119e5565b60206040518083038186803b158015610d9657600080fd5b505afa158015610daa573d6000803e3d6000fd5b505050506040513d601f19601f82011682018060405250810190610dce91906118fd565b905060008115610df057610deb846107958464e8d4a51000611417565b610df3565b60005b9050610dff8582611770565b945050505b610e2c846001015461079b64e8d4a5100061079587896000015461141790919063ffffffff16565b98975050505050505050565b60056020526000908152604090205460ff1681565b6004548210610e6e5760405162461bcd60e51b81526004016103a590611ab1565b600060048381548110610e9157634e487b7160e01b600052603260045260246000fd5b60009182526020808320868452600682526040808520338652909252922060029091029091019150610ec284611109565b805415610f50576000610ef7826001015461079b64e8d4a510006107958760010154876000015461141790919063ffffffff16565b90507fa090a78bd52431eff8976d43dbaf5ca89cc10077de4ff104d3669cccb2dfc6b68583600001548460010154866001015485604051610f3c959493929190611d22565b60405180910390a1610f4e3382611442565b505b8054610f5c9084611770565b8082556001830154610f799164e8d4a51000916107959190611417565b60018201558215610f9b578154610f9b906001600160a01b031633308661177c565b83336001600160a01b03167f90890809c654f11d6e72a28fa60149770a0d11ec6c92319d6ceb2bb0a4ea1a158560405161095f9190611cde565b610fdd611105565b6001600160a01b0316610fee610b5d565b6001600160a01b0316146110145760405162461bcd60e51b81526004016103a590611c09565b6001600160a01b03811661103a5760405162461bcd60e51b81526004016103a590611b1e565b611043816116f5565b50565b6003546001600160a01b031681565b61105d611105565b6001600160a01b031661106e610b5d565b6001600160a01b0316146110945760405162461bcd60e51b81526004016103a590611c09565b6001600160a01b0381166110ba5760405162461bcd60e51b81526004016103a590611af8565b600780546001600160a01b0319166001600160a01b0383161790556040517fcec52196e972044edde8689a1b608e459c5946b7f3e5c8cd3d6d8e126d422e1c9061068e9083906119d1565b3390565b600454811061112a5760405162461bcd60e51b81526004016103a590611ab1565b60006004828154811061114d57634e487b7160e01b600052603260045260246000fd5b600091825260208220600754600290920201805460405163121b947d60e21b81529194506001600160a01b039283169263486e51f49261119392309216906004016119e5565b604080518083038186803b1580156111aa57600080fd5b505afa1580156111be573d6000803e3d6000fd5b505050506040513d601f19601f820116820180604052508101906111e29190611965565b9150508043116111f3575050611043565b81546040516370a0823160e01b81526000916001600160a01b0316906370a08231906112239030906004016119d1565b60206040518083038186803b15801561123b57600080fd5b505afa15801561124f573d6000803e3d6000fd5b505050506040513d601f19601f8201168201806040525081019061127391906118fd565b9050806113225760075483546040516363238b2160e01b81526001600160a01b03928316926363238b21926112ad929116906004016119d1565b600060405180830381600087803b1580156112c757600080fd5b505af11580156112db573d6000803e3d6000fd5b505050507fa999845d95de9d56580065fc2fea22f287787fabaaa900fb9d10a97e5884aaab84834360405161131293929190611d0c565b60405180910390a1505050611043565b60075483546040516335313c2160e11b81526000926001600160a01b0390811692636a6278429261135992909116906004016119d1565b602060405180830381600087803b15801561137357600080fd5b505af1158015611387573d6000803e3d6000fd5b505050506040513d601f19601f820116820180604052508101906113ab91906118fd565b90506113ce6113c3836107958464e8d4a51000611417565b600186015490611770565b600185018190556040517ff5d2d72d9b25d6853afd7d0554a113b705234b6a68bb36b7f14366299463241191611408918891908590611d0c565b60405180910390a15050505050565b60006114238284611d7d565b9392505050565b60006114238284611d5d565b60006114238284611d9c565b6001600160a01b0382166114685760405162461bcd60e51b81526004016103a590611bc6565b6003546040516370a0823160e01b81526000916001600160a01b0316906370a08231906114999030906004016119d1565b60206040518083038186803b1580156114b157600080fd5b505afa1580156114c5573d6000803e3d6000fd5b505050506040513d601f19601f820116820180604052508101906114e991906118fd565b90508082111561157d5760035460405163a9059cbb60e01b81526001600160a01b039091169063a9059cbb906115259086908590600401611a23565b602060405180830381600087803b15801561153f57600080fd5b505af1158015611553573d6000803e3d6000fd5b505050506040513d601f19601f820116820180604052508101906115779190611888565b50611603565b60035460405163a9059cbb60e01b81526001600160a01b039091169063a9059cbb906115af9086908690600401611a23565b602060405180830381600087803b1580156115c957600080fd5b505af11580156115dd573d6000803e3d6000fd5b505050506040513d601f19601f820116820180604052508101906116019190611888565b505b505050565b600080846001600160a01b031663a9059cbb858560405160240161162d929190611a23565b6040516020818303038152906040529060e01b6020820180516001600160e01b03838183161783525050505060405161166691906119b5565b6000604051808303816000865af19150503d80600081146116a3576040519150601f19603f3d011682016040523d82523d6000602084013e6116a8565b606091505b50915091508180156116d25750805115806116d25750808060200190518101906116d29190611888565b6116ee5760405162461bcd60e51b81526004016103a590611a7a565b5050505050565b600080546001600160a01b038381166001600160a01b0319831681178455604051919092169283917f8be0079c531659141344cd1fd0a4f28419497f9722a3daafe3b4186f6b6457e09190a35050565b60045460005b8181101561176c5761175c81611109565b61176581611e1a565b905061174b565b5050565b60006114238284611d45565b600080856001600160a01b03166323b872dd8686866040516024016117a3939291906119ff565b6040516020818303038152906040529060e01b6020820180516001600160e01b0383818316178352505050506040516117dc91906119b5565b6000604051808303816000865af19150503d8060008114611819576040519150601f19603f3d011682016040523d82523d6000602084013e61181e565b606091505b50915091508180156118485750805115806118485750808060200190518101906118489190611888565b6118645760405162461bcd60e51b81526004016103a590611c9a565b505050505050565b60006020828403121561187d578081fd5b813561142381611e4b565b600060208284031215611899578081fd5b815161142381611e60565b6000806000606084860312156118b8578182fd5b83356118c381611e4b565b92506020840135915060408401356118da81611e60565b809150509250925092565b6000602082840312156118f6578081fd5b5035919050565b60006020828403121561190e578081fd5b5051919050565b60008060408385031215611927578182fd5b82359150602083013561193981611e4b565b809150509250929050565b60008060408385031215611956578182fd5b50508035926020909101359150565b60008060408385031215611977578182fd5b505080516020909101519092909150565b60008060006060848603121561199c578283fd5b833592506020840135915060408401356118da81611e60565b600082516119c7818460208701611db3565b9190910192915050565b6001600160a01b0391909116815260200190565b6001600160a01b0392831681529116602082015260400190565b6001600160a01b039384168152919092166020820152604081019190915260600190565b6001600160a01b03929092168252602082015260400190565b901515815260200190565b6000602082528251806020840152611a66816040850160208701611db3565b601f01601f19169190910160400192915050565b6020808252601f908201527f5472616e7366657248656c7065723a205452414e534645525f4641494c454400604082015260600190565b60208082526027908201527f4c697175646974794661726d696e6750726f78793a20706964206f7574206f66604082015266103930b733b29760c91b606082015260800190565b6020808252600c908201526b6e6f2030206164647265737360a01b604082015260600190565b60208082526026908201527f4f776e61626c653a206e6577206f776e657220697320746865207a65726f206160408201526564647265737360d01b606082015260800190565b6020808252601190820152703834b21037baba1037b3103930b733b29760791b604082015260600190565b60208082526018908201527f63616c6c6572206973206e6f7420746865206d696e7465720000000000000000604082015260600190565b60208082526023908201527f4c69717569646974794661726d696e6750726f78793a206e6f2030206164647260408201526265737360e81b606082015260800190565b6020808252818101527f4f776e61626c653a2063616c6c6572206973206e6f7420746865206f776e6572604082015260600190565b60208082526016908201527517db1c151bdad95b88185b1c9958591e48195e1a5cdd60521b604082015260600190565b6020808252601290820152711dda5d1a191c985dce881b9bdd0819dbdbd960721b604082015260600190565b60208082526024908201527f5472616e7366657248656c7065723a205452414e534645525f46524f4d5f46416040820152631253115160e21b606082015260800190565b90815260200190565b9182526001600160a01b0316602082015260400190565b918252602082015260400190565b9283526020830191909152604082015260600190565b948552602085019390935260408401919091526060830152608082015260a00190565b60008219821115611d5857611d58611e35565b500190565b600082611d7857634e487b7160e01b81526012600452602481fd5b500490565b6000816000190483118215151615611d9757611d97611e35565b500290565b600082821015611dae57611dae611e35565b500390565b60005b83811015611dce578181015183820152602001611db6565b838111156116015750506000910152565b600281046001821680611df357607f821691505b60208210811415611e1457634e487b7160e01b600052602260045260246000fd5b50919050565b6000600019821415611e2e57611e2e611e35565b5060010190565b634e487b7160e01b600052601160045260246000fd5b6001600160a01b038116811461104357600080fd5b801515811461104357600080fdfea264697066735822122002ef82b2086aab9aa5208c69aaf8f20d748d77d8aec0074f0675a0fc9039266164736f6c63430008000033",
  "immutableReferences": {},
  "source": "// SPDX-License-Identifier: MIT\n\npragma solidity ^0.8.0;\n\nimport \"@openzeppelin/contracts/token/ERC20/IERC20.sol\";\nimport \"./interfaces/ICStablePool.sol\";\nimport \"./interfaces/ICSTMinter.sol\";\nimport \"./interfaces/ICSTToken.sol\";\nimport \"./interfaces/ICSTFarmingProxy.sol\";\nimport \"@openzeppelin/contracts/utils/math/SafeMath.sol\";\nimport \"@openzeppelin/contracts/access/Ownable.sol\";\nimport \"./lib/TransferHelper.sol\";\n\n/// @title Implement liquitidy farming.\ncontract LiquidityFarmingProxy is Ownable, ICSTFarmingProxy {\n    using SafeMath for uint256;\n    struct UserInfo {\n        uint256 amount; // How many LP tokens the user has provided.\n        uint256 rewardDebt; // Reward debt. See explanation below.\n    }\n    /// @notice Info of each pool.\n    struct PoolInfo {\n        IERC20 lpToken; // Address of LP token contract.\n        uint256 accTokenPerShare; // Accumulated BSTs per share, times 1e12. See below.\n    }\n    string public name = \"CStable Liquidity Farming Proxy\";\n    string public symbol = \"CLFP-V1\";\n    ICSTToken public token;\n    /// @notice Info of each pool.\n    PoolInfo[] public poolInfo;\n    /// @notice Save lp tokens whether exists.\n    mapping(address => bool) public lpTokens;\n    /// @notice Info of each user that stakes LP tokens.\n    mapping(uint256 => mapping(address => UserInfo)) public userInfo;\n    /// @notice For mint CST\n    ICSTMinter public minter;\n\n    modifier onlyMinter() {\n        require(address(minter) == msg.sender, \"caller is not the minter\");\n        _;\n    }\n    event Deposit(address indexed user, uint256 indexed pid, uint256 amount);\n    event Withdraw(address indexed user, uint256 indexed pid, uint256 amount);\n    event EmergencyWithdraw(\n        address indexed user,\n        uint256 indexed pid,\n        uint256 amount\n    );\n    event SetMinter(address _minter);\n    event AddPool(address _poolAddress);\n    event SetPool(uint256 _pid);\n    event UpdatePool(\n        uint256 _pid,\n        uint256 accTokenPerShare,\n        uint256 _tokenReward\n    );\n    event CalculatePending(\n        uint256 _pid,\n        uint256 _amount,\n        uint256 rewardDebt,\n        uint256 accTokenPerShare,\n        uint256 pending\n    );\n    event SetToken(address _token);\n    event ZeroLPStaking(\n        uint256 _pid,\n        uint256 _lastRewardBlock,\n        uint256 blockNumber\n    );\n\n    constructor(address ownerAddress) public {\n        require(ownerAddress != address(0), \"no 0 address\");\n        transferOwnership(ownerAddress);\n    }\n\n    function setMinter(ICSTMinter _minter) public onlyOwner {\n        require(address(_minter) != address(0), \"no 0 address\");\n        minter = _minter;\n        emit SetMinter(address(_minter));\n    }\n\n    function poolLength() external view returns (uint256) {\n        return poolInfo.length;\n    }\n\n    /// @notice Add a new lp to the pool. Can only be called by the owner.\n    function add(\n        IERC20 _lpToken,\n        uint256 _allocPoint,\n        bool _withUpdate\n    ) external onlyOwner {\n        require(address(_lpToken) != address(0), \"no 0 address\");\n        require(!lpTokens[address(_lpToken)], \"_lpToken already exist\");\n        lpTokens[address(_lpToken)] = true;\n        if (_withUpdate) {\n            minter.massUpdateProxy();\n        }\n        minter.add(_allocPoint, address(_lpToken));\n        poolInfo.push(PoolInfo({lpToken: _lpToken, accTokenPerShare: 0}));\n        emit AddPool(address(_lpToken));\n    }\n\n    /// @notice Update the given pool's BST allocation point. Can only be called by the owner.\n    function set(\n        uint256 _pid,\n        uint256 _allocPoint,\n        bool _withUpdate\n    ) external onlyOwner {\n        require(_pid < poolInfo.length, \"pid out of range.\");\n        if (_withUpdate) {\n            minter.massUpdateProxy();\n        }\n        minter.set(address(poolInfo[_pid].lpToken), _allocPoint);\n        emit SetPool(_pid);\n    }\n\n    /// @notice View function to see pending BSTs on frontend.\n    function pendingReward(uint256 _pid, address _user)\n        external\n        view\n        returns (uint256)\n    {\n        PoolInfo storage pool = poolInfo[_pid];\n        UserInfo storage user = userInfo[_pid][_user];\n        uint256 accTokenPerShare = pool.accTokenPerShare;\n        uint256 lpSupply = pool.lpToken.balanceOf(address(this));\n        (, uint256 _lastRewardBlock) = minter.getPoolInfo(\n            address(this),\n            address(pool.lpToken)\n        );\n        if (block.number > _lastRewardBlock && lpSupply != 0) {\n            uint256 tokenReward = minter.getReward(\n                address(this),\n                address(pool.lpToken)\n            );\n            uint256 nAccTokenPerShare = tokenReward == 0\n                ? 0\n                : tokenReward.mul(1e12).div(lpSupply);\n            accTokenPerShare = accTokenPerShare.add(nAccTokenPerShare);\n        }\n        return user.amount.mul(accTokenPerShare).div(1e12).sub(user.rewardDebt);\n    }\n\n    /// @dev Mass update pools. Only caller is minter's massUpdateProxy.\n    function massUpdate() public override onlyMinter {\n        _massUpdatePools();\n    }\n\n    /// @notice Update reward vairables for all pools. Be careful of gas spending!\n    function _massUpdatePools() internal {\n        uint256 length = poolInfo.length;\n        for (uint256 pid = 0; pid < length; ++pid) {\n            _updatePool(pid);\n        }\n    }\n\n    /// @notice Update reward variables of the given pool to be up-to-date.\n    /// @param _pid pool's index.\n    function _updatePool(uint256 _pid) internal {\n        require(\n            _pid < poolInfo.length,\n            \"LiqudityFarmingProxy: pid out of range.\"\n        );\n        PoolInfo storage pool = poolInfo[_pid];\n        (, uint256 _lastRewardBlock) = minter.getPoolInfo(\n            address(this),\n            address(pool.lpToken)\n        );\n        if (block.number <= _lastRewardBlock) {\n            return;\n        }\n        uint256 lpSupply = pool.lpToken.balanceOf(address(this));\n        if (lpSupply == 0) {\n            minter.updateLastRewardBlock(address(pool.lpToken));\n            emit ZeroLPStaking(_pid, _lastRewardBlock, block.number);\n            return;\n        }\n        uint256 tokenReward = minter.mint(address(pool.lpToken));\n        pool.accTokenPerShare = pool.accTokenPerShare.add(\n            tokenReward.mul(1e12).div(lpSupply)\n        );\n        emit UpdatePool(_pid, pool.accTokenPerShare, tokenReward);\n    }\n\n    /// @notice Deposit LP tokens to BStableProxyV2 for BST allocation.\n    function deposit(uint256 _pid, uint256 _amount) public {\n        require(\n            _pid < poolInfo.length,\n            \"LiqudityFarmingProxy: pid out of range.\"\n        );\n        PoolInfo storage pool = poolInfo[_pid];\n        UserInfo storage user = userInfo[_pid][msg.sender];\n        _updatePool(_pid);\n        if (user.amount > 0) {\n            uint256 pending = user\n                .amount\n                .mul(pool.accTokenPerShare)\n                .div(1e12)\n                .sub(user.rewardDebt);\n            emit CalculatePending(\n                _pid,\n                user.amount,\n                user.rewardDebt,\n                pool.accTokenPerShare,\n                pending\n            );\n            safeTokenTransfer(msg.sender, pending);\n        }\n        user.amount = user.amount.add(_amount);\n        user.rewardDebt = user.amount.mul(pool.accTokenPerShare).div(1e12);\n        if (_amount > 0) {\n            TransferHelper.safeTransferFrom(\n                address(pool.lpToken),\n                address(msg.sender),\n                address(this),\n                _amount\n            );\n        }\n        emit Deposit(msg.sender, _pid, _amount);\n    }\n\n    /// @notice Withdraw LP tokens .\n    function withdraw(uint256 _pid, uint256 _amount) public {\n        require(\n            _pid < poolInfo.length,\n            \"LiqudityFarmingProxy: pid out of range.\"\n        );\n        PoolInfo storage pool = poolInfo[_pid];\n        UserInfo storage user = userInfo[_pid][msg.sender];\n        require(user.amount >= _amount, \"withdraw: not good\");\n        _updatePool(_pid);\n        uint256 pending = user.amount.mul(pool.accTokenPerShare).div(1e12).sub(\n            user.rewardDebt\n        );\n        emit CalculatePending(\n            _pid,\n            user.amount,\n            user.rewardDebt,\n            pool.accTokenPerShare,\n            pending\n        );\n        if (pending > 0) {\n            safeTokenTransfer(msg.sender, pending);\n        }\n        user.amount = user.amount.sub(_amount);\n        user.rewardDebt = user.amount.mul(pool.accTokenPerShare).div(1e12);\n        if (_amount > 0) {\n            TransferHelper.safeTransfer(\n                address(pool.lpToken),\n                address(msg.sender),\n                _amount\n            );\n        }\n        emit Withdraw(msg.sender, _pid, _amount);\n    }\n\n    /// @notice Withdraw without caring about rewards. EMERGENCY ONLY.\n    function emergencyWithdraw(uint256 _pid) public {\n        require(\n            _pid < poolInfo.length,\n            \"LiqudityFarmingProxy: pid out of range.\"\n        );\n        PoolInfo storage pool = poolInfo[_pid];\n        UserInfo storage user = userInfo[_pid][msg.sender];\n        uint256 amount_ = user.amount;\n        user.amount = 0;\n        user.rewardDebt = 0;\n        TransferHelper.safeTransfer(\n            address(pool.lpToken),\n            address(msg.sender),\n            amount_\n        );\n        emit EmergencyWithdraw(msg.sender, _pid, amount_);\n    }\n\n    /// @notice Safe token transfer function, just in case if rounding error causes pool to not have enough BSTs.\n    function safeTokenTransfer(address _to, uint256 _amount) internal {\n        require(_to != address(0), \"LiquidityFarmingProxy: no 0 address\");\n        uint256 tokenBal = token.balanceOf(address(this));\n        if (_amount > tokenBal) {\n            token.transfer(_to, tokenBal);\n        } else {\n            token.transfer(_to, _amount);\n        }\n    }\n\n    function setToken(ICSTToken _token) external onlyOwner {\n        require(\n            address(_token) != address(0),\n            \"LiquidityFarmingProxy: no 0 address\"\n        );\n        token = _token;\n        emit SetToken(address(_token));\n    }\n\n    function getTokenAddress() external view returns (address) {\n        return address(token);\n    }\n}\n",
  "sourcePath": "/Users/zhangleping/github.com/0x5dA1/cstable-contracts/contracts/LiquidityFarmingProxy.sol",
  "compiler": {
    "name": "solc",
    "version": "0.8.0+commit.c7dfd78e.Emscripten.clang"
  },
  "schemaVersion": "3.4.1",
  "updatedAt": "2021-10-14T08:22:59.682Z",
  "devdoc": {
    "kind": "dev",
    "methods": {
      "massUpdate()": {
        "details": "Mass update pools. Only caller is minter's massUpdateProxy."
      },
      "owner()": {
        "details": "Returns the address of the current owner."
      },
      "renounceOwnership()": {
        "details": "Leaves the contract without owner. It will not be possible to call `onlyOwner` functions anymore. Can only be called by the current owner. NOTE: Renouncing ownership will leave the contract without an owner, thereby removing any functionality that is only available to the owner."
      },
      "transferOwnership(address)": {
        "details": "Transfers ownership of the contract to a new account (`newOwner`). Can only be called by the current owner."
      }
    },
    "title": "Implement liquitidy farming.",
    "version": 1
  },
  "userdoc": {
    "kind": "user",
    "methods": {
      "add(address,uint256,bool)": {
        "notice": "Add a new lp to the pool. Can only be called by the owner."
      },
      "deposit(uint256,uint256)": {
        "notice": "Deposit LP tokens to BStableProxyV2 for BST allocation."
      },
      "emergencyWithdraw(uint256)": {
        "notice": "Withdraw without caring about rewards. EMERGENCY ONLY."
      },
      "lpTokens(address)": {
        "notice": "Save lp tokens whether exists."
      },
      "minter()": {
        "notice": "For mint CST"
      },
      "pendingReward(uint256,address)": {
        "notice": "View function to see pending BSTs on frontend."
      },
      "poolInfo(uint256)": {
        "notice": "Info of each pool."
      },
      "set(uint256,uint256,bool)": {
        "notice": "Update the given pool's BST allocation point. Can only be called by the owner."
      },
      "userInfo(uint256,address)": {
        "notice": "Info of each user that stakes LP tokens."
      },
      "withdraw(uint256,uint256)": {
        "notice": "Withdraw LP tokens ."
      }
    },
    "version": 1
  }
}