{
  "contractName": "PaymentFarmingProxy",
  "abi": [
    {
      "inputs": [
        {
          "internalType": "string",
          "name": "_name",
          "type": "string"
        },
        {
          "internalType": "string",
          "name": "_symbol",
          "type": "string"
        },
        {
          "internalType": "address",
          "name": "_owner",
          "type": "address"
        },
        {
          "internalType": "address",
          "name": "_dev",
          "type": "address"
        }
      ],
      "stateMutability": "nonpayable",
      "type": "constructor"
    },
    {
      "anonymous": false,
      "inputs": [
        {
          "indexed": false,
          "internalType": "address",
          "name": "_coin",
          "type": "address"
        },
        {
          "indexed": false,
          "internalType": "uint32",
          "name": "index",
          "type": "uint32"
        }
      ],
      "name": "AddCoins",
      "type": "event"
    },
    {
      "anonymous": false,
      "inputs": [
        {
          "indexed": true,
          "internalType": "address",
          "name": "owner",
          "type": "address"
        },
        {
          "indexed": true,
          "internalType": "address",
          "name": "spender",
          "type": "address"
        },
        {
          "indexed": false,
          "internalType": "uint256",
          "name": "value",
          "type": "uint256"
        }
      ],
      "name": "Approval",
      "type": "event"
    },
    {
      "anonymous": false,
      "inputs": [
        {
          "indexed": true,
          "internalType": "address",
          "name": "previousOwner",
          "type": "address"
        },
        {
          "indexed": true,
          "internalType": "address",
          "name": "newOwner",
          "type": "address"
        }
      ],
      "name": "OwnershipTransferred",
      "type": "event"
    },
    {
      "anonymous": false,
      "inputs": [
        {
          "indexed": false,
          "internalType": "address",
          "name": "payToken",
          "type": "address"
        },
        {
          "indexed": false,
          "internalType": "address",
          "name": "receiptToken",
          "type": "address"
        },
        {
          "indexed": false,
          "internalType": "address",
          "name": "payer",
          "type": "address"
        },
        {
          "indexed": false,
          "internalType": "address",
          "name": "recipt",
          "type": "address"
        }
      ],
      "name": "Pay",
      "type": "event"
    },
    {
      "anonymous": false,
      "inputs": [
        {
          "indexed": false,
          "internalType": "address",
          "name": "_coin",
          "type": "address"
        }
      ],
      "name": "RemoveCoins",
      "type": "event"
    },
    {
      "anonymous": false,
      "inputs": [
        {
          "indexed": false,
          "internalType": "address",
          "name": "_dev",
          "type": "address"
        }
      ],
      "name": "SetDev",
      "type": "event"
    },
    {
      "anonymous": false,
      "inputs": [
        {
          "indexed": false,
          "internalType": "contract ICSTMinter",
          "name": "_minter",
          "type": "address"
        }
      ],
      "name": "SetMinter",
      "type": "event"
    },
    {
      "anonymous": false,
      "inputs": [
        {
          "indexed": false,
          "internalType": "uint256",
          "name": "_fee",
          "type": "uint256"
        }
      ],
      "name": "SetPaymentFee",
      "type": "event"
    },
    {
      "anonymous": false,
      "inputs": [
        {
          "indexed": false,
          "internalType": "contract ICStablePool",
          "name": "_pool",
          "type": "address"
        }
      ],
      "name": "SetPool",
      "type": "event"
    },
    {
      "anonymous": false,
      "inputs": [
        {
          "indexed": false,
          "internalType": "contract ICSTToken",
          "name": "_token",
          "type": "address"
        }
      ],
      "name": "SetToken",
      "type": "event"
    },
    {
      "anonymous": false,
      "inputs": [
        {
          "indexed": true,
          "internalType": "address",
          "name": "from",
          "type": "address"
        },
        {
          "indexed": true,
          "internalType": "address",
          "name": "to",
          "type": "address"
        },
        {
          "indexed": false,
          "internalType": "uint256",
          "name": "value",
          "type": "uint256"
        }
      ],
      "name": "Transfer",
      "type": "event"
    },
    {
      "anonymous": false,
      "inputs": [
        {
          "indexed": false,
          "internalType": "uint256",
          "name": "_quantity",
          "type": "uint256"
        },
        {
          "indexed": false,
          "internalType": "uint256",
          "name": "_totalQuantity",
          "type": "uint256"
        },
        {
          "indexed": false,
          "internalType": "uint256",
          "name": "_userReward",
          "type": "uint256"
        }
      ],
      "name": "WithdrawReward",
      "type": "event"
    },
    {
      "inputs": [
        {
          "internalType": "address",
          "name": "owner",
          "type": "address"
        },
        {
          "internalType": "address",
          "name": "spender",
          "type": "address"
        }
      ],
      "name": "allowance",
      "outputs": [
        {
          "internalType": "uint256",
          "name": "",
          "type": "uint256"
        }
      ],
      "stateMutability": "view",
      "type": "function",
      "constant": true
    },
    {
      "inputs": [
        {
          "internalType": "address",
          "name": "spender",
          "type": "address"
        },
        {
          "internalType": "uint256",
          "name": "amount",
          "type": "uint256"
        }
      ],
      "name": "approve",
      "outputs": [
        {
          "internalType": "bool",
          "name": "",
          "type": "bool"
        }
      ],
      "stateMutability": "nonpayable",
      "type": "function"
    },
    {
      "inputs": [
        {
          "internalType": "address",
          "name": "account",
          "type": "address"
        }
      ],
      "name": "balanceOf",
      "outputs": [
        {
          "internalType": "uint256",
          "name": "",
          "type": "uint256"
        }
      ],
      "stateMutability": "view",
      "type": "function",
      "constant": true
    },
    {
      "inputs": [],
      "name": "bstMinter",
      "outputs": [
        {
          "internalType": "contract ICSTMinter",
          "name": "",
          "type": "address"
        }
      ],
      "stateMutability": "view",
      "type": "function",
      "constant": true
    },
    {
      "inputs": [
        {
          "internalType": "address",
          "name": "",
          "type": "address"
        }
      ],
      "name": "coins",
      "outputs": [
        {
          "internalType": "uint256",
          "name": "index",
          "type": "uint256"
        },
        {
          "internalType": "bool",
          "name": "available",
          "type": "bool"
        }
      ],
      "stateMutability": "view",
      "type": "function",
      "constant": true
    },
    {
      "inputs": [],
      "name": "decimals",
      "outputs": [
        {
          "internalType": "uint8",
          "name": "",
          "type": "uint8"
        }
      ],
      "stateMutability": "view",
      "type": "function",
      "constant": true
    },
    {
      "inputs": [
        {
          "internalType": "address",
          "name": "spender",
          "type": "address"
        },
        {
          "internalType": "uint256",
          "name": "subtractedValue",
          "type": "uint256"
        }
      ],
      "name": "decreaseAllowance",
      "outputs": [
        {
          "internalType": "bool",
          "name": "",
          "type": "bool"
        }
      ],
      "stateMutability": "nonpayable",
      "type": "function"
    },
    {
      "inputs": [],
      "name": "devAddress",
      "outputs": [
        {
          "internalType": "address",
          "name": "",
          "type": "address"
        }
      ],
      "stateMutability": "view",
      "type": "function",
      "constant": true
    },
    {
      "inputs": [
        {
          "internalType": "address",
          "name": "spender",
          "type": "address"
        },
        {
          "internalType": "uint256",
          "name": "addedValue",
          "type": "uint256"
        }
      ],
      "name": "increaseAllowance",
      "outputs": [
        {
          "internalType": "bool",
          "name": "",
          "type": "bool"
        }
      ],
      "stateMutability": "nonpayable",
      "type": "function"
    },
    {
      "inputs": [],
      "name": "name",
      "outputs": [
        {
          "internalType": "string",
          "name": "",
          "type": "string"
        }
      ],
      "stateMutability": "view",
      "type": "function",
      "constant": true
    },
    {
      "inputs": [],
      "name": "owner",
      "outputs": [
        {
          "internalType": "address",
          "name": "",
          "type": "address"
        }
      ],
      "stateMutability": "view",
      "type": "function",
      "constant": true
    },
    {
      "inputs": [],
      "name": "paymentFee",
      "outputs": [
        {
          "internalType": "uint256",
          "name": "",
          "type": "uint256"
        }
      ],
      "stateMutability": "view",
      "type": "function",
      "constant": true
    },
    {
      "inputs": [],
      "name": "pool",
      "outputs": [
        {
          "internalType": "contract ICStablePool",
          "name": "",
          "type": "address"
        }
      ],
      "stateMutability": "view",
      "type": "function",
      "constant": true
    },
    {
      "inputs": [],
      "name": "renounceOwnership",
      "outputs": [],
      "stateMutability": "nonpayable",
      "type": "function"
    },
    {
      "inputs": [],
      "name": "symbol",
      "outputs": [
        {
          "internalType": "string",
          "name": "",
          "type": "string"
        }
      ],
      "stateMutability": "view",
      "type": "function",
      "constant": true
    },
    {
      "inputs": [],
      "name": "token",
      "outputs": [
        {
          "internalType": "contract ICSTToken",
          "name": "",
          "type": "address"
        }
      ],
      "stateMutability": "view",
      "type": "function",
      "constant": true
    },
    {
      "inputs": [],
      "name": "totalQuantity",
      "outputs": [
        {
          "internalType": "uint256",
          "name": "",
          "type": "uint256"
        }
      ],
      "stateMutability": "view",
      "type": "function",
      "constant": true
    },
    {
      "inputs": [],
      "name": "totalSupply",
      "outputs": [
        {
          "internalType": "uint256",
          "name": "",
          "type": "uint256"
        }
      ],
      "stateMutability": "view",
      "type": "function",
      "constant": true
    },
    {
      "inputs": [
        {
          "internalType": "address",
          "name": "recipient",
          "type": "address"
        },
        {
          "internalType": "uint256",
          "name": "amount",
          "type": "uint256"
        }
      ],
      "name": "transfer",
      "outputs": [
        {
          "internalType": "bool",
          "name": "",
          "type": "bool"
        }
      ],
      "stateMutability": "nonpayable",
      "type": "function"
    },
    {
      "inputs": [
        {
          "internalType": "address",
          "name": "sender",
          "type": "address"
        },
        {
          "internalType": "address",
          "name": "recipient",
          "type": "address"
        },
        {
          "internalType": "uint256",
          "name": "amount",
          "type": "uint256"
        }
      ],
      "name": "transferFrom",
      "outputs": [
        {
          "internalType": "bool",
          "name": "",
          "type": "bool"
        }
      ],
      "stateMutability": "nonpayable",
      "type": "function"
    },
    {
      "inputs": [
        {
          "internalType": "address",
          "name": "newOwner",
          "type": "address"
        }
      ],
      "name": "transferOwnership",
      "outputs": [],
      "stateMutability": "nonpayable",
      "type": "function"
    },
    {
      "inputs": [
        {
          "internalType": "address",
          "name": "",
          "type": "address"
        }
      ],
      "name": "userInfo",
      "outputs": [
        {
          "internalType": "uint256",
          "name": "quantity",
          "type": "uint256"
        },
        {
          "internalType": "uint256",
          "name": "blockNumber",
          "type": "uint256"
        }
      ],
      "stateMutability": "view",
      "type": "function",
      "constant": true
    },
    {
      "inputs": [
        {
          "internalType": "uint256",
          "name": "_fee",
          "type": "uint256"
        }
      ],
      "name": "setPaymentFee",
      "outputs": [],
      "stateMutability": "nonpayable",
      "type": "function"
    },
    {
      "inputs": [
        {
          "internalType": "contract ICSTMinter",
          "name": "_minter",
          "type": "address"
        }
      ],
      "name": "setMinter",
      "outputs": [],
      "stateMutability": "nonpayable",
      "type": "function"
    },
    {
      "inputs": [
        {
          "internalType": "uint256",
          "name": "_allocPoint",
          "type": "uint256"
        }
      ],
      "name": "add",
      "outputs": [],
      "stateMutability": "nonpayable",
      "type": "function"
    },
    {
      "inputs": [
        {
          "internalType": "uint256",
          "name": "_allocPoint",
          "type": "uint256"
        }
      ],
      "name": "set",
      "outputs": [],
      "stateMutability": "nonpayable",
      "type": "function"
    },
    {
      "inputs": [],
      "name": "massUpdate",
      "outputs": [],
      "stateMutability": "nonpayable",
      "type": "function"
    },
    {
      "inputs": [
        {
          "internalType": "address",
          "name": "_dev",
          "type": "address"
        }
      ],
      "name": "setDev",
      "outputs": [],
      "stateMutability": "nonpayable",
      "type": "function"
    },
    {
      "inputs": [
        {
          "internalType": "contract ICSTToken",
          "name": "_token",
          "type": "address"
        }
      ],
      "name": "setToken",
      "outputs": [],
      "stateMutability": "nonpayable",
      "type": "function"
    },
    {
      "inputs": [
        {
          "internalType": "address",
          "name": "_coin",
          "type": "address"
        },
        {
          "internalType": "uint32",
          "name": "index",
          "type": "uint32"
        }
      ],
      "name": "addCoins",
      "outputs": [],
      "stateMutability": "nonpayable",
      "type": "function"
    },
    {
      "inputs": [
        {
          "internalType": "address",
          "name": "_coin",
          "type": "address"
        }
      ],
      "name": "removeCoins",
      "outputs": [],
      "stateMutability": "nonpayable",
      "type": "function"
    },
    {
      "inputs": [
        {
          "internalType": "contract ICStablePool",
          "name": "_pool",
          "type": "address"
        }
      ],
      "name": "setPool",
      "outputs": [],
      "stateMutability": "nonpayable",
      "type": "function"
    },
    {
      "inputs": [
        {
          "internalType": "address",
          "name": "receiptToken",
          "type": "address"
        },
        {
          "internalType": "address",
          "name": "receipt",
          "type": "address"
        },
        {
          "internalType": "uint256",
          "name": "amt",
          "type": "uint256"
        }
      ],
      "name": "pay",
      "outputs": [],
      "stateMutability": "nonpayable",
      "type": "function"
    },
    {
      "inputs": [
        {
          "internalType": "address",
          "name": "payToken",
          "type": "address"
        },
        {
          "internalType": "address",
          "name": "receiptToken",
          "type": "address"
        },
        {
          "internalType": "uint256",
          "name": "payAmt",
          "type": "uint256"
        },
        {
          "internalType": "uint256",
          "name": "receiptAmt",
          "type": "uint256"
        },
        {
          "internalType": "address",
          "name": "receipt",
          "type": "address"
        }
      ],
      "name": "payWithSwap",
      "outputs": [],
      "stateMutability": "nonpayable",
      "type": "function"
    },
    {
      "inputs": [],
      "name": "withdrawReward",
      "outputs": [],
      "stateMutability": "nonpayable",
      "type": "function"
    },
    {
      "inputs": [
        {
          "internalType": "address",
          "name": "_user",
          "type": "address"
        }
      ],
      "name": "getUserReward",
      "outputs": [
        {
          "internalType": "uint256",
          "name": "",
          "type": "uint256"
        }
      ],
      "stateMutability": "view",
      "type": "function",
      "constant": true
    }
  ],
  "bytecode": "0x6080604052660aa87bee5380006007553480156200001c57600080fd5b5060405162002beb38038062002beb8339810160408190526200003f9162000342565b83518490849062000058906003906020850190620001d4565b5080516200006e906004906020840190620001d4565b5050506200008b62000085620000f260201b60201c565b620000f6565b6001600160a01b038116620000bd5760405162461bcd60e51b8152600401620000b490620003ce565b60405180910390fd5b620000c88262000148565b600980546001600160a01b0319166001600160a01b039290921691909117905550620004e8915050565b3390565b600580546001600160a01b038381166001600160a01b0319831681179093556040519116919082907f8be0079c531659141344cd1fd0a4f28419497f9722a3daafe3b4186f6b6457e090600090a35050565b62000152620000f2565b6001600160a01b031662000165620001c5565b6001600160a01b0316146200018e5760405162461bcd60e51b8152600401620000b49062000460565b6001600160a01b038116620001b75760405162461bcd60e51b8152600401620000b4906200041a565b620001c281620000f6565b50565b6005546001600160a01b031690565b828054620001e29062000495565b90600052602060002090601f01602090048101928262000206576000855562000251565b82601f106200022157805160ff191683800117855562000251565b8280016001018555821562000251579182015b828111156200025157825182559160200191906001019062000234565b506200025f92915062000263565b5090565b5b808211156200025f576000815560010162000264565b80516001600160a01b03811681146200029257600080fd5b919050565b600082601f830112620002a8578081fd5b81516001600160401b0380821115620002c557620002c5620004d2565b6040516020601f8401601f1916820181018381118382101715620002ed57620002ed620004d2565b604052838252858401810187101562000304578485fd5b8492505b8383101562000327578583018101518284018201529182019162000308565b838311156200033857848185840101525b5095945050505050565b6000806000806080858703121562000358578384fd5b84516001600160401b03808211156200036f578586fd5b6200037d8883890162000297565b9550602087015191508082111562000393578485fd5b50620003a28782880162000297565b935050620003b3604086016200027a565b9150620003c3606086016200027a565b905092959194509250565b6020808252602c908201527f5061796d656e744661726d696e6750726f78793a205f6465762063616e27742060408201526b62652030206164647265737360a01b606082015260800190565b60208082526026908201527f4f776e61626c653a206e6577206f776e657220697320746865207a65726f206160408201526564647265737360d01b606082015260800190565b6020808252818101527f4f776e61626c653a2063616c6c6572206973206e6f7420746865206f776e6572604082015260600190565b600281046001821680620004aa57607f821691505b60208210811415620004cc57634e487b7160e01b600052602260045260246000fd5b50919050565b634e487b7160e01b600052604160045260246000fd5b6126f380620004f86000396000f3fe608060405234801561001057600080fd5b506004361061021c5760003560e01c80637d0f7a8811610125578063c885bc58116100ad578063e3bce7181161007c578063e3bce71814610452578063e51b390a14610465578063f2fde38b1461046d578063fc0c546a14610480578063fca3b5aa146104885761021c565b8063c885bc5814610411578063d477f05f14610419578063dd62ed3e1461042c578063dee7b7b51461043f5761021c565b8063a457c2d7116100f4578063a457c2d7146103bd578063a9059cbb146103d0578063b3d76188146103e3578063c616f412146103f6578063c75ebb82146103fe5761021c565b80637d0f7a88146103845780638da5cb5b146103a55780639254803a146103ad57806395d89b41146103b55761021c565b8063313ce567116101a857806360fe47b11161017757806360fe47b11461033b5780636ef06a081461034e57806370a0823114610356578063715018a6146103695780637c775dd8146103715761021c565b8063313ce567146102f8578063395093511461030d5780633ad10ef6146103205780634437152a146103285761021c565b8063144fa6d7116101ef578063144fa6d71461028757806316f0115b1461029a57806318160ddd146102af5780631959a002146102c457806323b872dd146102e55761021c565b806306fdde031461022157806307d3b6a21461023f578063095ea7b3146102545780631003e2d214610274575b600080fd5b61022961049b565b6040516102369190611f79565b60405180910390f35b61025261024d366004611da9565b61052d565b005b610267610262366004611e07565b61086f565b6040516102369190611f6e565b610252610282366004611e87565b61088c565b610252610295366004611d15565b610932565b6102a26109ed565b6040516102369190611ed3565b6102b76109fc565b6040516102369190612540565b6102d76102d2366004611d15565b610a02565b604051610236929190612570565b6102676102f3366004611d69565b610a1b565b610300610aab565b60405161023691906125af565b61026761031b366004611e07565b610ab0565b6102a2610b04565b610252610336366004611d15565b610b13565b610252610349366004611e87565b610bc3565b6102b7610c9c565b6102b7610364366004611d15565b610ca2565b610252610cbd565b61025261037f366004611e32565b610d08565b610397610392366004611d15565b610e2f565b604051610236929190612560565b6102a2610e4b565b610252610e5a565b610229610f09565b6102676103cb366004611e07565b610f18565b6102676103de366004611e07565b610f91565b6102526103f1366004611d69565b610fa5565b6102b761123e565b6102b761040c366004611d15565b611244565b610252611305565b610252610427366004611d15565b61146b565b6102b761043a366004611d31565b61151b565b61025261044d366004611e87565b611546565b610252610460366004611d15565b6115ba565b6102a26116ad565b61025261047b366004611d15565b6116bc565b6102a261172a565b610252610496366004611d15565b611739565b6060600380546104aa90612657565b80601f01602080910402602001604051908101604052809291908181526020018280546104d690612657565b80156105235780601f106104f857610100808354040283529160200191610523565b820191906000526020600020905b81548152906001019060200180831161050657829003601f168201915b5050505050905090565b836001600160a01b0316856001600160a01b031614156105685760405162461bcd60e51b815260040161055f906123cb565b60405180910390fd5b6008546040516335313c2160e11b81526001600160a01b0390911690636a62784290610598903090600401611ed3565b602060405180830381600087803b1580156105b257600080fd5b505af11580156105c6573d6000803e3d6000fd5b505050506040513d601f19601f820116820180604052508101906105ea9190611e9f565b506001600160a01b038086166000908152600d602052604080822054928716825290205461061a873330886117e9565b6006546106329088906001600160a01b0316876118d9565b6040516370a0823160e01b81526000906001600160a01b038816906370a0823190610661903090600401611ed3565b60206040518083038186803b15801561067957600080fd5b505afa15801561068d573d6000803e3d6000fd5b505050506040513d601f19601f820116820180604052508101906106b19190611e9f565b600654604051630b68372160e31b81529192506001600160a01b031690635b41b908906106e890869086908b908b90600401612594565b600060405180830381600087803b15801561070257600080fd5b505af1158015610716573d6000803e3d6000fd5b5050505060006107a282896001600160a01b03166370a08231306040518263ffffffff1660e01b815260040161074c9190611ed3565b60206040518083038186803b15801561076457600080fd5b505afa158015610778573d6000803e3d6000fd5b505050506040513d601f19601f8201168201806040525081019061079c9190611e9f565b906119bf565b9050858110156107c45760405162461bcd60e51b815260040161055f906120e5565b336000908152600a6020526040902080546107df90886119d2565b8155336000908152600a6020526040902043600190910155600b5461080490886119d2565b600b556108128987896119de565b6108268933610821858b6119bf565b6119de565b7f8049bd343471d985a0a44482e4f7e94d9180cc4c4731c410980f5dd5704899888a8a338960405161085b9493929190611ee7565b60405180910390a150505050505050505050565b600061088361087c611ac4565b8484611ac8565b50600192915050565b610894611ac4565b6001600160a01b03166108a5610e4b565b6001600160a01b0316146108cb5760405162461bcd60e51b815260040161055f906121e1565b600854604051630571777d60e31b81526001600160a01b0390911690632b8bbbe8906108fd9084903090600401612549565b600060405180830381600087803b15801561091757600080fd5b505af115801561092b573d6000803e3d6000fd5b5050505050565b61093a611ac4565b6001600160a01b031661094b610e4b565b6001600160a01b0316146109715760405162461bcd60e51b815260040161055f906121e1565b6001600160a01b0381166109975760405162461bcd60e51b815260040161055f906124f9565b600c80546001600160a01b0319166001600160a01b0383161790556040517fefc1fd16ea80a922086ee4e995739d59b025c1bcea6d1f67855747480c83214b906109e2908390611ed3565b60405180910390a150565b6006546001600160a01b031681565b60025490565b600a602052600090815260409020805460019091015482565b6000610a28848484611b7c565b6001600160a01b038416600090815260016020526040812081610a49611ac4565b6001600160a01b03166001600160a01b0316815260200190815260200160002054905082811015610a8c5760405162461bcd60e51b815260040161055f90612199565b610aa085610a98611ac4565b858403611ac8565b506001949350505050565b601290565b6000610883610abd611ac4565b848460016000610acb611ac4565b6001600160a01b03908116825260208083019390935260409182016000908120918b1681529252902054610aff91906125bd565b611ac8565b6009546001600160a01b031681565b610b1b611ac4565b6001600160a01b0316610b2c610e4b565b6001600160a01b031614610b525760405162461bcd60e51b815260040161055f906121e1565b6001600160a01b038116610b785760405162461bcd60e51b815260040161055f906124f9565b600680546001600160a01b0319166001600160a01b0383161790556040517f67816c9262630d6052ccaada1732fda377aa9e9abb3bc91cfd887a016a18a43a906109e2908390611ed3565b610bcb611ac4565b6001600160a01b0316610bdc610e4b565b6001600160a01b031614610c025760405162461bcd60e51b815260040161055f906121e1565b600860009054906101000a90046001600160a01b03166001600160a01b0316635f386b906040518163ffffffff1660e01b8152600401600060405180830381600087803b158015610c5257600080fd5b505af1158015610c66573d6000803e3d6000fd5b5050600854604051630704bb0560e31b81526001600160a01b039091169250633825d82891506108fd9030908590600401611f36565b60075481565b6001600160a01b031660009081526020819052604090205490565b610cc5611ac4565b6001600160a01b0316610cd6610e4b565b6001600160a01b031614610cfc5760405162461bcd60e51b815260040161055f906121e1565b610d066000611ca6565b565b610d10611ac4565b6001600160a01b0316610d21610e4b565b6001600160a01b031614610d475760405162461bcd60e51b815260040161055f906121e1565b6001600160a01b038216610d6d5760405162461bcd60e51b815260040161055f906124f9565b6001600160a01b0382166000908152600d602052604090206001015460ff1615610da95760405162461bcd60e51b815260040161055f90612402565b60408051808201825263ffffffff83168152600160208083018281526001600160a01b0387166000908152600d9092529084902092518355519101805460ff1916911515919091179055517f105ebf94dd0a850e02b95d0c48754fe267309ebb490ee3949d49f1090dc989f290610e239084908490611f4f565b60405180910390a15050565b600d602052600090815260409020805460019091015460ff1682565b6005546001600160a01b031690565b6008546001600160a01b03163314610e845760405162461bcd60e51b815260040161055f9061237b565b6008546040516335313c2160e11b81526001600160a01b0390911690636a62784290610eb4903090600401611ed3565b602060405180830381600087803b158015610ece57600080fd5b505af1158015610ee2573d6000803e3d6000fd5b505050506040513d601f19601f82011682018060405250810190610f069190611e9f565b50565b6060600480546104aa90612657565b60008060016000610f27611ac4565b6001600160a01b0390811682526020808301939093526040918201600090812091881681529252902054905082811015610f735760405162461bcd60e51b815260040161055f906124b4565b610f87610f7e611ac4565b85858403611ac8565b5060019392505050565b6000610883610f9e611ac4565b8484611b7c565b6001600160a01b038316610fcb5760405162461bcd60e51b815260040161055f9061224d565b6001600160a01b038216610ff15760405162461bcd60e51b815260040161055f90612284565b6001600160a01b0383166000908152600d602052604090206001015460ff1661102c5760405162461bcd60e51b815260040161055f90612216565b6040516370a0823160e01b81526001600160a01b038416906370a0823190611058903390600401611ed3565b60206040518083038186803b15801561107057600080fd5b505afa158015611084573d6000803e3d6000fd5b505050506040513d601f19601f820116820180604052508101906110a89190611e9f565b8111156110c75760405162461bcd60e51b815260040161055f90612300565b6008546040516335313c2160e11b81526001600160a01b0390911690636a627842906110f7903090600401611ed3565b602060405180830381600087803b15801561111157600080fd5b505af1158015611125573d6000803e3d6000fd5b505050506040513d601f19601f820116820180604052508101906111499190611e9f565b506000611173670de0b6b3a764000061116d60075485611cf890919063ffffffff16565b90611d04565b336000908152600a6020526040902090915061119a61119284846119bf565b8254906119d2565b8155336000908152600a60205260409020436001909101556111c86111bf84846119bf565b600b54906119d2565b600b556009546111e590869033906001600160a01b0316856117e9565b6111fa8533866111f587876119bf565b6117e9565b7f8049bd343471d985a0a44482e4f7e94d9180cc4c4731c410980f5dd5704899888586338760405161122f9493929190611ee7565b60405180910390a15050505050565b600b5481565b6001600160a01b0381166000908152600a602052604081208054600b548390156112fd57600b54600c546040516370a0823160e01b81526112fa929161116d9186916001600160a01b0316906370a08231906112a4903090600401611ed3565b60206040518083038186803b1580156112bc57600080fd5b505afa1580156112d0573d6000803e3d6000fd5b505050506040513d601f19601f820116820180604052508101906112f49190611e9f565b90611cf8565b90505b949350505050565b336000908152600a602052604090208054600b54816113365760405162461bcd60e51b815260040161055f9061247d565b6008546040516335313c2160e11b81526001600160a01b0390911690636a62784290611366903090600401611ed3565b602060405180830381600087803b15801561138057600080fd5b505af1158015611394573d6000803e3d6000fd5b505050506040513d601f19601f820116820180604052508101906113b89190611e9f565b50600c546040516370a0823160e01b81526000916113f691849161116d9187916001600160a01b0316906370a08231906112a4903090600401611ed3565b60008555436001860155600b5490915061141090846119bf565b600b55600c5461142a906001600160a01b031633836119de565b7fd3fb528e913f4bbf4dce5c74bea05df6ad20573463aceba438f2747fdc8d1ab683838360405161145d9392919061257e565b60405180910390a150505050565b611473611ac4565b6001600160a01b0316611484610e4b565b6001600160a01b0316146114aa5760405162461bcd60e51b815260040161055f906121e1565b6001600160a01b0381166114d05760405162461bcd60e51b815260040161055f906124f9565b600980546001600160a01b0319166001600160a01b0383161790556040517f8daa6bb00de042a7d51816fcee4a3d5c1e91a2128fd64fa1a9a38afa0d26beb5906109e2908390611ed3565b6001600160a01b03918216600090815260016020908152604080832093909416825291909152205490565b61154e611ac4565b6001600160a01b031661155f610e4b565b6001600160a01b0316146115855760405162461bcd60e51b815260040161055f906121e1565b60078190556040517f0ba1a395bffa0247eabada1d9f74ddd223a25b0f285cf799bd37d9306a27c402906109e2908390612540565b6115c2611ac4565b6001600160a01b03166115d3610e4b565b6001600160a01b0316146115f95760405162461bcd60e51b815260040161055f906121e1565b6001600160a01b03811661161f5760405162461bcd60e51b815260040161055f906124f9565b6001600160a01b0381166000908152600d602052604090206001015460ff1661165a5760405162461bcd60e51b815260040161055f906120ae565b6001600160a01b0381166000908152600d602052604090819020600101805460ff19169055517fc0d90ee5f61611fa06580819f6c6b6a0edad1297b422e279dc926d3249d891a1906109e2908390611ed3565b6008546001600160a01b031681565b6116c4611ac4565b6001600160a01b03166116d5610e4b565b6001600160a01b0316146116fb5760405162461bcd60e51b815260040161055f906121e1565b6001600160a01b0381166117215760405162461bcd60e51b815260040161055f90612026565b610f0681611ca6565b600c546001600160a01b031681565b611741611ac4565b6001600160a01b0316611752610e4b565b6001600160a01b0316146117785760405162461bcd60e51b815260040161055f906121e1565b6001600160a01b03811661179e5760405162461bcd60e51b815260040161055f906124f9565b600880546001600160a01b0319166001600160a01b0383161790556040517fcec52196e972044edde8689a1b608e459c5946b7f3e5c8cd3d6d8e126d422e1c906109e2908390611ed3565b600080856001600160a01b03166323b872dd86868660405160240161181093929190611f12565b6040516020818303038152906040529060e01b6020820180516001600160e01b0383818316178352505050506040516118499190611eb7565b6000604051808303816000865af19150503d8060008114611886576040519150601f19603f3d011682016040523d82523d6000602084013e61188b565b606091505b50915091508180156118b55750805115806118b55750808060200190518101906118b59190611e67565b6118d15760405162461bcd60e51b815260040161055f90612439565b505050505050565b600080846001600160a01b031663095ea7b385856040516024016118fe929190611f36565b6040516020818303038152906040529060e01b6020820180516001600160e01b0383818316178352505050506040516119379190611eb7565b6000604051808303816000865af19150503d8060008114611974576040519150601f19603f3d011682016040523d82523d6000602084013e611979565b606091505b50915091508180156119a35750805115806119a35750808060200190518101906119a39190611e67565b61092b5760405162461bcd60e51b815260040161055f9061211c565b60006119cb8284612614565b9392505050565b60006119cb82846125bd565b600080846001600160a01b031663a9059cbb8585604051602401611a03929190611f36565b6040516020818303038152906040529060e01b6020820180516001600160e01b038381831617835250505050604051611a3c9190611eb7565b6000604051808303816000865af19150503d8060008114611a79576040519150601f19603f3d011682016040523d82523d6000602084013e611a7e565b606091505b5091509150818015611aa8575080511580611aa8575080806020019051810190611aa89190611e67565b61092b5760405162461bcd60e51b815260040161055f90611fef565b3390565b6001600160a01b038316611aee5760405162461bcd60e51b815260040161055f90612337565b6001600160a01b038216611b145760405162461bcd60e51b815260040161055f9061206c565b6001600160a01b0380841660008181526001602090815260408083209487168084529490915290819020849055517f8c5be1e5ebec7d5bd14f71427d1e84f3dd0314c0f7b2291e5b200ac8c7c3b92590611b6f908590612540565b60405180910390a3505050565b6001600160a01b038316611ba25760405162461bcd60e51b815260040161055f906122bb565b6001600160a01b038216611bc85760405162461bcd60e51b815260040161055f90611fac565b611bd3838383611d10565b6001600160a01b03831660009081526020819052604090205481811015611c0c5760405162461bcd60e51b815260040161055f90612153565b6001600160a01b03808516600090815260208190526040808220858503905591851681529081208054849290611c439084906125bd565b92505081905550826001600160a01b0316846001600160a01b03167fddf252ad1be2c89b69c2b068fc378daa952ba7f163c4a11628f55a4df523b3ef84604051611c8d9190612540565b60405180910390a3611ca0848484611d10565b50505050565b600580546001600160a01b038381166001600160a01b0319831681179093556040519116919082907f8be0079c531659141344cd1fd0a4f28419497f9722a3daafe3b4186f6b6457e090600090a35050565b60006119cb82846125f5565b60006119cb82846125d5565b505050565b600060208284031215611d26578081fd5b81356119cb816126a8565b60008060408385031215611d43578081fd5b8235611d4e816126a8565b91506020830135611d5e816126a8565b809150509250929050565b600080600060608486031215611d7d578081fd5b8335611d88816126a8565b92506020840135611d98816126a8565b929592945050506040919091013590565b600080600080600060a08688031215611dc0578081fd5b8535611dcb816126a8565b94506020860135611ddb816126a8565b935060408601359250606086013591506080860135611df9816126a8565b809150509295509295909350565b60008060408385031215611e19578182fd5b8235611e24816126a8565b946020939093013593505050565b60008060408385031215611e44578182fd5b8235611e4f816126a8565b9150602083013563ffffffff81168114611d5e578182fd5b600060208284031215611e78578081fd5b815180151581146119cb578182fd5b600060208284031215611e98578081fd5b5035919050565b600060208284031215611eb0578081fd5b5051919050565b60008251611ec981846020870161262b565b9190910192915050565b6001600160a01b0391909116815260200190565b6001600160a01b03948516815292841660208401529083166040830152909116606082015260800190565b6001600160a01b039384168152919092166020820152604081019190915260600190565b6001600160a01b03929092168252602082015260400190565b6001600160a01b0392909216825263ffffffff16602082015260400190565b901515815260200190565b6000602082528251806020840152611f9881604085016020870161262b565b601f01601f19169190910160400192915050565b60208082526023908201527f45524332303a207472616e7366657220746f20746865207a65726f206164647260408201526265737360e81b606082015260800190565b6020808252601f908201527f5472616e7366657248656c7065723a205452414e534645525f4641494c454400604082015260600190565b60208082526026908201527f4f776e61626c653a206e6577206f776e657220697320746865207a65726f206160408201526564647265737360d01b606082015260800190565b60208082526022908201527f45524332303a20617070726f766520746f20746865207a65726f206164647265604082015261737360f01b606082015260800190565b60208082526018908201527f5061796d656e743a20636f696e206e6f206578697374732e0000000000000000604082015260600190565b6020808252601f908201527f5061796d656e743a207377617020616d7420696e73756666696369656e742e00604082015260600190565b6020808252601e908201527f5472616e7366657248656c7065723a20415050524f56455f4641494c45440000604082015260600190565b60208082526026908201527f45524332303a207472616e7366657220616d6f756e7420657863656564732062604082015265616c616e636560d01b606082015260800190565b60208082526028908201527f45524332303a207472616e7366657220616d6f756e74206578636565647320616040820152676c6c6f77616e636560c01b606082015260800190565b6020808252818101527f4f776e61626c653a2063616c6c6572206973206e6f7420746865206f776e6572604082015260600190565b60208082526019908201527f5061796d656e743a20746f6b656e206e6f206578697374732e00000000000000604082015260600190565b6020808252601f908201527f5061796d656e743a72656365697074546f6b656e2063616e2774206265203000604082015260600190565b6020808252601a908201527f5061796d656e743a726563656970742063616e27742062652030000000000000604082015260600190565b60208082526025908201527f45524332303a207472616e736665722066726f6d20746865207a65726f206164604082015264647265737360d81b606082015260800190565b6020808252601e908201527f5061796d656e743a20696e73756666696369656e742062616c616e63652e0000604082015260600190565b60208082526024908201527f45524332303a20617070726f76652066726f6d20746865207a65726f206164646040820152637265737360e01b606082015260800190565b60208082526030908201527f5061796d656e744661726d696e6750726f78793a2063616c6c6572206973206e60408201526f37ba103a3432903139ba26b4b73a32b960811b606082015260800190565b60208082526018908201527f5061796d656e743a207468652073616d6520746f6b656e2e0000000000000000604082015260600190565b6020808252601b908201527f5061796d656e743a20636f696e732064756d706c6963617465642e0000000000604082015260600190565b60208082526024908201527f5472616e7366657248656c7065723a205452414e534645525f46524f4d5f46416040820152631253115160e21b606082015260800190565b6020808252601d908201527f5061796d656e743a206e6f207061796d656e74207175616e746974792e000000604082015260600190565b60208082526025908201527f45524332303a2064656372656173656420616c6c6f77616e63652062656c6f77604082015264207a65726f60d81b606082015260800190565b60208082526027908201527f5061796d656e744661726d696e6750726f78793a2063616e27742062652030206040820152666164647265737360c81b606082015260800190565b90815260200190565b9182526001600160a01b0316602082015260400190565b9182521515602082015260400190565b918252602082015260400190565b9283526020830191909152604082015260600190565b93845260208401929092526040830152606082015260800190565b60ff91909116815260200190565b600082198211156125d0576125d0612692565b500190565b6000826125f057634e487b7160e01b81526012600452602481fd5b500490565b600081600019048311821515161561260f5761260f612692565b500290565b60008282101561262657612626612692565b500390565b60005b8381101561264657818101518382015260200161262e565b83811115611ca05750506000910152565b60028104600182168061266b57607f821691505b6020821081141561268c57634e487b7160e01b600052602260045260246000fd5b50919050565b634e487b7160e01b600052601160045260246000fd5b6001600160a01b0381168114610f0657600080fdfea264697066735822122044ecad92b45b623384244f165e756fc923fce0fb95cf723bf6c767357bc82db364736f6c63430008000033",
  "immutableReferences": {},
  "source": "// SPDX-License-Identifier: MIT\n\npragma solidity ^0.8.0;\n\nimport \"@openzeppelin/contracts/token/ERC20/IERC20.sol\";\nimport \"./interfaces/ICSTMinter.sol\";\nimport \"./interfaces/ICStablePool.sol\";\nimport \"./interfaces/ICSTToken.sol\";\nimport \"./interfaces/ICSTFarmingProxy.sol\";\nimport \"@openzeppelin/contracts/utils/math/SafeMath.sol\";\nimport \"@openzeppelin/contracts/access/Ownable.sol\";\nimport \"@openzeppelin/contracts/token/ERC20/ERC20.sol\";\nimport \"./lib/TransferHelper.sol\";\n\n/// @title Implement Payment and payment farming.\ncontract PaymentFarmingProxy is ERC20, Ownable, ICSTFarmingProxy {\n    using SafeMath for uint256;\n\n    ICStablePool public pool;\n\n    uint256 public paymentFee = 3_000_000_000_000_000;\n\n    ICSTMinter public bstMinter;\n\n    address public devAddress;\n\n    struct UserInfo {\n        uint256 quantity; // user's volume\n        uint256 blockNumber; // Last transaction block\n    }\n\n    mapping(address => UserInfo) public userInfo;\n\n    uint256 public totalQuantity;\n\n    ICSTToken public token;\n\n    struct CoinInfo {\n        uint256 index;\n        bool available;\n    }\n    mapping(address => CoinInfo) public coins;\n\n    modifier onlyMinter() {\n        require(\n            address(bstMinter) == msg.sender,\n            \"PaymentFarmingProxy: caller is not the bstMinter\"\n        );\n        _;\n    }\n\n    event SetPaymentFee(uint256 _fee);\n    event SetMinter(ICSTMinter _minter);\n    event SetDev(address _dev);\n    event SetToken(ICSTToken _token);\n    event AddCoins(address _coin, uint32 index);\n    event RemoveCoins(address _coin);\n    event SetPool(ICStablePool _pool);\n    event Pay(\n        address payToken,\n        address receiptToken,\n        address payer,\n        address recipt\n    );\n\n    event WithdrawReward(\n        uint256 _quantity,\n        uint256 _totalQuantity,\n        uint256 _userReward\n    );\n\n    constructor(\n        string memory _name,\n        string memory _symbol,\n        address _owner,\n        address _dev\n    ) ERC20(_name, _symbol) {\n        require(\n            _dev != address(0),\n            \"PaymentFarmingProxy: _dev can't be 0 address\"\n        );\n        transferOwnership(_owner);\n        devAddress = _dev;\n    }\n\n    function setPaymentFee(uint256 _fee) public onlyOwner {\n        paymentFee = _fee;\n        emit SetPaymentFee(_fee);\n    }\n\n    function setMinter(ICSTMinter _minter) public onlyOwner {\n        require(\n            address(_minter) != address(0),\n            \"PaymentFarmingProxy: can't be 0 address\"\n        );\n        bstMinter = _minter;\n        emit SetMinter(_minter);\n    }\n\n    function add(uint256 _allocPoint) public onlyOwner {\n        bstMinter.add(_allocPoint, address(this));\n    }\n\n    function set(uint256 _allocPoint) public onlyOwner {\n        bstMinter.massUpdateProxy();\n        bstMinter.set(address(this), _allocPoint);\n    }\n\n    /// @dev Mass update pools. Only caller is CSTMinter's massUpdateProxy.\n    function massUpdate() public override onlyMinter {\n        bstMinter.mint(address(this));\n    }\n\n    function setDev(address _dev) public onlyOwner {\n        require(_dev != address(0), \"PaymentFarmingProxy: can't be 0 address\");\n        devAddress = _dev;\n        emit SetDev(_dev);\n    }\n\n    function setToken(ICSTToken _token) public onlyOwner {\n        require(\n            address(_token) != address(0),\n            \"PaymentFarmingProxy: can't be 0 address\"\n        );\n        token = _token;\n        emit SetToken(_token);\n    }\n\n    /// @notice Add coins supported.\n    function addCoins(address _coin, uint32 index) public onlyOwner {\n        require(_coin != address(0), \"PaymentFarmingProxy: can't be 0 address\");\n        require(!coins[_coin].available, \"Payment: coins dumplicated.\");\n        coins[_coin] = CoinInfo({index: index, available: true});\n        emit AddCoins(_coin, index);\n    }\n\n    /// @notice Remove coins from supported.\n    function removeCoins(address _coin) public onlyOwner {\n        require(_coin != address(0), \"PaymentFarmingProxy: can't be 0 address\");\n        require(coins[_coin].available, \"Payment: coin no exists.\");\n        coins[_coin].available = false;\n        emit RemoveCoins(_coin);\n    }\n\n    function setPool(ICStablePool _pool) public onlyOwner {\n        require(\n            address(_pool) != address(0),\n            \"PaymentFarmingProxy: can't be 0 address\"\n        );\n        pool = _pool;\n        emit SetPool(_pool);\n    }\n\n    /// @notice Only pay, no need swap.\n    function pay(\n        address receiptToken,\n        address receipt,\n        uint256 amt\n    ) external {\n        require(receiptToken != address(0), \"Payment:receiptToken can't be 0\");\n        require(receipt != address(0), \"Payment:receipt can't be 0\");\n        require(coins[receiptToken].available, \"Payment: token no exists.\");\n        require(\n            amt <= IERC20(receiptToken).balanceOf(msg.sender),\n            \"Payment: insufficient balance.\"\n        );\n        bstMinter.mint(address(this));\n        uint256 fee = amt.mul(paymentFee).div(10**18);\n        UserInfo storage user = userInfo[msg.sender];\n        user.quantity = user.quantity.add(amt.sub(fee));\n        userInfo[msg.sender].blockNumber = block.number;\n        totalQuantity = totalQuantity.add(amt.sub(fee));\n        TransferHelper.safeTransferFrom(\n            receiptToken,\n            msg.sender,\n            devAddress,\n            fee\n        );\n        TransferHelper.safeTransferFrom(\n            receiptToken,\n            msg.sender,\n            receipt,\n            amt.sub(fee)\n        );\n        emit Pay(receiptToken, receiptToken, msg.sender, receipt);\n    }\n\n    /// @notice Pay, and use swap.\n    function payWithSwap(\n        address payToken,\n        address receiptToken,\n        uint256 payAmt,\n        uint256 receiptAmt,\n        address receipt\n    ) external {\n        require(payToken != receiptToken, \"Payment: the same token.\");\n        bstMinter.mint(address(this));\n        uint256 i = coins[payToken].index;\n        uint256 j = coins[receiptToken].index;\n        TransferHelper.safeTransferFrom(\n            payToken,\n            msg.sender,\n            address(this),\n            payAmt\n        );\n        TransferHelper.safeApprove(payToken, address(pool), payAmt);\n        uint256 _originalBalance = IERC20(receiptToken).balanceOf(\n            address(this)\n        );\n        pool.exchange(i, j, payAmt, receiptAmt);\n        uint256 returnAmt = IERC20(receiptToken).balanceOf(address(this)).sub(\n            _originalBalance\n        );\n        require(returnAmt >= receiptAmt, \"Payment: swap amt insufficient.\");\n        UserInfo storage user = userInfo[msg.sender];\n        user.quantity = user.quantity.add(receiptAmt);\n        userInfo[msg.sender].blockNumber = block.number;\n        totalQuantity = totalQuantity.add(receiptAmt);\n        TransferHelper.safeTransfer(receiptToken, receipt, receiptAmt);\n        TransferHelper.safeTransfer(\n            receiptToken,\n            msg.sender,\n            returnAmt.sub(receiptAmt)\n        );\n        emit Pay(payToken, receiptToken, msg.sender, receipt);\n    }\n\n    /// @notice The user withdraws all the payment rewards\n    function withdrawReward() public {\n        UserInfo storage user = userInfo[msg.sender];\n        uint256 _quantity = user.quantity;\n        uint256 _totalQuantity = totalQuantity;\n        require(user.quantity > 0, \"Payment: no payment quantity.\");\n        bstMinter.mint(address(this));\n        uint256 userReward = token.balanceOf(address(this)).mul(_quantity).div(\n            _totalQuantity\n        );\n        user.quantity = 0;\n        user.blockNumber = block.number;\n        totalQuantity = totalQuantity.sub(_quantity);\n        TransferHelper.safeTransfer(address(token), msg.sender, userReward);\n        emit WithdrawReward(_quantity, _totalQuantity, userReward);\n    }\n\n    /// @notice Get rewards from users in the current pool\n    function getUserReward(address _user) public view returns (uint256) {\n        UserInfo storage user = userInfo[_user];\n        uint256 _quantity = user.quantity;\n        uint256 userReward = 0;\n        if (totalQuantity > 0) {\n            userReward = token.balanceOf(address(this)).mul(_quantity).div(\n                totalQuantity\n            );\n        }\n        return userReward;\n    }\n}\n",
  "sourcePath": "/Users/zhangleping/github.com/0x5dA1/cstable-contracts/contracts/PaymentFarmingProxy.sol",
  "compiler": {
    "name": "solc",
    "version": "0.8.0+commit.c7dfd78e.Emscripten.clang"
  },
  "schemaVersion": "3.4.1",
  "updatedAt": "2022-03-07T08:41:20.302Z",
  "networkType": "ethereum",
  "devdoc": {
    "kind": "dev",
    "methods": {
      "allowance(address,address)": {
        "details": "See {IERC20-allowance}."
      },
      "approve(address,uint256)": {
        "details": "See {IERC20-approve}. Requirements: - `spender` cannot be the zero address."
      },
      "balanceOf(address)": {
        "details": "See {IERC20-balanceOf}."
      },
      "decimals()": {
        "details": "Returns the number of decimals used to get its user representation. For example, if `decimals` equals `2`, a balance of `505` tokens should be displayed to a user as `5.05` (`505 / 10 ** 2`). Tokens usually opt for a value of 18, imitating the relationship between Ether and Wei. This is the value {ERC20} uses, unless this function is overridden; NOTE: This information is only used for _display_ purposes: it in no way affects any of the arithmetic of the contract, including {IERC20-balanceOf} and {IERC20-transfer}."
      },
      "decreaseAllowance(address,uint256)": {
        "details": "Atomically decreases the allowance granted to `spender` by the caller. This is an alternative to {approve} that can be used as a mitigation for problems described in {IERC20-approve}. Emits an {Approval} event indicating the updated allowance. Requirements: - `spender` cannot be the zero address. - `spender` must have allowance for the caller of at least `subtractedValue`."
      },
      "increaseAllowance(address,uint256)": {
        "details": "Atomically increases the allowance granted to `spender` by the caller. This is an alternative to {approve} that can be used as a mitigation for problems described in {IERC20-approve}. Emits an {Approval} event indicating the updated allowance. Requirements: - `spender` cannot be the zero address."
      },
      "massUpdate()": {
        "details": "Mass update pools. Only caller is CSTMinter's massUpdateProxy."
      },
      "name()": {
        "details": "Returns the name of the token."
      },
      "owner()": {
        "details": "Returns the address of the current owner."
      },
      "renounceOwnership()": {
        "details": "Leaves the contract without owner. It will not be possible to call `onlyOwner` functions anymore. Can only be called by the current owner. NOTE: Renouncing ownership will leave the contract without an owner, thereby removing any functionality that is only available to the owner."
      },
      "symbol()": {
        "details": "Returns the symbol of the token, usually a shorter version of the name."
      },
      "totalSupply()": {
        "details": "See {IERC20-totalSupply}."
      },
      "transfer(address,uint256)": {
        "details": "See {IERC20-transfer}. Requirements: - `recipient` cannot be the zero address. - the caller must have a balance of at least `amount`."
      },
      "transferFrom(address,address,uint256)": {
        "details": "See {IERC20-transferFrom}. Emits an {Approval} event indicating the updated allowance. This is not required by the EIP. See the note at the beginning of {ERC20}. Requirements: - `sender` and `recipient` cannot be the zero address. - `sender` must have a balance of at least `amount`. - the caller must have allowance for ``sender``'s tokens of at least `amount`."
      },
      "transferOwnership(address)": {
        "details": "Transfers ownership of the contract to a new account (`newOwner`). Can only be called by the current owner."
      }
    },
    "title": "Implement Payment and payment farming.",
    "version": 1
  },
  "userdoc": {
    "kind": "user",
    "methods": {
      "addCoins(address,uint32)": {
        "notice": "Add coins supported."
      },
      "getUserReward(address)": {
        "notice": "Get rewards from users in the current pool"
      },
      "pay(address,address,uint256)": {
        "notice": "Only pay, no need swap."
      },
      "payWithSwap(address,address,uint256,uint256,address)": {
        "notice": "Pay, and use swap."
      },
      "removeCoins(address)": {
        "notice": "Remove coins from supported."
      },
      "withdrawReward()": {
        "notice": "The user withdraws all the payment rewards"
      }
    },
    "version": 1
  }
}