{
  "contractName": "PaymentFarmingProxy",
  "abi": [
    {
      "inputs": [
        {
          "internalType": "string",
          "name": "_name",
          "type": "string"
        },
        {
          "internalType": "string",
          "name": "_symbol",
          "type": "string"
        },
        {
          "internalType": "address",
          "name": "_owner",
          "type": "address"
        },
        {
          "internalType": "address",
          "name": "_dev",
          "type": "address"
        }
      ],
      "stateMutability": "nonpayable",
      "type": "constructor"
    },
    {
      "anonymous": false,
      "inputs": [
        {
          "indexed": false,
          "internalType": "address",
          "name": "_coin",
          "type": "address"
        },
        {
          "indexed": false,
          "internalType": "uint32",
          "name": "index",
          "type": "uint32"
        }
      ],
      "name": "AddCoins",
      "type": "event"
    },
    {
      "anonymous": false,
      "inputs": [
        {
          "indexed": true,
          "internalType": "address",
          "name": "owner",
          "type": "address"
        },
        {
          "indexed": true,
          "internalType": "address",
          "name": "spender",
          "type": "address"
        },
        {
          "indexed": false,
          "internalType": "uint256",
          "name": "value",
          "type": "uint256"
        }
      ],
      "name": "Approval",
      "type": "event"
    },
    {
      "anonymous": false,
      "inputs": [
        {
          "indexed": true,
          "internalType": "address",
          "name": "previousOwner",
          "type": "address"
        },
        {
          "indexed": true,
          "internalType": "address",
          "name": "newOwner",
          "type": "address"
        }
      ],
      "name": "OwnershipTransferred",
      "type": "event"
    },
    {
      "anonymous": false,
      "inputs": [
        {
          "indexed": false,
          "internalType": "address",
          "name": "payToken",
          "type": "address"
        },
        {
          "indexed": false,
          "internalType": "address",
          "name": "receiptToken",
          "type": "address"
        },
        {
          "indexed": false,
          "internalType": "address",
          "name": "payer",
          "type": "address"
        },
        {
          "indexed": false,
          "internalType": "address",
          "name": "recipt",
          "type": "address"
        }
      ],
      "name": "Pay",
      "type": "event"
    },
    {
      "anonymous": false,
      "inputs": [
        {
          "indexed": false,
          "internalType": "address",
          "name": "_coin",
          "type": "address"
        }
      ],
      "name": "RemoveCoins",
      "type": "event"
    },
    {
      "anonymous": false,
      "inputs": [
        {
          "indexed": false,
          "internalType": "address",
          "name": "_dev",
          "type": "address"
        }
      ],
      "name": "SetDev",
      "type": "event"
    },
    {
      "anonymous": false,
      "inputs": [
        {
          "indexed": false,
          "internalType": "contract ICSTMinter",
          "name": "_minter",
          "type": "address"
        }
      ],
      "name": "SetMinter",
      "type": "event"
    },
    {
      "anonymous": false,
      "inputs": [
        {
          "indexed": false,
          "internalType": "uint256",
          "name": "_fee",
          "type": "uint256"
        }
      ],
      "name": "SetPaymentFee",
      "type": "event"
    },
    {
      "anonymous": false,
      "inputs": [
        {
          "indexed": false,
          "internalType": "contract ICStablePool",
          "name": "_pool",
          "type": "address"
        }
      ],
      "name": "SetPool",
      "type": "event"
    },
    {
      "anonymous": false,
      "inputs": [
        {
          "indexed": false,
          "internalType": "contract ICSTToken",
          "name": "_token",
          "type": "address"
        }
      ],
      "name": "SetToken",
      "type": "event"
    },
    {
      "anonymous": false,
      "inputs": [
        {
          "indexed": true,
          "internalType": "address",
          "name": "from",
          "type": "address"
        },
        {
          "indexed": true,
          "internalType": "address",
          "name": "to",
          "type": "address"
        },
        {
          "indexed": false,
          "internalType": "uint256",
          "name": "value",
          "type": "uint256"
        }
      ],
      "name": "Transfer",
      "type": "event"
    },
    {
      "anonymous": false,
      "inputs": [
        {
          "indexed": false,
          "internalType": "uint256",
          "name": "_quantity",
          "type": "uint256"
        },
        {
          "indexed": false,
          "internalType": "uint256",
          "name": "_totalQuantity",
          "type": "uint256"
        },
        {
          "indexed": false,
          "internalType": "uint256",
          "name": "_userReward",
          "type": "uint256"
        }
      ],
      "name": "WithdrawReward",
      "type": "event"
    },
    {
      "inputs": [
        {
          "internalType": "address",
          "name": "owner",
          "type": "address"
        },
        {
          "internalType": "address",
          "name": "spender",
          "type": "address"
        }
      ],
      "name": "allowance",
      "outputs": [
        {
          "internalType": "uint256",
          "name": "",
          "type": "uint256"
        }
      ],
      "stateMutability": "view",
      "type": "function",
      "constant": true
    },
    {
      "inputs": [
        {
          "internalType": "address",
          "name": "spender",
          "type": "address"
        },
        {
          "internalType": "uint256",
          "name": "amount",
          "type": "uint256"
        }
      ],
      "name": "approve",
      "outputs": [
        {
          "internalType": "bool",
          "name": "",
          "type": "bool"
        }
      ],
      "stateMutability": "nonpayable",
      "type": "function"
    },
    {
      "inputs": [
        {
          "internalType": "address",
          "name": "account",
          "type": "address"
        }
      ],
      "name": "balanceOf",
      "outputs": [
        {
          "internalType": "uint256",
          "name": "",
          "type": "uint256"
        }
      ],
      "stateMutability": "view",
      "type": "function",
      "constant": true
    },
    {
      "inputs": [],
      "name": "bstMinter",
      "outputs": [
        {
          "internalType": "contract ICSTMinter",
          "name": "",
          "type": "address"
        }
      ],
      "stateMutability": "view",
      "type": "function",
      "constant": true
    },
    {
      "inputs": [
        {
          "internalType": "address",
          "name": "",
          "type": "address"
        }
      ],
      "name": "coins",
      "outputs": [
        {
          "internalType": "uint256",
          "name": "index",
          "type": "uint256"
        },
        {
          "internalType": "bool",
          "name": "available",
          "type": "bool"
        }
      ],
      "stateMutability": "view",
      "type": "function",
      "constant": true
    },
    {
      "inputs": [],
      "name": "decimals",
      "outputs": [
        {
          "internalType": "uint8",
          "name": "",
          "type": "uint8"
        }
      ],
      "stateMutability": "view",
      "type": "function",
      "constant": true
    },
    {
      "inputs": [
        {
          "internalType": "address",
          "name": "spender",
          "type": "address"
        },
        {
          "internalType": "uint256",
          "name": "subtractedValue",
          "type": "uint256"
        }
      ],
      "name": "decreaseAllowance",
      "outputs": [
        {
          "internalType": "bool",
          "name": "",
          "type": "bool"
        }
      ],
      "stateMutability": "nonpayable",
      "type": "function"
    },
    {
      "inputs": [],
      "name": "devAddress",
      "outputs": [
        {
          "internalType": "address",
          "name": "",
          "type": "address"
        }
      ],
      "stateMutability": "view",
      "type": "function",
      "constant": true
    },
    {
      "inputs": [
        {
          "internalType": "address",
          "name": "spender",
          "type": "address"
        },
        {
          "internalType": "uint256",
          "name": "addedValue",
          "type": "uint256"
        }
      ],
      "name": "increaseAllowance",
      "outputs": [
        {
          "internalType": "bool",
          "name": "",
          "type": "bool"
        }
      ],
      "stateMutability": "nonpayable",
      "type": "function"
    },
    {
      "inputs": [],
      "name": "name",
      "outputs": [
        {
          "internalType": "string",
          "name": "",
          "type": "string"
        }
      ],
      "stateMutability": "view",
      "type": "function",
      "constant": true
    },
    {
      "inputs": [],
      "name": "owner",
      "outputs": [
        {
          "internalType": "address",
          "name": "",
          "type": "address"
        }
      ],
      "stateMutability": "view",
      "type": "function",
      "constant": true
    },
    {
      "inputs": [],
      "name": "paymentFee",
      "outputs": [
        {
          "internalType": "uint256",
          "name": "",
          "type": "uint256"
        }
      ],
      "stateMutability": "view",
      "type": "function",
      "constant": true
    },
    {
      "inputs": [],
      "name": "pool",
      "outputs": [
        {
          "internalType": "contract ICStablePool",
          "name": "",
          "type": "address"
        }
      ],
      "stateMutability": "view",
      "type": "function",
      "constant": true
    },
    {
      "inputs": [],
      "name": "renounceOwnership",
      "outputs": [],
      "stateMutability": "nonpayable",
      "type": "function"
    },
    {
      "inputs": [],
      "name": "symbol",
      "outputs": [
        {
          "internalType": "string",
          "name": "",
          "type": "string"
        }
      ],
      "stateMutability": "view",
      "type": "function",
      "constant": true
    },
    {
      "inputs": [],
      "name": "token",
      "outputs": [
        {
          "internalType": "contract ICSTToken",
          "name": "",
          "type": "address"
        }
      ],
      "stateMutability": "view",
      "type": "function",
      "constant": true
    },
    {
      "inputs": [],
      "name": "totalQuantity",
      "outputs": [
        {
          "internalType": "uint256",
          "name": "",
          "type": "uint256"
        }
      ],
      "stateMutability": "view",
      "type": "function",
      "constant": true
    },
    {
      "inputs": [],
      "name": "totalSupply",
      "outputs": [
        {
          "internalType": "uint256",
          "name": "",
          "type": "uint256"
        }
      ],
      "stateMutability": "view",
      "type": "function",
      "constant": true
    },
    {
      "inputs": [
        {
          "internalType": "address",
          "name": "recipient",
          "type": "address"
        },
        {
          "internalType": "uint256",
          "name": "amount",
          "type": "uint256"
        }
      ],
      "name": "transfer",
      "outputs": [
        {
          "internalType": "bool",
          "name": "",
          "type": "bool"
        }
      ],
      "stateMutability": "nonpayable",
      "type": "function"
    },
    {
      "inputs": [
        {
          "internalType": "address",
          "name": "sender",
          "type": "address"
        },
        {
          "internalType": "address",
          "name": "recipient",
          "type": "address"
        },
        {
          "internalType": "uint256",
          "name": "amount",
          "type": "uint256"
        }
      ],
      "name": "transferFrom",
      "outputs": [
        {
          "internalType": "bool",
          "name": "",
          "type": "bool"
        }
      ],
      "stateMutability": "nonpayable",
      "type": "function"
    },
    {
      "inputs": [
        {
          "internalType": "address",
          "name": "newOwner",
          "type": "address"
        }
      ],
      "name": "transferOwnership",
      "outputs": [],
      "stateMutability": "nonpayable",
      "type": "function"
    },
    {
      "inputs": [
        {
          "internalType": "address",
          "name": "",
          "type": "address"
        }
      ],
      "name": "userInfo",
      "outputs": [
        {
          "internalType": "uint256",
          "name": "quantity",
          "type": "uint256"
        },
        {
          "internalType": "uint256",
          "name": "blockNumber",
          "type": "uint256"
        }
      ],
      "stateMutability": "view",
      "type": "function",
      "constant": true
    },
    {
      "inputs": [
        {
          "internalType": "uint256",
          "name": "_fee",
          "type": "uint256"
        }
      ],
      "name": "setPaymentFee",
      "outputs": [],
      "stateMutability": "nonpayable",
      "type": "function"
    },
    {
      "inputs": [
        {
          "internalType": "contract ICSTMinter",
          "name": "_minter",
          "type": "address"
        }
      ],
      "name": "setMinter",
      "outputs": [],
      "stateMutability": "nonpayable",
      "type": "function"
    },
    {
      "inputs": [
        {
          "internalType": "uint256",
          "name": "_allocPoint",
          "type": "uint256"
        }
      ],
      "name": "add",
      "outputs": [],
      "stateMutability": "nonpayable",
      "type": "function"
    },
    {
      "inputs": [
        {
          "internalType": "uint256",
          "name": "_allocPoint",
          "type": "uint256"
        }
      ],
      "name": "set",
      "outputs": [],
      "stateMutability": "nonpayable",
      "type": "function"
    },
    {
      "inputs": [],
      "name": "massUpdate",
      "outputs": [],
      "stateMutability": "nonpayable",
      "type": "function"
    },
    {
      "inputs": [
        {
          "internalType": "address",
          "name": "_dev",
          "type": "address"
        }
      ],
      "name": "setDev",
      "outputs": [],
      "stateMutability": "nonpayable",
      "type": "function"
    },
    {
      "inputs": [
        {
          "internalType": "contract ICSTToken",
          "name": "_token",
          "type": "address"
        }
      ],
      "name": "setToken",
      "outputs": [],
      "stateMutability": "nonpayable",
      "type": "function"
    },
    {
      "inputs": [
        {
          "internalType": "address",
          "name": "_coin",
          "type": "address"
        },
        {
          "internalType": "uint32",
          "name": "index",
          "type": "uint32"
        }
      ],
      "name": "addCoins",
      "outputs": [],
      "stateMutability": "nonpayable",
      "type": "function"
    },
    {
      "inputs": [
        {
          "internalType": "address",
          "name": "_coin",
          "type": "address"
        }
      ],
      "name": "removeCoins",
      "outputs": [],
      "stateMutability": "nonpayable",
      "type": "function"
    },
    {
      "inputs": [
        {
          "internalType": "contract ICStablePool",
          "name": "_pool",
          "type": "address"
        }
      ],
      "name": "setPool",
      "outputs": [],
      "stateMutability": "nonpayable",
      "type": "function"
    },
    {
      "inputs": [
        {
          "internalType": "address",
          "name": "receiptToken",
          "type": "address"
        },
        {
          "internalType": "address",
          "name": "receipt",
          "type": "address"
        },
        {
          "internalType": "uint256",
          "name": "amt",
          "type": "uint256"
        }
      ],
      "name": "pay",
      "outputs": [],
      "stateMutability": "nonpayable",
      "type": "function"
    },
    {
      "inputs": [
        {
          "internalType": "address",
          "name": "payToken",
          "type": "address"
        },
        {
          "internalType": "address",
          "name": "receiptToken",
          "type": "address"
        },
        {
          "internalType": "uint256",
          "name": "payAmt",
          "type": "uint256"
        },
        {
          "internalType": "uint256",
          "name": "receiptAmt",
          "type": "uint256"
        },
        {
          "internalType": "address",
          "name": "receipt",
          "type": "address"
        }
      ],
      "name": "payWithSwap",
      "outputs": [],
      "stateMutability": "nonpayable",
      "type": "function"
    },
    {
      "inputs": [],
      "name": "withdrawReward",
      "outputs": [],
      "stateMutability": "nonpayable",
      "type": "function"
    },
    {
      "inputs": [
        {
          "internalType": "address",
          "name": "_user",
          "type": "address"
        }
      ],
      "name": "getUserReward",
      "outputs": [
        {
          "internalType": "uint256",
          "name": "",
          "type": "uint256"
        }
      ],
      "stateMutability": "view",
      "type": "function",
      "constant": true
    }
  ],
  "bytecode": "0x6080604052660aa87bee5380006007553480156200001c57600080fd5b5060405162002e8238038062002e828339810160408190526200003f9162000342565b83518490849062000058906003906020850190620001d4565b5080516200006e906004906020840190620001d4565b5050506200008b62000085620000f260201b60201c565b620000f6565b6001600160a01b038116620000bd5760405162461bcd60e51b8152600401620000b490620003ce565b60405180910390fd5b620000c88262000148565b600980546001600160a01b0319166001600160a01b039290921691909117905550620004e8915050565b3390565b600580546001600160a01b038381166001600160a01b0319831681179093556040519116919082907f8be0079c531659141344cd1fd0a4f28419497f9722a3daafe3b4186f6b6457e090600090a35050565b62000152620000f2565b6001600160a01b031662000165620001c5565b6001600160a01b0316146200018e5760405162461bcd60e51b8152600401620000b49062000460565b6001600160a01b038116620001b75760405162461bcd60e51b8152600401620000b4906200041a565b620001c281620000f6565b50565b6005546001600160a01b031690565b828054620001e29062000495565b90600052602060002090601f01602090048101928262000206576000855562000251565b82601f106200022157805160ff191683800117855562000251565b8280016001018555821562000251579182015b828111156200025157825182559160200191906001019062000234565b506200025f92915062000263565b5090565b5b808211156200025f576000815560010162000264565b80516001600160a01b03811681146200029257600080fd5b919050565b600082601f830112620002a8578081fd5b81516001600160401b0380821115620002c557620002c5620004d2565b6040516020601f8401601f1916820181018381118382101715620002ed57620002ed620004d2565b604052838252858401810187101562000304578485fd5b8492505b8383101562000327578583018101518284018201529182019162000308565b838311156200033857848185840101525b5095945050505050565b6000806000806080858703121562000358578384fd5b84516001600160401b03808211156200036f578586fd5b6200037d8883890162000297565b9550602087015191508082111562000393578485fd5b50620003a28782880162000297565b935050620003b3604086016200027a565b9150620003c3606086016200027a565b905092959194509250565b6020808252602c908201527f5061796d656e744661726d696e6750726f78793a205f6465762063616e27742060408201526b62652030206164647265737360a01b606082015260800190565b60208082526026908201527f4f776e61626c653a206e6577206f776e657220697320746865207a65726f206160408201526564647265737360d01b606082015260800190565b6020808252818101527f4f776e61626c653a2063616c6c6572206973206e6f7420746865206f776e6572604082015260600190565b600281046001821680620004aa57607f821691505b60208210811415620004cc57634e487b7160e01b600052602260045260246000fd5b50919050565b634e487b7160e01b600052604160045260246000fd5b61298a80620004f86000396000f3fe608060405234801561001057600080fd5b506004361061021c5760003560e01c80637d0f7a8811610125578063c885bc58116100ad578063e3bce7181161007c578063e3bce71814610452578063e51b390a14610465578063f2fde38b1461046d578063fc0c546a14610480578063fca3b5aa146104885761021c565b8063c885bc5814610411578063d477f05f14610419578063dd62ed3e1461042c578063dee7b7b51461043f5761021c565b8063a457c2d7116100f4578063a457c2d7146103bd578063a9059cbb146103d0578063b3d76188146103e3578063c616f412146103f6578063c75ebb82146103fe5761021c565b80637d0f7a88146103845780638da5cb5b146103a55780639254803a146103ad57806395d89b41146103b55761021c565b8063313ce567116101a857806360fe47b11161017757806360fe47b11461033b5780636ef06a081461034e57806370a0823114610356578063715018a6146103695780637c775dd8146103715761021c565b8063313ce567146102f8578063395093511461030d5780633ad10ef6146103205780634437152a146103285761021c565b8063144fa6d7116101ef578063144fa6d71461028757806316f0115b1461029a57806318160ddd146102af5780631959a002146102c457806323b872dd146102e55761021c565b806306fdde031461022157806307d3b6a21461023f578063095ea7b3146102545780631003e2d214610274575b600080fd5b61022961049b565b60405161023691906120fc565b60405180910390f35b61025261024d366004611f0b565b61052d565b005b610267610262366004611f69565b610927565b60405161023691906120f1565b610252610282366004611fe9565b610944565b610252610295366004611e77565b6109ea565b6102a2610aa5565b6040516102369190612056565b6102b7610ab4565b60405161023691906126c3565b6102d76102d2366004611e77565b610aba565b6040516102369291906126f3565b6102676102f3366004611ecb565b610ad3565b610300610b65565b6040516102369190612732565b61026761031b366004611f69565b610b6a565b6102a2610bbe565b610252610336366004611e77565b610bcd565b610252610349366004611fe9565b610c7d565b6102b7610d56565b6102b7610364366004611e77565b610d5c565b610252610d77565b61025261037f366004611f94565b610dc2565b610397610392366004611e77565b610ee9565b6040516102369291906126e3565b6102a2610f05565b610252610f14565b610229610fc3565b6102676103cb366004611f69565b610fd2565b6102676103de366004611f69565b61104b565b6102526103f1366004611ecb565b61105f565b6102b76113a7565b6102b761040c366004611e77565b6113ad565b61025261146e565b610252610427366004611e77565b6115d4565b6102b761043a366004611e93565b611684565b61025261044d366004611fe9565b6116af565b610252610460366004611e77565b611723565b6102a2611816565b61025261047b366004611e77565b611825565b6102a2611893565b610252610496366004611e77565b6118a2565b6060600380546104aa906128ee565b80601f01602080910402602001604051908101604052809291908181526020018280546104d6906128ee565b80156105235780601f106104f857610100808354040283529160200191610523565b820191906000526020600020905b81548152906001019060200180831161050657829003601f168201915b5050505050905090565b836001600160a01b0316856001600160a01b031614156105685760405162461bcd60e51b815260040161055f9061254e565b60405180910390fd5b6008546040516335313c2160e11b81526001600160a01b0390911690636a62784290610598903090600401612056565b602060405180830381600087803b1580156105b257600080fd5b505af11580156105c6573d6000803e3d6000fd5b505050506040513d601f19601f820116820180604052508101906105ea9190612001565b506001600160a01b038086166000908152600d602052604080822054928716825290205461061a87333088611952565b6006546106329088906001600160a01b031687611a42565b6040516370a0823160e01b81526000906001600160a01b038816906370a0823190610661903090600401612056565b60206040518083038186803b15801561067957600080fd5b505afa15801561068d573d6000803e3d6000fd5b505050506040513d601f19601f820116820180604052508101906106b19190612001565b600654604051630b68372160e31b81529192506001600160a01b031690635b41b908906106e890869086908b908b90600401612717565b600060405180830381600087803b15801561070257600080fd5b505af1158015610716573d6000803e3d6000fd5b5050505060006107a282896001600160a01b03166370a08231306040518263ffffffff1660e01b815260040161074c9190612056565b60206040518083038186803b15801561076457600080fd5b505afa158015610778573d6000803e3d6000fd5b505050506040513d601f19601f8201168201806040525081019061079c9190612001565b90611b28565b9050858110156107c45760405162461bcd60e51b815260040161055f90612268565b6000886001600160a01b031663313ce5676040518163ffffffff1660e01b815260040160206040518083038186803b1580156107ff57600080fd5b505afa158015610813573d6000803e3d6000fd5b505050506040513d601f19601f820116820180604052508101906108379190612019565b336000908152600a6020819052604090912060ff9290921692506108849061087c906108649085906127be565b6108768b670de0b6b3a7640000611b34565b90611b40565b825490611b4c565b8155336000908152600a60208190526040909120436001909101556108bb906108b2906108649085906127be565b600b5490611b4c565b600b556108c98a888a611b58565b6108dd8a336108d8868c611b28565b611b58565b7f8049bd343471d985a0a44482e4f7e94d9180cc4c4731c410980f5dd5704899888b8b338a604051610912949392919061206a565b60405180910390a15050505050505050505050565b600061093b610934611c3e565b8484611c42565b50600192915050565b61094c611c3e565b6001600160a01b031661095d610f05565b6001600160a01b0316146109835760405162461bcd60e51b815260040161055f90612364565b600854604051630571777d60e31b81526001600160a01b0390911690632b8bbbe8906109b590849030906004016126cc565b600060405180830381600087803b1580156109cf57600080fd5b505af11580156109e3573d6000803e3d6000fd5b5050505050565b6109f2611c3e565b6001600160a01b0316610a03610f05565b6001600160a01b031614610a295760405162461bcd60e51b815260040161055f90612364565b6001600160a01b038116610a4f5760405162461bcd60e51b815260040161055f9061267c565b600c80546001600160a01b0319166001600160a01b0383161790556040517fefc1fd16ea80a922086ee4e995739d59b025c1bcea6d1f67855747480c83214b90610a9a908390612056565b60405180910390a150565b6006546001600160a01b031681565b60025490565b600a602052600090815260409020805460019091015482565b6000610ae0848484611cf6565b6001600160a01b038416600090815260016020526040812081610b01611c3e565b6001600160a01b03166001600160a01b0316815260200190815260200160002054905082811015610b445760405162461bcd60e51b815260040161055f9061231c565b610b5885610b50611c3e565b858403611c42565b60019150505b9392505050565b601290565b600061093b610b77611c3e565b848460016000610b85611c3e565b6001600160a01b03908116825260208083019390935260409182016000908120918b1681529252902054610bb99190612740565b611c42565b6009546001600160a01b031681565b610bd5611c3e565b6001600160a01b0316610be6610f05565b6001600160a01b031614610c0c5760405162461bcd60e51b815260040161055f90612364565b6001600160a01b038116610c325760405162461bcd60e51b815260040161055f9061267c565b600680546001600160a01b0319166001600160a01b0383161790556040517f67816c9262630d6052ccaada1732fda377aa9e9abb3bc91cfd887a016a18a43a90610a9a908390612056565b610c85611c3e565b6001600160a01b0316610c96610f05565b6001600160a01b031614610cbc5760405162461bcd60e51b815260040161055f90612364565b600860009054906101000a90046001600160a01b03166001600160a01b0316635f386b906040518163ffffffff1660e01b8152600401600060405180830381600087803b158015610d0c57600080fd5b505af1158015610d20573d6000803e3d6000fd5b5050600854604051630704bb0560e31b81526001600160a01b039091169250633825d82891506109b590309085906004016120b9565b60075481565b6001600160a01b031660009081526020819052604090205490565b610d7f611c3e565b6001600160a01b0316610d90610f05565b6001600160a01b031614610db65760405162461bcd60e51b815260040161055f90612364565b610dc06000611e20565b565b610dca611c3e565b6001600160a01b0316610ddb610f05565b6001600160a01b031614610e015760405162461bcd60e51b815260040161055f90612364565b6001600160a01b038216610e275760405162461bcd60e51b815260040161055f9061267c565b6001600160a01b0382166000908152600d602052604090206001015460ff1615610e635760405162461bcd60e51b815260040161055f90612585565b60408051808201825263ffffffff83168152600160208083018281526001600160a01b0387166000908152600d9092529084902092518355519101805460ff1916911515919091179055517f105ebf94dd0a850e02b95d0c48754fe267309ebb490ee3949d49f1090dc989f290610edd90849084906120d2565b60405180910390a15050565b600d602052600090815260409020805460019091015460ff1682565b6005546001600160a01b031690565b6008546001600160a01b03163314610f3e5760405162461bcd60e51b815260040161055f906124fe565b6008546040516335313c2160e11b81526001600160a01b0390911690636a62784290610f6e903090600401612056565b602060405180830381600087803b158015610f8857600080fd5b505af1158015610f9c573d6000803e3d6000fd5b505050506040513d601f19601f82011682018060405250810190610fc09190612001565b50565b6060600480546104aa906128ee565b60008060016000610fe1611c3e565b6001600160a01b039081168252602080830193909352604091820160009081209188168152925290205490508281101561102d5760405162461bcd60e51b815260040161055f90612637565b611041611038611c3e565b85858403611c42565b5060019392505050565b600061093b611058611c3e565b8484611cf6565b6001600160a01b0383166110855760405162461bcd60e51b815260040161055f906123d0565b6001600160a01b0382166110ab5760405162461bcd60e51b815260040161055f90612407565b6001600160a01b0383166000908152600d602052604090206001015460ff166110e65760405162461bcd60e51b815260040161055f90612399565b6040516370a0823160e01b81526001600160a01b038416906370a0823190611112903390600401612056565b60206040518083038186803b15801561112a57600080fd5b505afa15801561113e573d6000803e3d6000fd5b505050506040513d601f19601f820116820180604052508101906111629190612001565b8111156111815760405162461bcd60e51b815260040161055f90612483565b6000836001600160a01b031663313ce5676040518163ffffffff1660e01b815260040160206040518083038186803b1580156111bc57600080fd5b505afa1580156111d0573d6000803e3d6000fd5b505050506040513d601f19601f820116820180604052508101906111f49190612019565b6008546040516335313c2160e11b815260ff9290921692506001600160a01b031690636a6278429061122a903090600401612056565b602060405180830381600087803b15801561124457600080fd5b505af1158015611258573d6000803e3d6000fd5b505050506040513d601f19601f8201168201806040525081019061127c9190612001565b5060006112a0670de0b6b3a764000061087660075486611b3490919063ffffffff16565b336000908152600a602081905260409091209192506112fe9061087c906112de906112cc9087906127be565b61087686670de0b6b3a7640000611b34565b61079c6112ec87600a6127be565b61087689670de0b6b3a7640000611b34565b8155336000908152600a6020819052604090912043600190910155611330906108b2906112de906112cc9087906127be565b600b5560095461134d90879033906001600160a01b031685611952565b61136286338761135d8887611b28565b611952565b7f8049bd343471d985a0a44482e4f7e94d9180cc4c4731c410980f5dd57048998886873388604051611397949392919061206a565b60405180910390a1505050505050565b600b5481565b6001600160a01b0381166000908152600a602052604081208054600b5483901561146657600b54600c546040516370a0823160e01b815261146392916108769186916001600160a01b0316906370a082319061140d903090600401612056565b60206040518083038186803b15801561142557600080fd5b505afa158015611439573d6000803e3d6000fd5b505050506040513d601f19601f8201168201806040525081019061145d9190612001565b90611b34565b90505b949350505050565b336000908152600a602052604090208054600b548161149f5760405162461bcd60e51b815260040161055f90612600565b6008546040516335313c2160e11b81526001600160a01b0390911690636a627842906114cf903090600401612056565b602060405180830381600087803b1580156114e957600080fd5b505af11580156114fd573d6000803e3d6000fd5b505050506040513d601f19601f820116820180604052508101906115219190612001565b50600c546040516370a0823160e01b815260009161155f9184916108769187916001600160a01b0316906370a082319061140d903090600401612056565b60008555436001860155600b549091506115799084611b28565b600b55600c54611593906001600160a01b03163383611b58565b7fd3fb528e913f4bbf4dce5c74bea05df6ad20573463aceba438f2747fdc8d1ab68383836040516115c693929190612701565b60405180910390a150505050565b6115dc611c3e565b6001600160a01b03166115ed610f05565b6001600160a01b0316146116135760405162461bcd60e51b815260040161055f90612364565b6001600160a01b0381166116395760405162461bcd60e51b815260040161055f9061267c565b600980546001600160a01b0319166001600160a01b0383161790556040517f8daa6bb00de042a7d51816fcee4a3d5c1e91a2128fd64fa1a9a38afa0d26beb590610a9a908390612056565b6001600160a01b03918216600090815260016020908152604080832093909416825291909152205490565b6116b7611c3e565b6001600160a01b03166116c8610f05565b6001600160a01b0316146116ee5760405162461bcd60e51b815260040161055f90612364565b60078190556040517f0ba1a395bffa0247eabada1d9f74ddd223a25b0f285cf799bd37d9306a27c40290610a9a9083906126c3565b61172b611c3e565b6001600160a01b031661173c610f05565b6001600160a01b0316146117625760405162461bcd60e51b815260040161055f90612364565b6001600160a01b0381166117885760405162461bcd60e51b815260040161055f9061267c565b6001600160a01b0381166000908152600d602052604090206001015460ff166117c35760405162461bcd60e51b815260040161055f90612231565b6001600160a01b0381166000908152600d602052604090819020600101805460ff19169055517fc0d90ee5f61611fa06580819f6c6b6a0edad1297b422e279dc926d3249d891a190610a9a908390612056565b6008546001600160a01b031681565b61182d611c3e565b6001600160a01b031661183e610f05565b6001600160a01b0316146118645760405162461bcd60e51b815260040161055f90612364565b6001600160a01b03811661188a5760405162461bcd60e51b815260040161055f906121a9565b610fc081611e20565b600c546001600160a01b031681565b6118aa611c3e565b6001600160a01b03166118bb610f05565b6001600160a01b0316146118e15760405162461bcd60e51b815260040161055f90612364565b6001600160a01b0381166119075760405162461bcd60e51b815260040161055f9061267c565b600880546001600160a01b0319166001600160a01b0383161790556040517fcec52196e972044edde8689a1b608e459c5946b7f3e5c8cd3d6d8e126d422e1c90610a9a908390612056565b600080856001600160a01b03166323b872dd86868660405160240161197993929190612095565b6040516020818303038152906040529060e01b6020820180516001600160e01b0383818316178352505050506040516119b2919061203a565b6000604051808303816000865af19150503d80600081146119ef576040519150601f19603f3d011682016040523d82523d6000602084013e6119f4565b606091505b5091509150818015611a1e575080511580611a1e575080806020019051810190611a1e9190611fc9565b611a3a5760405162461bcd60e51b815260040161055f906125bc565b505050505050565b600080846001600160a01b031663095ea7b38585604051602401611a679291906120b9565b6040516020818303038152906040529060e01b6020820180516001600160e01b038381831617835250505050604051611aa0919061203a565b6000604051808303816000865af19150503d8060008114611add576040519150601f19603f3d011682016040523d82523d6000602084013e611ae2565b606091505b5091509150818015611b0c575080511580611b0c575080806020019051810190611b0c9190611fc9565b6109e35760405162461bcd60e51b815260040161055f9061229f565b6000610b5e82846128ab565b6000610b5e828461288c565b6000610b5e8284612758565b6000610b5e8284612740565b600080846001600160a01b031663a9059cbb8585604051602401611b7d9291906120b9565b6040516020818303038152906040529060e01b6020820180516001600160e01b038381831617835250505050604051611bb6919061203a565b6000604051808303816000865af19150503d8060008114611bf3576040519150601f19603f3d011682016040523d82523d6000602084013e611bf8565b606091505b5091509150818015611c22575080511580611c22575080806020019051810190611c229190611fc9565b6109e35760405162461bcd60e51b815260040161055f90612172565b3390565b6001600160a01b038316611c685760405162461bcd60e51b815260040161055f906124ba565b6001600160a01b038216611c8e5760405162461bcd60e51b815260040161055f906121ef565b6001600160a01b0380841660008181526001602090815260408083209487168084529490915290819020849055517f8c5be1e5ebec7d5bd14f71427d1e84f3dd0314c0f7b2291e5b200ac8c7c3b92590611ce99085906126c3565b60405180910390a3505050565b6001600160a01b038316611d1c5760405162461bcd60e51b815260040161055f9061243e565b6001600160a01b038216611d425760405162461bcd60e51b815260040161055f9061212f565b611d4d838383611e72565b6001600160a01b03831660009081526020819052604090205481811015611d865760405162461bcd60e51b815260040161055f906122d6565b6001600160a01b03808516600090815260208190526040808220858503905591851681529081208054849290611dbd908490612740565b92505081905550826001600160a01b0316846001600160a01b03167fddf252ad1be2c89b69c2b068fc378daa952ba7f163c4a11628f55a4df523b3ef84604051611e0791906126c3565b60405180910390a3611e1a848484611e72565b50505050565b600580546001600160a01b038381166001600160a01b0319831681179093556040519116919082907f8be0079c531659141344cd1fd0a4f28419497f9722a3daafe3b4186f6b6457e090600090a35050565b505050565b600060208284031215611e88578081fd5b8135610b5e8161293f565b60008060408385031215611ea5578081fd5b8235611eb08161293f565b91506020830135611ec08161293f565b809150509250929050565b600080600060608486031215611edf578081fd5b8335611eea8161293f565b92506020840135611efa8161293f565b929592945050506040919091013590565b600080600080600060a08688031215611f22578081fd5b8535611f2d8161293f565b94506020860135611f3d8161293f565b935060408601359250606086013591506080860135611f5b8161293f565b809150509295509295909350565b60008060408385031215611f7b578182fd5b8235611f868161293f565b946020939093013593505050565b60008060408385031215611fa6578182fd5b8235611fb18161293f565b9150602083013563ffffffff81168114611ec0578182fd5b600060208284031215611fda578081fd5b81518015158114610b5e578182fd5b600060208284031215611ffa578081fd5b5035919050565b600060208284031215612012578081fd5b5051919050565b60006020828403121561202a578081fd5b815160ff81168114610b5e578182fd5b6000825161204c8184602087016128c2565b9190910192915050565b6001600160a01b0391909116815260200190565b6001600160a01b03948516815292841660208401529083166040830152909116606082015260800190565b6001600160a01b039384168152919092166020820152604081019190915260600190565b6001600160a01b03929092168252602082015260400190565b6001600160a01b0392909216825263ffffffff16602082015260400190565b901515815260200190565b600060208252825180602084015261211b8160408501602087016128c2565b601f01601f19169190910160400192915050565b60208082526023908201527f45524332303a207472616e7366657220746f20746865207a65726f206164647260408201526265737360e81b606082015260800190565b6020808252601f908201527f5472616e7366657248656c7065723a205452414e534645525f4641494c454400604082015260600190565b60208082526026908201527f4f776e61626c653a206e6577206f776e657220697320746865207a65726f206160408201526564647265737360d01b606082015260800190565b60208082526022908201527f45524332303a20617070726f766520746f20746865207a65726f206164647265604082015261737360f01b606082015260800190565b60208082526018908201527f5061796d656e743a20636f696e206e6f206578697374732e0000000000000000604082015260600190565b6020808252601f908201527f5061796d656e743a207377617020616d7420696e73756666696369656e742e00604082015260600190565b6020808252601e908201527f5472616e7366657248656c7065723a20415050524f56455f4641494c45440000604082015260600190565b60208082526026908201527f45524332303a207472616e7366657220616d6f756e7420657863656564732062604082015265616c616e636560d01b606082015260800190565b60208082526028908201527f45524332303a207472616e7366657220616d6f756e74206578636565647320616040820152676c6c6f77616e636560c01b606082015260800190565b6020808252818101527f4f776e61626c653a2063616c6c6572206973206e6f7420746865206f776e6572604082015260600190565b60208082526019908201527f5061796d656e743a20746f6b656e206e6f206578697374732e00000000000000604082015260600190565b6020808252601f908201527f5061796d656e743a72656365697074546f6b656e2063616e2774206265203000604082015260600190565b6020808252601a908201527f5061796d656e743a726563656970742063616e27742062652030000000000000604082015260600190565b60208082526025908201527f45524332303a207472616e736665722066726f6d20746865207a65726f206164604082015264647265737360d81b606082015260800190565b6020808252601e908201527f5061796d656e743a20696e73756666696369656e742062616c616e63652e0000604082015260600190565b60208082526024908201527f45524332303a20617070726f76652066726f6d20746865207a65726f206164646040820152637265737360e01b606082015260800190565b60208082526030908201527f5061796d656e744661726d696e6750726f78793a2063616c6c6572206973206e60408201526f37ba103a3432903139ba26b4b73a32b960811b606082015260800190565b60208082526018908201527f5061796d656e743a207468652073616d6520746f6b656e2e0000000000000000604082015260600190565b6020808252601b908201527f5061796d656e743a20636f696e732064756d706c6963617465642e0000000000604082015260600190565b60208082526024908201527f5472616e7366657248656c7065723a205452414e534645525f46524f4d5f46416040820152631253115160e21b606082015260800190565b6020808252601d908201527f5061796d656e743a206e6f207061796d656e74207175616e746974792e000000604082015260600190565b60208082526025908201527f45524332303a2064656372656173656420616c6c6f77616e63652062656c6f77604082015264207a65726f60d81b606082015260800190565b60208082526027908201527f5061796d656e744661726d696e6750726f78793a2063616e27742062652030206040820152666164647265737360c81b606082015260800190565b90815260200190565b9182526001600160a01b0316602082015260400190565b9182521515602082015260400190565b918252602082015260400190565b9283526020830191909152604082015260600190565b93845260208401929092526040830152606082015260800190565b60ff91909116815260200190565b6000821982111561275357612753612929565b500190565b60008261277357634e487b7160e01b81526012600452602481fd5b500490565b80825b600180861161278a57506127b5565b81870482111561279c5761279c612929565b808616156127a957918102915b9490941c93800261277b565b94509492505050565b6000610b5e60001984846000826127d757506001610b5e565b816127e457506000610b5e565b81600181146127fa576002811461280457612831565b6001915050610b5e565b60ff84111561281557612815612929565b6001841b91508482111561282b5761282b612929565b50610b5e565b5060208310610133831016604e8410600b8410161715612864575081810a8381111561285f5761285f612929565b610b5e565b6128718484846001612778565b80860482111561288357612883612929565b02949350505050565b60008160001904831182151516156128a6576128a6612929565b500290565b6000828210156128bd576128bd612929565b500390565b60005b838110156128dd5781810151838201526020016128c5565b83811115611e1a5750506000910152565b60028104600182168061290257607f821691505b6020821081141561292357634e487b7160e01b600052602260045260246000fd5b50919050565b634e487b7160e01b600052601160045260246000fd5b6001600160a01b0381168114610fc057600080fdfea2646970667358221220591035147385f3f27c0f18a50d8070ed2b584afda8dab7a5add2ba27091bb64c64736f6c63430008000033",
  "immutableReferences": {},
  "source": "// SPDX-License-Identifier: MIT\n\npragma solidity ^0.8.0;\n\nimport \"@openzeppelin/contracts/token/ERC20/IERC20.sol\";\nimport \"@openzeppelin/contracts/token/ERC20/ERC20.sol\";\nimport \"./interfaces/ICSTMinter.sol\";\nimport \"./interfaces/ICStablePool.sol\";\nimport \"./interfaces/ICSTToken.sol\";\nimport \"./interfaces/ICSTFarmingProxy.sol\";\nimport \"@openzeppelin/contracts/utils/math/SafeMath.sol\";\nimport \"@openzeppelin/contracts/access/Ownable.sol\";\nimport \"@openzeppelin/contracts/token/ERC20/ERC20.sol\";\nimport \"./lib/TransferHelper.sol\";\n\n/// @title Implement Payment and payment farming.\ncontract PaymentFarmingProxy is ERC20, Ownable, ICSTFarmingProxy {\n    using SafeMath for uint256;\n\n    ICStablePool public pool;\n\n    uint256 public paymentFee = 3_000_000_000_000_000;\n\n    ICSTMinter public bstMinter;\n\n    address public devAddress;\n\n    struct UserInfo {\n        uint256 quantity; // user's volume\n        uint256 blockNumber; // Last transaction block\n    }\n\n    mapping(address => UserInfo) public userInfo;\n\n    uint256 public totalQuantity;\n\n    ICSTToken public token;\n\n    struct CoinInfo {\n        uint256 index;\n        bool available;\n    }\n    mapping(address => CoinInfo) public coins;\n\n    modifier onlyMinter() {\n        require(\n            address(bstMinter) == msg.sender,\n            \"PaymentFarmingProxy: caller is not the bstMinter\"\n        );\n        _;\n    }\n\n    event SetPaymentFee(uint256 _fee);\n    event SetMinter(ICSTMinter _minter);\n    event SetDev(address _dev);\n    event SetToken(ICSTToken _token);\n    event AddCoins(address _coin, uint32 index);\n    event RemoveCoins(address _coin);\n    event SetPool(ICStablePool _pool);\n    event Pay(\n        address payToken,\n        address receiptToken,\n        address payer,\n        address recipt\n    );\n\n    event WithdrawReward(\n        uint256 _quantity,\n        uint256 _totalQuantity,\n        uint256 _userReward\n    );\n\n    constructor(\n        string memory _name,\n        string memory _symbol,\n        address _owner,\n        address _dev\n    ) ERC20(_name, _symbol) {\n        require(\n            _dev != address(0),\n            \"PaymentFarmingProxy: _dev can't be 0 address\"\n        );\n        transferOwnership(_owner);\n        devAddress = _dev;\n    }\n\n    function setPaymentFee(uint256 _fee) public onlyOwner {\n        paymentFee = _fee;\n        emit SetPaymentFee(_fee);\n    }\n\n    function setMinter(ICSTMinter _minter) public onlyOwner {\n        require(\n            address(_minter) != address(0),\n            \"PaymentFarmingProxy: can't be 0 address\"\n        );\n        bstMinter = _minter;\n        emit SetMinter(_minter);\n    }\n\n    function add(uint256 _allocPoint) public onlyOwner {\n        bstMinter.add(_allocPoint, address(this));\n    }\n\n    function set(uint256 _allocPoint) public onlyOwner {\n        bstMinter.massUpdateProxy();\n        bstMinter.set(address(this), _allocPoint);\n    }\n\n    /// @dev Mass update pools. Only caller is CSTMinter's massUpdateProxy.\n    function massUpdate() public override onlyMinter {\n        bstMinter.mint(address(this));\n    }\n\n    function setDev(address _dev) public onlyOwner {\n        require(_dev != address(0), \"PaymentFarmingProxy: can't be 0 address\");\n        devAddress = _dev;\n        emit SetDev(_dev);\n    }\n\n    function setToken(ICSTToken _token) public onlyOwner {\n        require(\n            address(_token) != address(0),\n            \"PaymentFarmingProxy: can't be 0 address\"\n        );\n        token = _token;\n        emit SetToken(_token);\n    }\n\n    /// @notice Add coins supported.\n    function addCoins(address _coin, uint32 index) public onlyOwner {\n        require(_coin != address(0), \"PaymentFarmingProxy: can't be 0 address\");\n        require(!coins[_coin].available, \"Payment: coins dumplicated.\");\n        coins[_coin] = CoinInfo({index: index, available: true});\n        emit AddCoins(_coin, index);\n    }\n\n    /// @notice Remove coins from supported.\n    function removeCoins(address _coin) public onlyOwner {\n        require(_coin != address(0), \"PaymentFarmingProxy: can't be 0 address\");\n        require(coins[_coin].available, \"Payment: coin no exists.\");\n        coins[_coin].available = false;\n        emit RemoveCoins(_coin);\n    }\n\n    function setPool(ICStablePool _pool) public onlyOwner {\n        require(\n            address(_pool) != address(0),\n            \"PaymentFarmingProxy: can't be 0 address\"\n        );\n        pool = _pool;\n        emit SetPool(_pool);\n    }\n\n    /// @notice Only pay, no need swap.\n    function pay(\n        address receiptToken,\n        address receipt,\n        uint256 amt\n    ) external {\n        require(receiptToken != address(0), \"Payment:receiptToken can't be 0\");\n        require(receipt != address(0), \"Payment:receipt can't be 0\");\n        require(coins[receiptToken].available, \"Payment: token no exists.\");\n        require(\n            amt <= IERC20(receiptToken).balanceOf(msg.sender),\n            \"Payment: insufficient balance.\"\n        );\n        uint256 decimals = ERC20(receiptToken).decimals();\n        bstMinter.mint(address(this));\n        uint256 fee = amt.mul(paymentFee).div(10**18);\n        UserInfo storage user = userInfo[msg.sender];\n        user.quantity = user.quantity.add(\n            amt.mul(10**18).div(10**decimals).sub(\n                fee.mul(10**18).div(10**decimals)\n            )\n        );\n        userInfo[msg.sender].blockNumber = block.number;\n        totalQuantity = totalQuantity.add(\n            amt.mul(10**18).div(10**decimals).sub(\n                fee.mul(10**18).div(10**decimals)\n            )\n        );\n        TransferHelper.safeTransferFrom(\n            receiptToken,\n            msg.sender,\n            devAddress,\n            fee\n        );\n        TransferHelper.safeTransferFrom(\n            receiptToken,\n            msg.sender,\n            receipt,\n            amt.sub(fee)\n        );\n        emit Pay(receiptToken, receiptToken, msg.sender, receipt);\n    }\n\n    /// @notice Pay, and use swap.\n    function payWithSwap(\n        address payToken,\n        address receiptToken,\n        uint256 payAmt,\n        uint256 receiptAmt,\n        address receipt\n    ) external {\n        require(payToken != receiptToken, \"Payment: the same token.\");\n        bstMinter.mint(address(this));\n        uint256 i = coins[payToken].index;\n        uint256 j = coins[receiptToken].index;\n        TransferHelper.safeTransferFrom(\n            payToken,\n            msg.sender,\n            address(this),\n            payAmt\n        );\n        TransferHelper.safeApprove(payToken, address(pool), payAmt);\n        uint256 _originalBalance = IERC20(receiptToken).balanceOf(\n            address(this)\n        );\n        pool.exchange(i, j, payAmt, receiptAmt);\n        uint256 returnAmt = IERC20(receiptToken).balanceOf(address(this)).sub(\n            _originalBalance\n        );\n        require(returnAmt >= receiptAmt, \"Payment: swap amt insufficient.\");\n        uint256 decimals = ERC20(receiptToken).decimals();\n        UserInfo storage user = userInfo[msg.sender];\n        user.quantity = user.quantity.add(\n            receiptAmt.mul(10**18).div(10**decimals)\n        );\n        userInfo[msg.sender].blockNumber = block.number;\n        totalQuantity = totalQuantity.add(\n            receiptAmt.mul(10**18).div(10**decimals)\n        );\n        TransferHelper.safeTransfer(receiptToken, receipt, receiptAmt);\n        TransferHelper.safeTransfer(\n            receiptToken,\n            msg.sender,\n            returnAmt.sub(receiptAmt)\n        );\n        emit Pay(payToken, receiptToken, msg.sender, receipt);\n    }\n\n    /// @notice The user withdraws all the payment rewards\n    function withdrawReward() public {\n        UserInfo storage user = userInfo[msg.sender];\n        uint256 _quantity = user.quantity;\n        uint256 _totalQuantity = totalQuantity;\n        require(user.quantity > 0, \"Payment: no payment quantity.\");\n        bstMinter.mint(address(this));\n        uint256 userReward = token.balanceOf(address(this)).mul(_quantity).div(\n            _totalQuantity\n        );\n        user.quantity = 0;\n        user.blockNumber = block.number;\n        totalQuantity = totalQuantity.sub(_quantity);\n        TransferHelper.safeTransfer(address(token), msg.sender, userReward);\n        emit WithdrawReward(_quantity, _totalQuantity, userReward);\n    }\n\n    /// @notice Get rewards from users in the current pool\n    function getUserReward(address _user) public view returns (uint256) {\n        UserInfo storage user = userInfo[_user];\n        uint256 _quantity = user.quantity;\n        uint256 userReward = 0;\n        if (totalQuantity > 0) {\n            userReward = token.balanceOf(address(this)).mul(_quantity).div(\n                totalQuantity\n            );\n        }\n        return userReward;\n    }\n}\n",
  "sourcePath": "/Users/admin/github.com/0xd5A1/cstable-contracts/contracts/PaymentFarmingProxy.sol",
  "compiler": {
    "name": "solc",
    "version": "0.8.0+commit.c7dfd78e.Emscripten.clang"
  },
  "schemaVersion": "3.4.3",
  "updatedAt": "2022-03-10T00:55:27.801Z",
  "networkType": "ethereum",
  "devdoc": {
    "kind": "dev",
    "methods": {
      "allowance(address,address)": {
        "details": "See {IERC20-allowance}."
      },
      "approve(address,uint256)": {
        "details": "See {IERC20-approve}. Requirements: - `spender` cannot be the zero address."
      },
      "balanceOf(address)": {
        "details": "See {IERC20-balanceOf}."
      },
      "decimals()": {
        "details": "Returns the number of decimals used to get its user representation. For example, if `decimals` equals `2`, a balance of `505` tokens should be displayed to a user as `5.05` (`505 / 10 ** 2`). Tokens usually opt for a value of 18, imitating the relationship between Ether and Wei. This is the value {ERC20} uses, unless this function is overridden; NOTE: This information is only used for _display_ purposes: it in no way affects any of the arithmetic of the contract, including {IERC20-balanceOf} and {IERC20-transfer}."
      },
      "decreaseAllowance(address,uint256)": {
        "details": "Atomically decreases the allowance granted to `spender` by the caller. This is an alternative to {approve} that can be used as a mitigation for problems described in {IERC20-approve}. Emits an {Approval} event indicating the updated allowance. Requirements: - `spender` cannot be the zero address. - `spender` must have allowance for the caller of at least `subtractedValue`."
      },
      "increaseAllowance(address,uint256)": {
        "details": "Atomically increases the allowance granted to `spender` by the caller. This is an alternative to {approve} that can be used as a mitigation for problems described in {IERC20-approve}. Emits an {Approval} event indicating the updated allowance. Requirements: - `spender` cannot be the zero address."
      },
      "massUpdate()": {
        "details": "Mass update pools. Only caller is CSTMinter's massUpdateProxy."
      },
      "name()": {
        "details": "Returns the name of the token."
      },
      "owner()": {
        "details": "Returns the address of the current owner."
      },
      "renounceOwnership()": {
        "details": "Leaves the contract without owner. It will not be possible to call `onlyOwner` functions anymore. Can only be called by the current owner. NOTE: Renouncing ownership will leave the contract without an owner, thereby removing any functionality that is only available to the owner."
      },
      "symbol()": {
        "details": "Returns the symbol of the token, usually a shorter version of the name."
      },
      "totalSupply()": {
        "details": "See {IERC20-totalSupply}."
      },
      "transfer(address,uint256)": {
        "details": "See {IERC20-transfer}. Requirements: - `recipient` cannot be the zero address. - the caller must have a balance of at least `amount`."
      },
      "transferFrom(address,address,uint256)": {
        "details": "See {IERC20-transferFrom}. Emits an {Approval} event indicating the updated allowance. This is not required by the EIP. See the note at the beginning of {ERC20}. Requirements: - `sender` and `recipient` cannot be the zero address. - `sender` must have a balance of at least `amount`. - the caller must have allowance for ``sender``'s tokens of at least `amount`."
      },
      "transferOwnership(address)": {
        "details": "Transfers ownership of the contract to a new account (`newOwner`). Can only be called by the current owner."
      }
    },
    "title": "Implement Payment and payment farming.",
    "version": 1
  },
  "userdoc": {
    "kind": "user",
    "methods": {
      "addCoins(address,uint32)": {
        "notice": "Add coins supported."
      },
      "getUserReward(address)": {
        "notice": "Get rewards from users in the current pool"
      },
      "pay(address,address,uint256)": {
        "notice": "Only pay, no need swap."
      },
      "payWithSwap(address,address,uint256,uint256,address)": {
        "notice": "Pay, and use swap."
      },
      "removeCoins(address)": {
        "notice": "Remove coins from supported."
      },
      "withdrawReward()": {
        "notice": "The user withdraws all the payment rewards"
      }
    },
    "version": 1
  }
}