{
  "contractName": "TimeLock",
  "abi": [
    {
      "inputs": [
        {
          "internalType": "address",
          "name": "_beneficiary",
          "type": "address"
        },
        {
          "internalType": "address",
          "name": "_token",
          "type": "address"
        },
        {
          "internalType": "uint256",
          "name": "_startTime",
          "type": "uint256"
        },
        {
          "internalType": "uint256",
          "name": "_delay",
          "type": "uint256"
        }
      ],
      "stateMutability": "nonpayable",
      "type": "constructor"
    },
    {
      "anonymous": false,
      "inputs": [
        {
          "indexed": true,
          "internalType": "address",
          "name": "operator",
          "type": "address"
        },
        {
          "indexed": true,
          "internalType": "address",
          "name": "to",
          "type": "address"
        },
        {
          "indexed": false,
          "internalType": "uint256",
          "name": "amount",
          "type": "uint256"
        }
      ],
      "name": "WithDraw",
      "type": "event"
    },
    {
      "inputs": [],
      "name": "CYCLE_TIMES",
      "outputs": [
        {
          "internalType": "uint256",
          "name": "",
          "type": "uint256"
        }
      ],
      "stateMutability": "view",
      "type": "function"
    },
    {
      "inputs": [],
      "name": "PERIOD",
      "outputs": [
        {
          "internalType": "uint256",
          "name": "",
          "type": "uint256"
        }
      ],
      "stateMutability": "view",
      "type": "function"
    },
    {
      "inputs": [],
      "name": "beneficiary",
      "outputs": [
        {
          "internalType": "address",
          "name": "",
          "type": "address"
        }
      ],
      "stateMutability": "view",
      "type": "function"
    },
    {
      "inputs": [],
      "name": "cycle",
      "outputs": [
        {
          "internalType": "uint256",
          "name": "",
          "type": "uint256"
        }
      ],
      "stateMutability": "view",
      "type": "function"
    },
    {
      "inputs": [],
      "name": "delay",
      "outputs": [
        {
          "internalType": "uint256",
          "name": "",
          "type": "uint256"
        }
      ],
      "stateMutability": "view",
      "type": "function"
    },
    {
      "inputs": [],
      "name": "fixedQuantity",
      "outputs": [
        {
          "internalType": "uint256",
          "name": "",
          "type": "uint256"
        }
      ],
      "stateMutability": "view",
      "type": "function"
    },
    {
      "inputs": [],
      "name": "hasReward",
      "outputs": [
        {
          "internalType": "uint256",
          "name": "",
          "type": "uint256"
        }
      ],
      "stateMutability": "view",
      "type": "function"
    },
    {
      "inputs": [],
      "name": "name",
      "outputs": [
        {
          "internalType": "string",
          "name": "",
          "type": "string"
        }
      ],
      "stateMutability": "view",
      "type": "function"
    },
    {
      "inputs": [],
      "name": "startTime",
      "outputs": [
        {
          "internalType": "uint256",
          "name": "",
          "type": "uint256"
        }
      ],
      "stateMutability": "view",
      "type": "function"
    },
    {
      "inputs": [],
      "name": "symbol",
      "outputs": [
        {
          "internalType": "string",
          "name": "",
          "type": "string"
        }
      ],
      "stateMutability": "view",
      "type": "function"
    },
    {
      "inputs": [],
      "name": "token",
      "outputs": [
        {
          "internalType": "contract IERC20",
          "name": "",
          "type": "address"
        }
      ],
      "stateMutability": "view",
      "type": "function"
    },
    {
      "inputs": [],
      "name": "getBalance",
      "outputs": [
        {
          "internalType": "uint256",
          "name": "",
          "type": "uint256"
        }
      ],
      "stateMutability": "view",
      "type": "function"
    },
    {
      "inputs": [],
      "name": "getReward",
      "outputs": [
        {
          "internalType": "uint256",
          "name": "",
          "type": "uint256"
        }
      ],
      "stateMutability": "view",
      "type": "function"
    },
    {
      "inputs": [],
      "name": "withdraw",
      "outputs": [],
      "stateMutability": "nonpayable",
      "type": "function"
    },
    {
      "inputs": [
        {
          "internalType": "address",
          "name": "_newBeneficiary",
          "type": "address"
        }
      ],
      "name": "setBeneficiary",
      "outputs": [],
      "stateMutability": "nonpayable",
      "type": "function"
    }
  ],
  "bytecode": "0x6969e10de76676d080000060015560c0604052601760808190527f43535420496e766573746f72732054696d65204c6f636b00000000000000000060a09081526200004e91600791906200016b565b506040805180820190915260078082526610d4d50b52551360ca1b60209092019182526200007f916008916200016b565b503480156200008d57600080fd5b5060405162000c2138038062000c21833981016040819052620000b0916200022e565b6001600160a01b03841615801590620000d157506001600160a01b03831615155b620000f95760405162461bcd60e51b8152600401620000f09062000275565b60405180910390fd5b600680546001600160a01b03199081166001600160a01b038781169190911790925560008054909116918516919091179055600381905562000148828262000156602090811b6200054917901c565b600255506200030e92505050565b6000620001648284620002ac565b9392505050565b8280546200017990620002d1565b90600052602060002090601f0160209004810192826200019d5760008555620001e8565b82601f10620001b857805160ff1916838001178555620001e8565b82800160010185558215620001e8579182015b82811115620001e8578251825591602001919060010190620001cb565b50620001f6929150620001fa565b5090565b5b80821115620001f65760008155600101620001fb565b80516001600160a01b03811681146200022957600080fd5b919050565b6000806000806080858703121562000244578384fd5b6200024f8562000211565b93506200025f6020860162000211565b6040860151606090960151949790965092505050565b60208082526016908201527f54696d654c6f636b3a207a65726f206164647265737300000000000000000000604082015260600190565b60008219821115620002cc57634e487b7160e01b81526011600452602481fd5b500190565b600281046001821680620002e657607f821691505b602082108114156200030857634e487b7160e01b600052602260045260246000fd5b50919050565b610903806200031e6000396000f3fe608060405234801561001057600080fd5b50600436106100f55760003560e01c80636190c9d511610097578063b4d1d79511610066578063b4d1d7951461018f578063dff1624114610197578063f24c327b1461019f578063fc0c546a146101a7576100f5565b80636190c9d51461016f5780636a42b8f81461017757806378e979251461017f57806395d89b4114610187576100f5565b80631c31f710116100d35780631c31f7101461013557806338af3eed1461014a5780633ccfd60b1461015f5780633d18b91214610167576100f5565b806303e8fcb5146100fa57806306fdde031461011857806312065fe01461012d575b600080fd5b6101026101af565b60405161010f91906107d5565b60405180910390f35b6101206101b5565b60405161010f9190610715565b610102610243565b61014861014336600461066d565b6102ca565b005b61015261031f565b60405161010f91906106e8565b61014861032e565b61010261040f565b610102610509565b61010261050f565b610102610515565b61012061051b565b610102610528565b61010261052f565b610102610535565b61015261053a565b60015481565b600780546101c29061087c565b80601f01602080910402602001604051908101604052809291908181526020018280546101ee9061087c565b801561023b5780601f106102105761010080835404028352916020019161023b565b820191906000526020600020905b81548152906001019060200180831161021e57829003601f168201915b505050505081565b600080546040516370a0823160e01b81526001600160a01b03909116906370a08231906102749030906004016106e8565b60206040518083038186803b15801561028c57600080fd5b505afa1580156102a0573d6000803e3d6000fd5b505050506040513d601f19601f820116820180604052508101906102c491906106b4565b90505b90565b6006546001600160a01b031633146102fd5760405162461bcd60e51b81526004016102f4906107ac565b60405180910390fd5b600680546001600160a01b0319166001600160a01b0392909216919091179055565b6006546001600160a01b031681565b600061033861040f565b90506000811161035a5760405162461bcd60e51b81526004016102f49061077f565b600061037e62278d006103786002544261055c90919063ffffffff16565b90610568565b9050600c81101561038f5780610392565b600c5b6004556005546103a29083610549565b6005556000546006546103c2916001600160a01b03908116911684610574565b6006546040516001600160a01b039091169033907fec37a407e13e9283023de85016cfda169c84b8f0e8dcda13c92311ab8fee7ad5906104039086906107d5565b60405180910390a35050565b6000600c60045410158061042557506002544211155b15610432575060006102c7565b600061045062278d006103786002544261055c90919063ffffffff16565b9050600c81106104e2576000546040516370a0823160e01b81526001600160a01b03909116906370a082319061048a9030906004016106e8565b60206040518083038186803b1580156104a257600080fd5b505afa1580156104b6573d6000803e3d6000fd5b505050506040513d601f19601f820116820180604052508101906104da91906106b4565b9150506102c7565b6105036001546104fd6004548461055c90919063ffffffff16565b90610661565b91505090565b60045481565b60035481565b60025481565b600880546101c29061087c565b62278d0081565b60055481565b600c81565b6000546001600160a01b031681565b600061055582846107de565b9392505050565b60006105558284610835565b600061055582846107f6565b600080846001600160a01b031663a9059cbb85856040516024016105999291906106fc565b6040516020818303038152906040529060e01b6020820180516001600160e01b0383818316178352505050506040516105d291906106cc565b6000604051808303816000865af19150503d806000811461060f576040519150601f19603f3d011682016040523d82523d6000602084013e610614565b606091505b509150915081801561063e57508051158061063e57508080602001905181019061063e9190610694565b61065a5760405162461bcd60e51b81526004016102f490610748565b5050505050565b60006105558284610816565b60006020828403121561067e578081fd5b81356001600160a01b0381168114610555578182fd5b6000602082840312156106a5578081fd5b81518015158114610555578182fd5b6000602082840312156106c5578081fd5b5051919050565b600082516106de81846020870161084c565b9190910192915050565b6001600160a01b0391909116815260200190565b6001600160a01b03929092168252602082015260400190565b600060208252825180602084015261073481604085016020870161084c565b601f01601f19169190910160400192915050565b6020808252601f908201527f5472616e7366657248656c7065723a205452414e534645525f4641494c454400604082015260600190565b602080825260139082015272151a5b59531bd8dace881b9bc81c995dd85c99606a1b604082015260600190565b6020808252600f908201526e4e6f742062656e656669636961727960881b604082015260600190565b90815260200190565b600082198211156107f1576107f16108b7565b500190565b60008261081157634e487b7160e01b81526012600452602481fd5b500490565b6000816000190483118215151615610830576108306108b7565b500290565b600082821015610847576108476108b7565b500390565b60005b8381101561086757818101518382015260200161084f565b83811115610876576000848401525b50505050565b60028104600182168061089057607f821691505b602082108114156108b157634e487b7160e01b600052602260045260246000fd5b50919050565b634e487b7160e01b600052601160045260246000fdfea26469706673582212202ab5092ad5ab0dc973f10d1b0ac1eb96f0bd664eccf1c2ab637ecf8e59c4fd2b64736f6c63430008000033",
  "immutableReferences": {},
  "source": "// SPDX-License-Identifier: MIT\n\npragma solidity ^0.8.0;\n\nimport \"@openzeppelin/contracts/utils/math/SafeMath.sol\";\nimport \"@openzeppelin/contracts/token/ERC20/IERC20.sol\";\nimport \"./lib/TransferHelper.sol\";\n\ncontract TimeLock {\n    using SafeMath for uint256;\n\n    IERC20 public token;\n    uint256 public constant PERIOD = 30 days;\n    uint256 public constant CYCLE_TIMES = 12;\n    uint256 public fixedQuantity = 500_000 ether; // Monthly rewards are fixed\n    uint256 public startTime;\n    uint256 public delay;\n    uint256 public cycle; // cycle already received\n    uint256 public hasReward; // Rewards already withdrawn\n    address public beneficiary;\n    string public name = \"CST Investors Time Lock\";\n    string public symbol = \"CST-ITL\";\n\n    event WithDraw(\n        address indexed operator,\n        address indexed to,\n        uint256 amount\n    );\n\n    constructor(\n        address _beneficiary,\n        address _token,\n        uint256 _startTime,\n        uint256 _delay\n    ) {\n        require(\n            _beneficiary != address(0) && _token != address(0),\n            \"TimeLock: zero address\"\n        );\n        beneficiary = _beneficiary;\n        token = IERC20(_token);\n        delay = _delay;\n        startTime = _startTime.add(_delay);\n    }\n\n    function getBalance() public view returns (uint256) {\n        return token.balanceOf(address(this));\n    }\n\n    function getReward() public view returns (uint256) {\n        // Has ended or not started\n        if (cycle >= CYCLE_TIMES || block.timestamp <= startTime) {\n            return 0;\n        }\n        uint256 pCycle = (block.timestamp.sub(startTime)).div(PERIOD);\n        if (pCycle >= CYCLE_TIMES) {\n            return token.balanceOf(address(this));\n        }\n        return pCycle.sub(cycle).mul(fixedQuantity);\n    }\n\n    function withdraw() external {\n        uint256 reward = getReward();\n        require(reward > 0, \"TimeLock: no reward\");\n        uint256 pCycle = (block.timestamp.sub(startTime)).div(PERIOD);\n        cycle = pCycle >= CYCLE_TIMES ? CYCLE_TIMES : pCycle;\n        hasReward = hasReward.add(reward);\n        TransferHelper.safeTransfer(address(token), beneficiary, reward);\n        emit WithDraw(msg.sender, beneficiary, reward);\n    }\n\n    // Update beneficiary address by the previous beneficiary.\n    function setBeneficiary(address _newBeneficiary) public {\n        require(msg.sender == beneficiary, \"Not beneficiary\");\n        beneficiary = _newBeneficiary;\n    }\n}\n",
  "sourcePath": "/Users/zhangleping/github.com/0x5dA1/cstable-contracts/contracts/TimeLock.sol",
  "compiler": {
    "name": "solc",
    "version": "0.8.0+commit.c7dfd78e.Emscripten.clang"
  },
  "schemaVersion": "3.4.1",
  "updatedAt": "2021-10-19T02:41:38.144Z",
  "devdoc": {
    "kind": "dev",
    "methods": {},
    "version": 1
  },
  "userdoc": {
    "kind": "user",
    "methods": {},
    "version": 1
  }
}